{
  "contractName": "MultiBox",
  "abi": [
    {
      "constant": true,
      "inputs": [],
      "name": "initialized",
      "outputs": [
        {
          "name": "",
          "type": "bool"
        }
      ],
      "payable": false,
      "stateMutability": "view",
      "type": "function",
      "signature": "0x158ef93e"
    },
    {
      "constant": false,
      "inputs": [
        {
          "name": "_newOwner",
          "type": "address"
        }
      ],
      "name": "changeOwner",
      "outputs": [],
      "payable": false,
      "stateMutability": "nonpayable",
      "type": "function",
      "signature": "0xa6f9dae1"
    },
    {
      "inputs": [],
      "payable": false,
      "stateMutability": "nonpayable",
      "type": "constructor",
      "signature": "constructor"
    },
    {
      "payable": true,
      "stateMutability": "payable",
      "type": "fallback"
    },
    {
      "anonymous": false,
      "inputs": [],
      "name": "Constructed",
      "type": "event",
      "signature": "0xcef2635b5880145900d89cfed59a42dbea505e481b09176f9c1d061faefa2497"
    },
    {
      "anonymous": false,
      "inputs": [],
      "name": "Initialized",
      "type": "event",
      "signature": "0x5daa87a0e9463431830481fd4b6e3403442dfb9a12b9c07597e9f61d50b633c8"
    },
    {
      "constant": false,
      "inputs": [],
      "name": "init",
      "outputs": [
        {
          "name": "",
          "type": "address"
        }
      ],
      "payable": false,
      "stateMutability": "nonpayable",
      "type": "function",
      "signature": "0xe1c7392a"
    },
    {
      "constant": false,
      "inputs": [
        {
          "name": "whoHasReadWriteRights",
          "type": "address"
        }
      ],
      "name": "createRoot",
      "outputs": [
        {
          "name": "",
          "type": "address"
        }
      ],
      "payable": false,
      "stateMutability": "nonpayable",
      "type": "function",
      "signature": "0x22fb78a9"
    },
    {
      "constant": true,
      "inputs": [],
      "name": "getRoots",
      "outputs": [
        {
          "name": "",
          "type": "address[]"
        }
      ],
      "payable": false,
      "stateMutability": "view",
      "type": "function",
      "signature": "0x35a5e06d"
    },
    {
      "constant": true,
      "inputs": [],
      "name": "getRootsCount",
      "outputs": [
        {
          "name": "",
          "type": "uint256"
        }
      ],
      "payable": false,
      "stateMutability": "view",
      "type": "function",
      "signature": "0x9423fc6e"
    },
    {
      "constant": true,
      "inputs": [
        {
          "name": "index",
          "type": "uint256"
        }
      ],
      "name": "getRootAt",
      "outputs": [
        {
          "name": "",
          "type": "address"
        }
      ],
      "payable": false,
      "stateMutability": "view",
      "type": "function",
      "signature": "0xc7fb2dc7"
    },
    {
      "constant": false,
      "inputs": [
        {
          "name": "keyValueTreeRoot",
          "type": "address"
        }
      ],
      "name": "addBox",
      "outputs": [
        {
          "name": "",
          "type": "address"
        }
      ],
      "payable": false,
      "stateMutability": "nonpayable",
      "type": "function",
      "signature": "0xc4509b4f"
    },
    {
      "constant": false,
      "inputs": [
        {
          "name": "index",
          "type": "uint256"
        }
      ],
      "name": "removeBox",
      "outputs": [
        {
          "name": "",
          "type": "uint256"
        }
      ],
      "payable": false,
      "stateMutability": "nonpayable",
      "type": "function",
      "signature": "0x59d2817a"
    },
    {
      "constant": false,
      "inputs": [],
      "name": "removeFunds",
      "outputs": [],
      "payable": false,
      "stateMutability": "nonpayable",
      "type": "function",
      "signature": "0xfeac51f5"
    }
  ],
  "bytecode": "0x60806040526000600260006101000a81548160ff02191690831515021790555034801561002b57600080fd5b50336000806101000a81548173ffffffffffffffffffffffffffffffffffffffff021916908373ffffffffffffffffffffffffffffffffffffffff160217905550600180819055506000600260006101000a81548160ff0219169083151502179055507fcef2635b5880145900d89cfed59a42dbea505e481b09176f9c1d061faefa249760405160405180910390a1614012806100c96000396000f3fe608060405260043610620000af576000357c0100000000000000000000000000000000000000000000000000000000900463ffffffff168063158ef93e14620000b157806322fb78a914620000e357806335a5e06d146200017857806359d2817a14620001e95780639423fc6e146200023c578063a6f9dae1146200026a578063c4509b4f14620002bf578063c7fb2dc71462000354578063e1c7392a14620003d3578063feac51f5146200042d575b005b348015620000be57600080fd5b50620000c962000447565b604051808215151515815260200191505060405180910390f35b348015620000f057600080fd5b5062000136600480360360208110156200010957600080fd5b81019080803573ffffffffffffffffffffffffffffffffffffffff1690602001909291905050506200045a565b604051808273ffffffffffffffffffffffffffffffffffffffff1673ffffffffffffffffffffffffffffffffffffffff16815260200191505060405180910390f35b3480156200018557600080fd5b506200019062000824565b6040518080602001828103825283818151815260200191508051906020019060200280838360005b83811015620001d5578082015181840152602081019050620001b8565b505050509050019250505060405180910390f35b348015620001f657600080fd5b5062000226600480360360208110156200020f57600080fd5b8101908080359060200190929190505050620008b4565b6040518082815260200191505060405180910390f35b3480156200024957600080fd5b506200025462000a3d565b6040518082815260200191505060405180910390f35b3480156200027757600080fd5b50620002bd600480360360208110156200029057600080fd5b81019080803573ffffffffffffffffffffffffffffffffffffffff16906020019092919050505062000a4a565b005b348015620002cc57600080fd5b506200031260048036036020811015620002e557600080fd5b81019080803573ffffffffffffffffffffffffffffffffffffffff16906020019092919050505062000ae9565b604051808273ffffffffffffffffffffffffffffffffffffffff1673ffffffffffffffffffffffffffffffffffffffff16815260200191505060405180910390f35b3480156200036157600080fd5b5062000391600480360360208110156200037a57600080fd5b810190808035906020019092919050505062000b59565b604051808273ffffffffffffffffffffffffffffffffffffffff1673ffffffffffffffffffffffffffffffffffffffff16815260200191505060405180910390f35b348015620003e057600080fd5b50620003eb62000b9d565b604051808273ffffffffffffffffffffffffffffffffffffffff1673ffffffffffffffffffffffffffffffffffffffff16815260200191505060405180910390f35b3480156200043a57600080fd5b506200044562000c2e565b005b600260009054906101000a900460ff1681565b6000806000809054906101000a900473ffffffffffffffffffffffffffffffffffffffff166200048962000cb0565b808273ffffffffffffffffffffffffffffffffffffffff1673ffffffffffffffffffffffffffffffffffffffff168152602001915050604051809103906000f080158015620004dc573d6000803e3d6000fd5b509050600260009054906101000a900460ff16151562000686578073ffffffffffffffffffffffffffffffffffffffff166390d1040e8273ffffffffffffffffffffffffffffffffffffffff1663271bf53f6040518163ffffffff167c010000000000000000000000000000000000000000000000000000000002815260040160206040518083038186803b1580156200057557600080fd5b505afa1580156200058a573d6000803e3d6000fd5b505050506040513d6020811015620005a157600080fd5b81019080805190602001909291905050508560036040518463ffffffff167c0100000000000000000000000000000000000000000000000000000000028152600401808481526020018373ffffffffffffffffffffffffffffffffffffffff1673ffffffffffffffffffffffffffffffffffffffff1681526020018281526020019350505050602060405180830381600087803b1580156200064257600080fd5b505af115801562000657573d6000803e3d6000fd5b505050506040513d60208110156200066e57600080fd5b81019080805190602001909291905050505062000811565b8073ffffffffffffffffffffffffffffffffffffffff166390d1040e8273ffffffffffffffffffffffffffffffffffffffff1663271bf53f6040518163ffffffff167c010000000000000000000000000000000000000000000000000000000002815260040160206040518083038186803b1580156200070557600080fd5b505afa1580156200071a573d6000803e3d6000fd5b505050506040513d60208110156200073157600080fd5b81019080805190602001909291905050508560026040518463ffffffff167c0100000000000000000000000000000000000000000000000000000000028152600401808481526020018373ffffffffffffffffffffffffffffffffffffffff1673ffffffffffffffffffffffffffffffffffffffff1681526020018281526020019350505050602060405180830381600087803b158015620007d257600080fd5b505af1158015620007e7573d6000803e3d6000fd5b505050506040513d6020811015620007fe57600080fd5b8101908080519060200190929190505050505b6200081c8162000ae9565b915050919050565b60606003805480602002602001604051908101604052809291908181526020018280548015620008aa57602002820191906000526020600020905b8160009054906101000a900473ffffffffffffffffffffffffffffffffffffffff1673ffffffffffffffffffffffffffffffffffffffff16815260200190600101908083116200085f575b5050505050905090565b60008060009054906101000a900473ffffffffffffffffffffffffffffffffffffffff1673ffffffffffffffffffffffffffffffffffffffff163373ffffffffffffffffffffffffffffffffffffffff161415156200091257600080fd5b600082141562000926576000905062000a38565b60036001600380549050038154811015156200093e57fe5b9060005260206000200160009054906101000a900473ffffffffffffffffffffffffffffffffffffffff166003838154811015156200097957fe5b9060005260206000200160006101000a81548173ffffffffffffffffffffffffffffffffffffffff021916908373ffffffffffffffffffffffffffffffffffffffff1602179055506003600160038054905003815481101515620009d957fe5b9060005260206000200160006101000a81549073ffffffffffffffffffffffffffffffffffffffff0219169055600380548091906001900362000a1d919062000cc1565b50600380548091906001900362000a35919062000cc1565b90505b919050565b6000600380549050905090565b6000809054906101000a900473ffffffffffffffffffffffffffffffffffffffff1673ffffffffffffffffffffffffffffffffffffffff163373ffffffffffffffffffffffffffffffffffffffff1614151562000aa657600080fd5b806000806101000a81548173ffffffffffffffffffffffffffffffffffffffff021916908373ffffffffffffffffffffffffffffffffffffffff16021790555050565b600060038290806001815401808255809150509060018203906000526020600020016000909192909190916101000a81548173ffffffffffffffffffffffffffffffffffffffff021916908373ffffffffffffffffffffffffffffffffffffffff16021790555050819050919050565b600060038281548110151562000b6b57fe5b9060005260206000200160009054906101000a900473ffffffffffffffffffffffffffffffffffffffff169050919050565b6000600260009054906101000a900460ff16151562000be45762000be26000809054906101000a900473ffffffffffffffffffffffffffffffffffffffff166200045a565b505b6001600260006101000a81548160ff0219169083151502179055507f5daa87a0e9463431830481fd4b6e3403442dfb9a12b9c07597e9f61d50b633c860405160405180910390a190565b6000809054906101000a900473ffffffffffffffffffffffffffffffffffffffff1673ffffffffffffffffffffffffffffffffffffffff166108fc3073ffffffffffffffffffffffffffffffffffffffff16319081150290604051600060405180830381858888f1935050505015801562000cad573d6000803e3d6000fd5b50565b6040516132ce8062000d1983390190565b81548183558181111562000ceb5781836000526020600020918201910162000cea919062000cf0565b5b505050565b62000d1591905b8082111562000d1157600081600090555060010162000cf7565b5090565b9056fe60806040523480156200001157600080fd5b50604051602080620032ce833981018060405260208110156200003357600080fd5b8101908080519060200190929190505050336000806101000a81548173ffffffffffffffffffffffffffffffffffffffff021916908373ffffffffffffffffffffffffffffffffffffffff1602179055506001600781905550806000806101000a81548173ffffffffffffffffffffffffffffffffffffffff021916908373ffffffffffffffffffffffffffffffffffffffff1602179055507f87fdbc6f98166868caf18c4ef2cb670a33f1bd60be108d5c691d883086699ca981604051808273ffffffffffffffffffffffffffffffffffffffff1673ffffffffffffffffffffffffffffffffffffffff16815260200191505060405180910390a16200017160006001027fc7f5bbf5fe95923f0691c94f666ac3dfed12456cd33bd018e7620c3d93edd5a6600102620001c4640100000000026401000000009004565b600881905550620001b76008547f23e642b7242469a5e3184a6566020c815689149967703a98c0affc14b9ca9b28600102620003b8640100000000026401000000009004565b6009819055505062000be5565b6000620001e083620005b7640100000000026401000000009004565b158015620001f15750600060010283115b15620001fc57600080fd5b82334384604051602001808581526020018473ffffffffffffffffffffffffffffffffffffffff1673ffffffffffffffffffffffffffffffffffffffff166c010000000000000000000000000281526014018381526020018281526020019450505050506040516020818303038152906040528051906020012090506200028262000b2f565b8381602001818152505060018160000190151590811515815250506000600102841115620002cf57620002c58483620005e4640100000000026401000000009004565b8160400181815250505b806005600084815260200190815260200160002060008201518160000160006101000a81548160ff021916908315150217905550602082015181600101556040820151816002015560608201518160050190805190602001906200033592919062000b6b565b5060808201518160060190805190602001906200035492919062000b6b565b5060a08201518160070190805190602001906200037392919062000b6b565b509050507f750ce99a59a7cddb870828676c526c0ffcbe02a104adbeeda2e7f71c30ab01ab826040518082815260200191505060405180910390a18191505092915050565b600080839050620003d881620005b7640100000000026401000000009004565b1515620003e55760085490505b62000400813362000630640100000000026401000000009004565b15156200040d5760095490505b6000600160008581526020019081526020016000205490506000600102811415156200046f576200044e813362000630640100000000026401000000009004565b15156200046457600060010292505050620005b1565b8092505050620005b1565b6200048a823362000823640100000000026401000000009004565b1515620004a057600060010292505050620005b1565b6000620004bd8386620001c4640100000000026401000000009004565b90508060016000878152602001908152602001600020819055506001600386908060018154018082558091505090600182039060005260206000200160009091929091909150550360026000878152602001908152602001600020819055508460066000838152602001908152602001600020819055506000809054906101000a900473ffffffffffffffffffffffffffffffffffffffff1673ffffffffffffffffffffffffffffffffffffffff163373ffffffffffffffffffffffffffffffffffffffff16141515620005aa57620005a881336002620009c0640100000000026401000000009004565b505b8093505050505b92915050565b60006005600083815260200190815260200160002060000160009054906101000a900460ff169050919050565b6000600160056000858152602001908152602001600020600701839080600181540180825580915050906001820390600052602060002001600090919290919091505503905092915050565b60006200064c83620005b7640100000000026401000000009004565b15156200065d57600090506200081d565b3373ffffffffffffffffffffffffffffffffffffffff168273ffffffffffffffffffffffffffffffffffffffff1614156200069c57600190506200081d565b60006005600085815260200190815260200160002090507fffffffffffffffffffffffffffffffffffffffffffffffffffffffffffffffff8160030160008573ffffffffffffffffffffffffffffffffffffffff1673ffffffffffffffffffffffffffffffffffffffff168152602001908152602001600020541415620007285760009150506200081d565b60038160030160008073ffffffffffffffffffffffffffffffffffffffff1673ffffffffffffffffffffffffffffffffffffffff1681526020019081526020016000205414156200077e5760009150506200081d565b60008160030160008073ffffffffffffffffffffffffffffffffffffffff1673ffffffffffffffffffffffffffffffffffffffff168152602001908152602001600020541315620007d45760019150506200081d565b60008160030160008573ffffffffffffffffffffffffffffffffffffffff1673ffffffffffffffffffffffffffffffffffffffff16815260200190815260200160002054139150505b92915050565b60006200083f83620005b7640100000000026401000000009004565b1515620008505760009050620009ba565b3373ffffffffffffffffffffffffffffffffffffffff168273ffffffffffffffffffffffffffffffffffffffff1614156200088f5760019050620009ba565b60006005600085815260200190815260200160002090507fffffffffffffffffffffffffffffffffffffffffffffffffffffffffffffffff8160030160008573ffffffffffffffffffffffffffffffffffffffff1673ffffffffffffffffffffffffffffffffffffffff1681526020019081526020016000205414156200091b576000915050620009ba565b60018160030160008073ffffffffffffffffffffffffffffffffffffffff1673ffffffffffffffffffffffffffffffffffffffff16815260200190815260200160002054131562000971576001915050620009ba565b60018160030160008573ffffffffffffffffffffffffffffffffffffffff1673ffffffffffffffffffffffffffffffffffffffff16815260200190815260200160002054139150505b92915050565b60008060009054906101000a900473ffffffffffffffffffffffffffffffffffffffff1673ffffffffffffffffffffffffffffffffffffffff163373ffffffffffffffffffffffffffffffffffffffff1614151562000a42577fffffffffffffffffffffffffffffffffffffffffffffffffffffffffffffffff905062000b28565b6000809054906101000a900473ffffffffffffffffffffffffffffffffffffffff1673ffffffffffffffffffffffffffffffffffffffff168373ffffffffffffffffffffffffffffffffffffffff16141562000aa2576002905062000b28565b62000abc84620005b7640100000000026401000000009004565b1562000b2357816005600086815260200190815260200160002060030160008573ffffffffffffffffffffffffffffffffffffffff1673ffffffffffffffffffffffffffffffffffffffff1681526020019081526020016000208190555081905062000b28565b600090505b9392505050565b60c06040519081016040528060001515815260200160008019168152602001600081526020016060815260200160608152602001606081525090565b82805482825590600052602060002090810192821562000baa579160200282015b8281111562000ba957825182559160200191906001019062000b8c565b5b50905062000bb9919062000bbd565b5090565b62000be291905b8082111562000bde57600081600090555060010162000bc4565b5090565b90565b6126d98062000bf56000396000f3fe6080604052600436106101a1576000357c0100000000000000000000000000000000000000000000000000000000900463ffffffff1680630d8e6e2c146101a6578063271bf53f146101d15780632a680ddc146101fc578063387b22421461028c5780635778455f146102e55780635ba5342a146103105780635ca1e1651461033b57806362ecbd351461036657806362fbdb76146103d9578063640a7f881461040457806369732f921461045357806372965b30146104a257806375a2cdde146104fb5780637a8f102f146105955780637b01127c146106015780638f1ac1751461065a57806390d1040e146106cd578063a24fa79114610746578063a60efc6514610799578063a6f9dae1146107e8578063aa1f833614610839578063ae4c616114610888578063b1cfda8814610918578063b7471dd01461097f578063c62aa67d146109d8578063cd98de8514610a27578063cf25611e14610a9a578063d4c602f114610af7578063db885eb814610b54578063de57971b14610ba3578063f12a796b14610bfc578063f3634c6d14610c4f578063fa80164414610c9e575b600080fd5b3480156101b257600080fd5b506101bb610d0f565b6040518082815260200191505060405180910390f35b3480156101dd57600080fd5b506101e6610d19565b6040518082815260200191505060405180910390f35b34801561020857600080fd5b506102356004803603602081101561021f57600080fd5b8101908080359060200190929190505050610d23565b6040518080602001828103825283818151815260200191508051906020019060200280838360005b8381101561027857808201518184015260208101905061025d565b505050509050019250505060405180910390f35b34801561029857600080fd5b506102cf600480360360408110156102af57600080fd5b810190808035906020019092919080359060200190929190505050610d91565b6040518082815260200191505060405180910390f35b3480156102f157600080fd5b506102fa610dc9565b6040518082815260200191505060405180910390f35b34801561031c57600080fd5b50610325610e31565b6040518082815260200191505060405180910390f35b34801561034757600080fd5b50610350610e37565b6040518082815260200191505060405180910390f35b34801561037257600080fd5b506103bf6004803603604081101561038957600080fd5b8101908080359060200190929190803573ffffffffffffffffffffffffffffffffffffffff169060200190929190505050610e41565b604051808215151515815260200191505060405180910390f35b3480156103e557600080fd5b506103ee610fc5565b6040518082815260200191505060405180910390f35b34801561041057600080fd5b5061043d6004803603602081101561042757600080fd5b8101908080359060200190929190505050610fcb565b6040518082815260200191505060405180910390f35b34801561045f57600080fd5b5061048c6004803603602081101561047657600080fd5b8101908080359060200190929190505050611008565b6040518082815260200191505060405180910390f35b3480156104ae57600080fd5b506104e5600480360360408110156104c557600080fd5b810190808035906020019092919080359060200190929190505050611025565b6040518082815260200191505060405180910390f35b34801561050757600080fd5b5061053e6004803603604081101561051e57600080fd5b81019080803590602001909291908035906020019092919050505061107a565b6040518080602001828103825283818151815260200191508051906020019060200280838360005b83811015610581578082015181840152602081019050610566565b505050509050019250505060405180910390f35b3480156105a157600080fd5b506105aa611152565b6040518080602001828103825283818151815260200191508051906020019060200280838360005b838110156105ed5780820151818401526020810190506105d2565b505050509050019250505060405180910390f35b34801561060d57600080fd5b506106446004803603604081101561062457600080fd5b810190808035906020019092919080359060200190929190505050611205565b6040518082815260200191505060405180910390f35b34801561066657600080fd5b506106b36004803603604081101561067d57600080fd5b8101908080359060200190929190803573ffffffffffffffffffffffffffffffffffffffff169060200190929190505050611254565b604051808215151515815260200191505060405180910390f35b3480156106d957600080fd5b50610730600480360360608110156106f057600080fd5b8101908080359060200190929190803573ffffffffffffffffffffffffffffffffffffffff169060200190929190803590602001909291905050506113d8565b6040518082815260200191505060405180910390f35b34801561075257600080fd5b5061077f6004803603602081101561076957600080fd5b8101908080359060200190929190505050611530565b604051808215151515815260200191505060405180910390f35b3480156107a557600080fd5b506107d2600480360360208110156107bc57600080fd5b810190808035906020019092919050505061155d565b6040518082815260200191505060405180910390f35b3480156107f457600080fd5b506108376004803603602081101561080b57600080fd5b81019080803573ffffffffffffffffffffffffffffffffffffffff16906020019092919050505061159a565b005b34801561084557600080fd5b506108726004803603602081101561085c57600080fd5b8101908080359060200190929190505050611638565b6040518082815260200191505060405180910390f35b34801561089457600080fd5b506108c1600480360360208110156108ab57600080fd5b81019080803590602001909291905050506116b6565b6040518080602001828103825283818151815260200191508051906020019060200280838360005b838110156109045780820151818401526020810190506108e9565b505050509050019250505060405180910390f35b34801561092457600080fd5b506109656004803603606081101561093b57600080fd5b81019080803590602001909291908035906020019092919080359060200190929190505050611740565b604051808215151515815260200191505060405180910390f35b34801561098b57600080fd5b506109c2600480360360408110156109a257600080fd5b810190808035906020019092919080359060200190929190505050611952565b6040518082815260200191505060405180910390f35b3480156109e457600080fd5b50610a11600480360360208110156109fb57600080fd5b81019080803590602001909291905050506119a7565b6040518082815260200191505060405180910390f35b348015610a3357600080fd5b50610a8060048036036040811015610a4a57600080fd5b8101908080359060200190929190803573ffffffffffffffffffffffffffffffffffffffff169060200190929190505050611a13565b604051808215151515815260200191505060405180910390f35b348015610aa657600080fd5b50610add60048036036040811015610abd57600080fd5b810190808035906020019092919080359060200190929190505050611beb565b604051808215151515815260200191505060405180910390f35b348015610b0357600080fd5b50610b3a60048036036040811015610b1a57600080fd5b810190808035906020019092919080359060200190929190505050611d87565b604051808215151515815260200191505060405180910390f35b348015610b6057600080fd5b50610b8d60048036036020811015610b7757600080fd5b8101908080359060200190929190505050611ee9565b6040518082815260200191505060405180910390f35b348015610baf57600080fd5b50610be660048036036040811015610bc657600080fd5b810190808035906020019092919080359060200190929190505050611f0c565b6040518082815260200191505060405180910390f35b348015610c0857600080fd5b50610c3560048036036020811015610c1f57600080fd5b810190808035906020019092919050505061209c565b604051808215151515815260200191505060405180910390f35b348015610c5b57600080fd5b50610c8860048036036020811015610c7257600080fd5b81019080803590602001909291905050506121f2565b6040518082815260200191505060405180910390f35b348015610caa57600080fd5b50610cf560048036036080811015610cc157600080fd5b8101908080359060200190929190803590602001909291908035906020019092919080359060200190929190505050612272565b604051808215151515815260200191505060405180910390f35b6000600754905090565b6000600954905090565b606060056000838152602001908152602001600020600701805480602002602001604051908101604052809291908181526020018280548015610d8557602002820191906000526020600020905b815481526020019060010190808311610d71575b50505050509050919050565b60006005600084815260200190815260200160002060070182815481101515610db657fe5b9060005260206000200154905092915050565b60008060009054906101000a900473ffffffffffffffffffffffffffffffffffffffff1673ffffffffffffffffffffffffffffffffffffffff163373ffffffffffffffffffffffffffffffffffffffff16141515610e2657600080fd5b600380549050905090565b60085481565b6000600854905090565b6000610e4c83611530565b1515610e5b5760009050610fbf565b3373ffffffffffffffffffffffffffffffffffffffff168273ffffffffffffffffffffffffffffffffffffffff161415610e985760019050610fbf565b60006005600085815260200190815260200160002090507fffffffffffffffffffffffffffffffffffffffffffffffffffffffffffffffff8160030160008573ffffffffffffffffffffffffffffffffffffffff1673ffffffffffffffffffffffffffffffffffffffff168152602001908152602001600020541415610f22576000915050610fbf565b60038160030160008073ffffffffffffffffffffffffffffffffffffffff1673ffffffffffffffffffffffffffffffffffffffff168152602001908152602001600020541315610f76576001915050610fbf565b60038160030160008573ffffffffffffffffffffffffffffffffffffffff1673ffffffffffffffffffffffffffffffffffffffff16815260200190815260200160002054139150505b92915050565b60095481565b6000610fd78233611a13565b1515610fe65760009050611003565b600560008381526020019081526020016000206006018054905090505b919050565b600060026000838152602001908152602001600020549050919050565b60006110318333611a13565b15156110435760006001029050611074565b600560008481526020019081526020016000206006018281548110151561106657fe5b906000526020600020015490505b92915050565b60606000809054906101000a900473ffffffffffffffffffffffffffffffffffffffff1673ffffffffffffffffffffffffffffffffffffffff163373ffffffffffffffffffffffffffffffffffffffff161415156110d757600080fd5b60046000838152602001908152602001600020600084815260200190815260200160002080548060200260200160405190810160405280929190818152602001828054801561114557602002820191906000526020600020905b815481526020019060010190808311611131575b5050505050905092915050565b60606000809054906101000a900473ffffffffffffffffffffffffffffffffffffffff1673ffffffffffffffffffffffffffffffffffffffff163373ffffffffffffffffffffffffffffffffffffffff161415156111af57600080fd5b60038054806020026020016040519081016040528092919081815260200182805480156111fb57602002820191906000526020600020905b8154815260200190600101908083116111e7575b5050505050905090565b60006112118333611a13565b1515611223576000600102905061124e565b6005600084815260200190815260200160002060040160008381526020019081526020016000205490505b92915050565b600061125f83611530565b151561126e57600090506113d2565b3373ffffffffffffffffffffffffffffffffffffffff168273ffffffffffffffffffffffffffffffffffffffff1614156112ab57600190506113d2565b60006005600085815260200190815260200160002090507fffffffffffffffffffffffffffffffffffffffffffffffffffffffffffffffff8160030160008573ffffffffffffffffffffffffffffffffffffffff1673ffffffffffffffffffffffffffffffffffffffff1681526020019081526020016000205414156113355760009150506113d2565b60018160030160008073ffffffffffffffffffffffffffffffffffffffff1673ffffffffffffffffffffffffffffffffffffffff1681526020019081526020016000205413156113895760019150506113d2565b60018160030160008573ffffffffffffffffffffffffffffffffffffffff1673ffffffffffffffffffffffffffffffffffffffff16815260200190815260200160002054139150505b92915050565b60008060009054906101000a900473ffffffffffffffffffffffffffffffffffffffff1673ffffffffffffffffffffffffffffffffffffffff163373ffffffffffffffffffffffffffffffffffffffff16141515611458577fffffffffffffffffffffffffffffffffffffffffffffffffffffffffffffffff9050611529565b6000809054906101000a900473ffffffffffffffffffffffffffffffffffffffff1673ffffffffffffffffffffffffffffffffffffffff168373ffffffffffffffffffffffffffffffffffffffff1614156114b65760029050611529565b6114bf84611530565b1561152457816005600086815260200190815260200160002060030160008573ffffffffffffffffffffffffffffffffffffffff1673ffffffffffffffffffffffffffffffffffffffff16815260200190815260200160002081905550819050611529565b600090505b9392505050565b60006005600083815260200190815260200160002060000160009054906101000a900460ff169050919050565b60006115698233611a13565b15156115785760009050611595565b600560008381526020019081526020016000206005018054905090505b919050565b6000809054906101000a900473ffffffffffffffffffffffffffffffffffffffff1673ffffffffffffffffffffffffffffffffffffffff163373ffffffffffffffffffffffffffffffffffffffff161415156115f557600080fd5b806000806101000a81548173ffffffffffffffffffffffffffffffffffffffff021916908373ffffffffffffffffffffffffffffffffffffffff16021790555050565b60008060009054906101000a900473ffffffffffffffffffffffffffffffffffffffff1673ffffffffffffffffffffffffffffffffffffffff163373ffffffffffffffffffffffffffffffffffffffff1614151561169557600080fd5b6003828154811015156116a457fe5b90600052602060002001549050919050565b6060806116c38333611a13565b15156116d2578091505061173b565b6005600084815260200190815260200160002060050180548060200260200160405190810160405280929190818152602001828054801561173257602002820191906000526020600020905b81548152602001906001019080831161171e575b50505050509150505b919050565b6000806001600086815260200190815260200160002054905060006001028114156117d557600060095490506000809054906101000a900473ffffffffffffffffffffffffffffffffffffffff1673ffffffffffffffffffffffffffffffffffffffff163373ffffffffffffffffffffffffffffffffffffffff1614156117c75760085490505b6117d18187611f0c565b9150505b6117df8133611254565b15156117ef57600091505061194b565b600060056000838152602001908152602001600020905060006001028160040160008781526020019081526020016000205414156118f6578060050185908060018154018082558091505090600182039060005260206000200160009091929091909150555080600601849080600181540180825580915050906001820390600052602060002001600090919290919091505550838160040160008781526020019081526020016000208190555060046000868152602001908152602001600020600087815260200190815260200160002084908060018154018082558091505090600182039060005260206000200160009091929091909150555060019250505061194b565b6004600086815260200190815260200160002060008781526020019081526020016000208490806001815401808255809150509060018203906000526020600020016000909192909190915055506000925050505b9392505050565b600061195e8333611a13565b151561197057600060010290506119a1565b600560008481526020019081526020016000206005018281548110151561199357fe5b906000526020600020015490505b92915050565b6000806001600084815260200190815260200160002054905060006001028114156119f6576119d860085433611a13565b15156119eb576000600102915050611a0e565b600854915050611a0e565b60016000848152602001908152602001600020549150505b919050565b6000611a1e83611530565b1515611a2d5760009050611be5565b3373ffffffffffffffffffffffffffffffffffffffff168273ffffffffffffffffffffffffffffffffffffffff161415611a6a5760019050611be5565b60006005600085815260200190815260200160002090507fffffffffffffffffffffffffffffffffffffffffffffffffffffffffffffffff8160030160008573ffffffffffffffffffffffffffffffffffffffff1673ffffffffffffffffffffffffffffffffffffffff168152602001908152602001600020541415611af4576000915050611be5565b60038160030160008073ffffffffffffffffffffffffffffffffffffffff1673ffffffffffffffffffffffffffffffffffffffff168152602001908152602001600020541415611b48576000915050611be5565b60008160030160008073ffffffffffffffffffffffffffffffffffffffff1673ffffffffffffffffffffffffffffffffffffffff168152602001908152602001600020541315611b9c576001915050611be5565b60008160030160008573ffffffffffffffffffffffffffffffffffffffff1673ffffffffffffffffffffffffffffffffffffffff16815260200190815260200160002054139150505b92915050565b6000611bf78333611254565b1515611c065760009050611d81565b600060056000858152602001908152602001600020905060008160050184815481101515611c3057fe5b9060005260206000200154905060006001028114151515611c5057600080fd5b600060010282600401600083815260200190815260200160002081905550816005016001836005018054905003815481101515611c8957fe5b90600052602060002001548260050185815481101515611ca557fe5b9060005260206000200181905550816005016001836005018054905003815481101515611cce57fe5b906000526020600020016000905581600501805480919060019003611cf391906125d3565b50816006016001836006018054905003815481101515611d0f57fe5b90600052602060002001548260060185815481101515611d2b57fe5b9060005260206000200181905550816006016001836006018054905003815481101515611d5457fe5b906000526020600020016000905581600601805480919060019003611d7991906125d3565b506001925050505b92915050565b6000611d938333611254565b1515611da25760009050611ee3565b6000600560008581526020019081526020016000209050611dde8160070184815481101515611dcd57fe5b906000526020600020015433611254565b1515611dee576000915050611ee3565b6000600182600701805490500390506000600560008460070184815481101515611e1457fe5b906000526020600020015481526020019081526020016000206002015490508260070182815481101515611e4457fe5b90600052602060002001548360070186815481101515611e6057fe5b90600052602060002001819055508260070182815481101515611e7f57fe5b906000526020600020016000905582600701805480919060019003611ea491906125d3565b5080600560008560070185815481101515611ebb57fe5b9060005260206000200154815260200190815260200160002060020181905550600193505050505b92915050565b600060056000838152602001908152602001600020600701805490509050919050565b600080839050611f1b81611530565b1515611f275760085490505b611f318133611a13565b1515611f3d5760095490505b600060016000858152602001908152602001600020549050600060010281141515611f8a57611f6c8133611a13565b1515611f8057600060010292505050612096565b8092505050612096565b611f948233611254565b1515611fa857600060010292505050612096565b6000611fb483866123c0565b90508060016000878152602001908152602001600020819055506001600386908060018154018082558091505090600182039060005260206000200160009091929091909150550360026000878152602001908152602001600020819055508460066000838152602001908152602001600020819055506000809054906101000a900473ffffffffffffffffffffffffffffffffffffffff1673ffffffffffffffffffffffffffffffffffffffff163373ffffffffffffffffffffffffffffffffffffffff1614151561208f5761208d813360026113d8565b505b8093505050505b92915050565b60006120a88233611254565b15156120b757600090506121ed565b60006006600084815260200190815260200160002054905060006001028114156120e55760009150506121ed565b600060056000858152602001908152602001600020905061210e81600101548260020154611d87565b156121e6576000600260008481526020019081526020016000205490506000600102600160008581526020019081526020016000208190555060006002600085815260200190815260200160002081905550600360016003805490500381548110151561217757fe5b906000526020600020015460038281548110151561219157fe5b906000526020600020018190555060036001600380549050038154811015156121b657fe5b906000526020600020016000905560038054809190600190036121d991906125d3565b50600193505050506121ed565b6000925050505b919050565b6000806001026006600084815260200190815260200160002054141561223a5761221e60085433611a13565b1515612230576000600102905061226d565b600854905061226d565b6122448233611a13565b1515612256576000600102905061226d565b600660008381526020019081526020016000205490505b919050565b600061227e8533610e41565b151561228d57600090506123b8565b600060056000878152602001908152602001600020905080600601805490508510156123b257600081600501868154811015156122c657fe5b9060005260206000200154905060006001028260040160008381526020019081526020016000208190555084826005018781548110151561230357fe5b906000526020600020018190555083826006018781548110151561232357fe5b906000526020600020018190555083826004016000878152602001908152602001600020819055506000612356886121f2565b9050600460008781526020019081526020016000206000828152602001908152602001600020859080600181540180825580915050906001820390600052602060002001600090919290919091505550600193505050506123b8565b60009150505b949350505050565b60006123cb83611530565b1580156123db5750600060010283115b156123e557600080fd5b82334384604051602001808581526020018473ffffffffffffffffffffffffffffffffffffffff1673ffffffffffffffffffffffffffffffffffffffff166c010000000000000000000000000281526014018381526020018281526020019450505050506040516020818303038152906040528051906020012090506124696125ff565b83816020018181525050600181600001901515908115158152505060006001028411156124a45761249a8483612587565b8160400181815250505b806005600084815260200190815260200160002060008201518160000160006101000a81548160ff0219169083151502179055506020820151816001015560408201518160020155606082015181600501908051906020019061250892919061263b565b50608082015181600601908051906020019061252592919061263b565b5060a082015181600701908051906020019061254292919061263b565b509050507f750ce99a59a7cddb870828676c526c0ffcbe02a104adbeeda2e7f71c30ab01ab826040518082815260200191505060405180910390a18191505092915050565b6000600160056000858152602001908152602001600020600701839080600181540180825580915050906001820390600052602060002001600090919290919091505503905092915050565b8154818355818111156125fa578183600052602060002091820191016125f99190612688565b5b505050565b60c06040519081016040528060001515815260200160008019168152602001600081526020016060815260200160608152602001606081525090565b828054828255906000526020600020908101928215612677579160200282015b8281111561267657825182559160200191906001019061265b565b5b5090506126849190612688565b5090565b6126aa91905b808211156126a657600081600090555060010161268e565b5090565b9056fea165627a7a72305820048140a5f4da6ce1a262465a19ca0c00c59ec30585526e9a959870c321226d790029a165627a7a72305820334fbf0a061795e4bfcbdcf494e0ad724e68177fc692fbae69d853d4bb8598e90029",
  "source": "/* This Source Code Form is subject to the terms of the Mozilla Public\n * License, v. 2.0. If a copy of the MPL was not distributed with this\n * file, You can obtain one at http://mozilla.org/MPL/2.0/.\n *\n * This code has not been reviewed.\n * Do not use or deploy this code before reviewing it personally first.\n */\n\n/*\n  so how we tackle access rights? \n  upon creation root is pupulated with common folders, \n  Initial folder structure is mapped \n     root      = newFolder(0); // the root of all, onlyOwner c7f5bbf5fe95923f0691c94f666ac3dfed12456cd33bd018e7620c3d93edd5a6\n     shared    = addFolder(root, 0x23e642b7242469a5e3184a6566020c815689149967703a98c0affc14b9ca9b28); // only those that was shared with\n     dataReceipt  = addFolder(root, 0x1d261cf1849d7042d71f91ae5de9f8e1102f872f83bef6add64509a927939609); // only owner r/w or those shared with\n     incoming  = addFolder(root, 0xe723d028f3a255c87f4d0ff2d83c484a5a279f9791d3fbd87348df86ad478196); // unknown can add, but not read\n     common    = addFolder(root, 0xf7c93b517d753615c49ea5b8b1ea3d75e9d75be99691bcf066226dc260a704be); // everyone r, owner w             \n     temporary = addFolder(root, 0xc96eea3628fe2bbedfaf37cbf7a7c196aa346555e7b0dd60cea44a5319b17945); // everyone r/w   \n*/\n/*\n      privateNodeId      = addFolder(rootNodeId, 0x69ebce02fbffacce50622356b97cc93a78f17feb5bf8e8ccacbdb7032e3162dc); // none can r/w\n      publicNodeId       = addFolder(rootNodeId, 0x7e00625d1d39ffe13a119d9085848880ad5ccd078e38677f3a705653326d44ed); \n      unrestrainedNodeId = addFolder(rootNodeId, 0xd0e98c61c165756dc6a3294835afbb596b332b2a27061c997163e623939c6cc0); \n      \n      setNodeAccess(publicNodeId, address(0x0), 1); // everyone can read, but not write\n      setNodeAccess(sharedNodeId, address(0x0), 3); // unknown can add, but not read \n      setNodeAccess(unrestrainedNodeId, address(0x0), 2); // all can read all can write\n*/\n\n pragma solidity ^0.5.0;\n contract Owned {\n    address payable owner;\n    modifier onlyOwner() {\n        require(msg.sender == owner);\n        _;\n    }\n    /// @notice The Constructor assigns the message sender to be `owner`\n    constructor () public { owner = msg.sender; }\n    function changeOwner(address payable _newOwner) public onlyOwner { owner = _newOwner; }\n}\n\ncontract KeyValueTree is Owned {\n    mapping(bytes32 => bytes32) internal folderNodes; // map of folder to NodeId\n\n    event NodeCreated(bytes32 nodeId);\n\n    mapping(bytes32 => uint256) folderIndex; // map of folder to index\n    bytes32[] folders; // all folder roots\n\n    mapping(bytes32 => mapping(bytes32 => bytes32[])) internal keyFolderValues; // feeds by sender by folder\n    \n    // folder time to live (disapearing feeds / messages)\n    mapping(bytes32 => Node) internal Nodes; // NodeId to node\n    mapping(bytes32 => bytes32) internal nodeIdToFolder; // nodeIds to protocol \n\n    // AccessRights\n    // contains 0x0 = 1, everyone can read/write\n    // contains 0x0 = 1, everyone can read/write\n    // contains 0x0 = 0, none onlyOwner\n    // contains address = 0, address is forbiden to \n    // contains address = 1, address can read\n    // contains address = 2, address can read/write\n    // contains address = 3, address can write but can not read\n    // contains address = 4, address can overwrite existing address feed \n    struct Node {\n        bool      isNode;\n        bytes32   parent;\n        uint      index;\n        // consider putting protocol info in a node \n        mapping(address => int) canAccess;\n        \n        mapping(bytes32 => bytes32) valuesMap;\n        bytes32[] keys;\n        bytes32[] values;\n\n        // child nodes\n        bytes32[] children;  \n    }\n    \n    function isNode(bytes32 nodeId) public view returns(bool)  {\n        return Nodes[nodeId].isNode;\n    }\n    function getNodeChildrenCount(bytes32 nodeId) public view returns(uint childCount) {\n        return Nodes[nodeId].children.length;\n    }\n    function getNodeChildAt(bytes32 nodeId, uint index) public view returns(bytes32 childId) {\n        return Nodes[nodeId].children[index];\n    }\n    function getNodeChildren(bytes32 nodeId) public view returns(bytes32[] memory childrenId) {\n        return Nodes[nodeId].children;\n    }\n    function removeChildAt(bytes32 nodeId, uint index) public returns (bool) {\n         // removes children node from nodeId, not best way as it does reordering \n         if(!canWrite(nodeId, msg.sender)) return false;  // can write to node that is supposed to be deleted?\n\n         Node storage node = Nodes[nodeId];\n         \n         if(!canWrite(node.children[index], msg.sender)) return false; // can write to node that is supposed to be deleted?\n         \n         uint last = node.children.length-1; // last child in the list\n         uint idx = Nodes[node.children[last]].index;\n         \n         node.children[index] = node.children[last];\n         delete node.children[last];\n         node.children.length--;\n         \n         Nodes[node.children[last]].index = idx; // swap index\n         return true;\n    }    \n    function addNode(bytes32 nodeId, bytes32 folder) internal returns(bytes32 newId) {\n        if(!isNode(nodeId) && nodeId > 0) revert(); // zero is a new root node\n        newId = keccak256(abi.encodePacked(nodeId, msg.sender, block.number, folder));\n\n        Node memory node;\n        node.parent = nodeId;\n        node.isNode = true;\n        \n        if(nodeId>0) {\n            node.index = addChildNode(nodeId,newId);\n        }\n        \n        Nodes[newId] = node;\n\n        emit NodeCreated(newId);\n        return newId;\n    }\n    function addChildNode(bytes32 nodeId, bytes32 childId) private returns(uint index) {\n        return Nodes[nodeId].children.push(childId) - 1;\n    }\n    \n    uint version;\n    // should these be public, or private? and accessed through methods that also check accessRights ? \n    bytes32 public rootNodeId; // root of tree\n    bytes32 public sharedNodeId; // incoming node id\n    \n    event Constructor1(address addr);\n\n    function getRoot() public view returns (bytes32) { return rootNodeId; }\n    function getShared() public view returns (bytes32) { return sharedNodeId; }\n    \n    // constructor\n    constructor(address payable _owner) public {\n      version = 1;\n      owner = _owner;     \n      emit Constructor1(_owner);\n      rootNodeId         = addNode(0, 0xc7f5bbf5fe95923f0691c94f666ac3dfed12456cd33bd018e7620c3d93edd5a6); // the root of all, onlyOwner r/w  c7f5bbf5fe95923f0691c94f666ac3dfed12456cd33bd018e7620c3d93edd5a6\n      sharedNodeId       = addFolder(rootNodeId, 0x23e642b7242469a5e3184a6566020c815689149967703a98c0affc14b9ca9b28);\n\n      // setNodeAccess(sharedNodeId, address(0x0), 3); // unknown can add, but not read \n    }\n    \n    function getVersion() public view returns (uint) {\n         return version;\n     }\n    \n    function setNodeAccess(bytes32 nodeId, address addr, int rights) /*onlyOwner*/ public returns (int) {\n        if(msg.sender!=owner) return -1;\n        if(addr==owner) return 2; // owner always has r/w access\n        \n        if(isNode(nodeId)) {\n           Nodes[nodeId].canAccess[addr] = rights;\n           return rights;\n        }\n        return 0;\n    }\n    function canRead(bytes32 nodeId, address addr) public view returns (bool) {\n         if(!isNode(nodeId)) return false;\n         if(addr==msg.sender) return true;\n         \n         Node storage n = Nodes[nodeId];\n         if(n.canAccess[addr] == -1)  return false;  //address is blacklisted \n         if(n.canAccess[address(0x0)] == 3) return false; //none can read\n         if(n.canAccess[address(0x0)] > 0)  return true;  //everyone can access\n         return n.canAccess[addr]>0;\n     }\n    function canWrite(bytes32 nodeId, address addr) public view returns (bool) {\n         if(!isNode(nodeId)) return false;\n         if(addr==msg.sender) return true;\n         \n         Node storage n = Nodes[nodeId];\n         if(n.canAccess[addr] == -1)  return false;  //address is blacklisted \n         if(n.canAccess[address(0x0)] > 1) return true; //everyone can write\n         return n.canAccess[addr]>1;\n     }\n    function canOverwrite(bytes32 nodeId, address addr) public view returns (bool) {\n         if(!isNode(nodeId)) return false;\n         if(addr==msg.sender) return true;\n         Node storage n = Nodes[nodeId];\n         \n         if(n.canAccess[addr] == -1)  return false;  //address is blacklisted \n         if(n.canAccess[address(0x0)] > 3) return true; //everyone can overwrite\n         return n.canAccess[addr] > 3; // yes you can overwrite\n     }\n    ///////////////////////////////////////////////////////////////////////////////////////////       \n    function deleteNode(bytes32 nodeId) public returns (bool) {\n        if(!canWrite(nodeId, msg.sender)) return false;\n        \n        bytes32 folder = nodeIdToFolder[nodeId];\n        if(folder==0x0) return false; // no mapping to folder\n\n        Node storage node = Nodes[nodeId];\n        if(removeChildAt(node.parent, node.index)) \n        {\n            uint256 index = folderIndex[folder]; \n            folderNodes[folder] = 0x0;\n            folderIndex[folder] = 0x0;\n    \n            folders[index] = folders[folders.length-1];\n            delete folders[folders.length-1];\n            folders.length--;\n            return true;\n        }\n        return false;\n    }     \n     \n    // problem is that subFolder is added to folderNodes mapping\n    // this means subFolder can be only one and must be unique \n    // which in turn means that we can't have same subFolder in different parent protocols\n    // add subProtocol to parentProtocol (protocolNodeId)\n    // so if if parent is bin, then add subFolder as \"/bin/subFolderName\" \n    // returns nodeId of new subFolder or 0x0 if error \n    function addFolder(bytes32 parentNodeId, bytes32 subFolder) public returns (bytes32) {\n        bytes32 parentId = parentNodeId;\n        if(!isNode(parentId)) // parentNode is not a node, then write to root\n           parentId = rootNodeId;\n        \n        if(!canRead(parentId, msg.sender)) // no read permission for parent\n           parentId = sharedNodeId;\n\n        bytes32 subNode = folderNodes[subFolder]; // \"/bin\" -> hash\n        if(subNode != 0) // if subProtocol exists as protocol, then fail\n        {\n            if(!canRead(subNode, msg.sender)) // no read permission \n               return 0x0;\n               \n            return subNode;\n        }\n        \n        if(!canWrite(parentId, msg.sender)) // no write permission\n           return 0x0;\n        \n        bytes32 newNodeId = addNode(parentId, subFolder); // add child to parent\n\n        folderNodes[subFolder] = newNodeId; \n        folderIndex[subFolder] = folders.push(subFolder)-1;\n        \n        nodeIdToFolder[newNodeId] = subFolder; // we need mapping to folder from nodeId\n        \n        if(msg.sender!=owner)\n          setNodeAccess(newNodeId, msg.sender, 2); // give r/w access to creator of node\n           \n        return newNodeId; \n    }\n    \n    ///////////////////////////////////////////////////////////////////////////////////////////      \n    // setKeyValue, will suceed only when no such key with value exist\n    function setKeyValue(bytes32 folder, bytes32 key, bytes32 value) public returns (bool) {\n         bytes32 targetNode = folderNodes[folder];\n         \n         if(targetNode==0) {// folder does not exist in mapping to all folder\n            bytes32 makeSubFolderIn = sharedNodeId; // everything goes to incoming\n            if(msg.sender == owner) // owner can create in root \n               makeSubFolderIn = rootNodeId;\n              \n            targetNode = addFolder(makeSubFolderIn, folder);\n         }\n         \n         if(!canWrite(targetNode, msg.sender)) // no read permission for parent\n           return false;\n         \n         Node storage node = Nodes[targetNode];\n         if(node.valuesMap[key] == 0x0) // no such value yet\n         {\n            node.keys.push(key);\n            node.values.push(value); \n            node.valuesMap[key] = value;\n            keyFolderValues[key][folder].push(value);\n            return true; \n         } \n         \n         keyFolderValues[key][folder].push(value);\n         return false;\n     }\n    ///////////////////////////////////////////////////////////////////////////////////////////       \n    \n    ///////////////////////////////////////////////////////////////////////////////////////////\n    // getKeys \n    function getKeys(bytes32 nodeId) view public returns (bytes32[] memory) {\n         bytes32[] memory ret;\n         if(!canRead(nodeId, msg.sender)) return ret;\n\n         return Nodes[nodeId].keys;\n     }\n    // get num keys\n    function getKeysCount(bytes32 nodeId) view public returns (uint) {\n         if(!canRead(nodeId, msg.sender)) return 0;\n             \n         return Nodes[nodeId].keys.length;\n     }\n    // get key at\n    function getKeyAt(bytes32 nodeId, uint index) view public returns (bytes32) {\n         if(!canRead(nodeId, msg.sender)) return 0x0;\n             \n         return Nodes[nodeId].keys[index];\n     }\n     \n    /////////////////////////////////////////////////////////////////////////////////////////// \n    // getValues \n    function getValue(bytes32 nodeId, bytes32 key) public view returns (bytes32) {\n         if(!canRead(nodeId, msg.sender)) return 0x0;\n             \n         return Nodes[nodeId].valuesMap[key];\n    }\n    // get num values\n    function getValuesCount(bytes32 nodeId) view public returns (uint) {\n         if(!canRead(nodeId, msg.sender)) return 0;\n             \n         return Nodes[nodeId].values.length;\n     }\n    // get value at  \n    function getValueAt(bytes32 nodeId, uint index) view public returns (bytes32) {\n         if(!canRead(nodeId, msg.sender)) return 0x0;\n             \n         return Nodes[nodeId].values[index];\n     }\n    \n    ///////////////////////////////////////////////////////////////////////////////////////////\n    // overwrite in folder with new sender and new feed\n    function overwriteKey(bytes32 nodeId, uint index, bytes32 key, bytes32 newValue) public returns (bool) {\n        if(!canOverwrite(nodeId, msg.sender)) return false;\n        \n        Node storage node = Nodes[nodeId];\n        if(index<node.values.length) // no such feed yet\n        {\n            bytes32 prevKey = node.keys[index]; // where is previous\n            node.valuesMap[prevKey] = 0x0; // set it to null \n            \n            node.keys[index] = key;\n            node.values[index] = newValue; \n            node.valuesMap[key] = newValue; //\n            bytes32 folder = getFolder(nodeId);\n            keyFolderValues[key][folder].push(newValue);\n            return true;\n        }        \n        return false;\n     }\n    // remove key\n    function removeKeyAt(bytes32 nodeId, uint256 index) public returns (bool) {\n         if(!canWrite(nodeId, msg.sender)) return false; \n         \n         Node storage node = Nodes[nodeId];\n         \n         bytes32 atKey = node.keys[index];\n         require(atKey!=0x0); // node has no sender at index \n         \n         node.valuesMap[atKey] = 0x0; // clear sender         \n         \n         node.keys[index] = node.keys[node.keys.length-1];\n         delete node.keys[node.keys.length-1];\n         node.keys.length--;\n         \n         node.values[index] = node.values[node.values.length-1];\n         delete node.values[node.values.length-1];\n         node.values.length--;\n         return true;\n    }\n    \n    ///////////////////////////////////////////////////////////////////////////////////////////      \n    function getNodeId(bytes32 folder) view public returns (bytes32) { // will get protocol node address\n         bytes32 nodeId = folderNodes[folder];\n         if(nodeId==0) // does not exist\n         {\n            if(!canRead(rootNodeId, msg.sender)) \n               return 0x0;        \n            else     \n               return rootNodeId;\n         }        \n\n         return folderNodes[folder];\n    }\n    ///////////////////////////////////////////////////////////////////////////////////////////      \n    function getFolderIndex(bytes32 folder) view public returns (uint256) { // will get protocol node address\n         return folderIndex[folder];\n     }\n    // get folder by nodeId\n    function getFolder(bytes32 nodeId) view public returns (bytes32) {\n         \n         if(nodeIdToFolder[nodeId]==0) // does not exist\n         {\n            if(!canRead(rootNodeId, msg.sender)) \n                return 0x0;        \n            else     \n                return rootNodeId;\n         }        \n         \n         if(!canRead(nodeId, msg.sender)) return 0x0;           \n         return nodeIdToFolder[nodeId];\n     }\n\n    // ONLY OWNERS CAN ACCESS COMPLETE INFORMATION\n    ///////////////////////////////////////////////////////////////////////////////////////////      \n    // get all values ever, chronologically, never gets deleted, only added\n    function getFolderValuesForAKey(bytes32 folder, bytes32 key) onlyOwner view public returns (bytes32[] memory) {\n       return keyFolderValues[key][folder];\n    }\n     \n    ///////////////////////////////////////////////////////////////////////////////////////////      \n    function getAllFolders() onlyOwner view public returns (bytes32[] memory) { // get all folder\n     return folders;\n    }     \n    function getAllFoldersCount() onlyOwner view public returns (uint256) { // get num of folder\n     return folders.length;\n    }\n    function getFolderAt(uint256 idx) onlyOwner view public returns (bytes32) { // get folder by idx\n     return folders[idx];\n    }\n    ///////////////////////////////////////////////////////////////////////////////////////////\n}\n\ncontract MultiBox is Owned\n{\n    uint version;\n    bool public initialized=false;\n    // addresses of roots     \n    address[] roots; \n\n    event Constructed();\n    event Initialized();\n    \n    constructor() public {\n        version = 1;\n        initialized=false;\n        emit Constructed();\n    }\n    \n    function init() public returns (address) {\n        if(!initialized)\n            createRoot(owner);\n            \n        initialized=true;\n        emit Initialized();\n    }\n    \n    // any one can create new root, but ownership will belong to owner of multibox, \n    // while r/w of shared node can be set to whoHasReadWriteRights\n    function createRoot(address whoHasReadWriteRights) public returns (address) {\n        KeyValueTree mb = new KeyValueTree(owner);\n        if(!initialized)\n          mb.setNodeAccess(mb.getShared(), whoHasReadWriteRights, 3); // first root shared node can anyone write to, but can't read from\n        else \n          mb.setNodeAccess(mb.getShared(), whoHasReadWriteRights, 2); // whoHasReadWriteRights r/w \n          \n        return addBox(address(mb));\n    }\n    function getRoots() public view returns (address[] memory) {\n        return roots;\n    }\n    function getRootsCount() public view returns (uint256) {\n        return roots.length;\n    }\n    function getRootAt(uint256 index) public view returns (address) {\n        return roots[index];\n    }\n    // others can add KeyValueTrees (but need to set access rights by themselfs)\n    function addBox(address keyValueTreeRoot) public returns (address) {\n        roots.push(keyValueTreeRoot);\n        return keyValueTreeRoot;\n    }\n\t// owner can remove from root\n    function removeBox(uint256 index) onlyOwner public returns (uint256) {\n        if(index==0) return 0; // fail cant NEVER remove root\n        \n        roots[index] = roots[roots.length-1];\n        delete roots[roots.length-1];\n        roots.length--;\n        return roots.length--;\n    }\n    \n    // fallback function to accept ETH into contract.\n    function () external payable {\n    }\n    // allow owner to remove funds  \n    function removeFunds() public {\n        owner.transfer(address(this).balance);\n    }\n}\n",
  "sourcePath": "/Users/significance/Code/df/multibox2/contracts/Multibox.sol",
  "compiler": {
    "name": "solc",
    "version": "0.5.0+commit.1d4f565a.Emscripten.clang"
  },
  "schemaVersion": "3.0.0",
  "updatedAt": "2019-05-08T16:17:38.576Z",
  "devdoc": {
    "methods": {}
  },
  "userdoc": {
    "methods": {}
  }
}