{
  "contractName": "Multibox",
  "abi": [
    {
      "constant": true,
      "inputs": [],
      "name": "initialized",
      "outputs": [
        {
          "name": "",
          "type": "bool"
        }
      ],
      "payable": false,
      "stateMutability": "view",
      "type": "function"
    },
    {
      "constant": true,
      "inputs": [],
      "name": "owner",
      "outputs": [
        {
          "name": "",
          "type": "address"
        }
      ],
      "payable": false,
      "stateMutability": "view",
      "type": "function"
    },
    {
      "constant": false,
      "inputs": [
        {
          "name": "_newOwner",
          "type": "address"
        }
      ],
      "name": "changeOwner",
      "outputs": [],
      "payable": false,
      "stateMutability": "nonpayable",
      "type": "function"
    },
    {
      "inputs": [],
      "payable": false,
      "stateMutability": "nonpayable",
      "type": "constructor"
    },
    {
      "payable": true,
      "stateMutability": "payable",
      "type": "fallback"
    },
    {
      "anonymous": false,
      "inputs": [],
      "name": "Initialized",
      "type": "event"
    },
    {
      "anonymous": false,
      "inputs": [
        {
          "indexed": false,
          "name": "",
          "type": "address"
        }
      ],
      "name": "RootCreated",
      "type": "event"
    },
    {
      "anonymous": false,
      "inputs": [
        {
          "indexed": false,
          "name": "",
          "type": "address"
        }
      ],
      "name": "RootAdded",
      "type": "event"
    },
    {
      "anonymous": false,
      "inputs": [
        {
          "indexed": false,
          "name": "sender",
          "type": "address"
        },
        {
          "indexed": false,
          "name": "owner",
          "type": "address"
        }
      ],
      "name": "RootFailedNoOwner",
      "type": "event"
    },
    {
      "anonymous": false,
      "inputs": [
        {
          "indexed": false,
          "name": "",
          "type": "uint256"
        }
      ],
      "name": "RootRemoved",
      "type": "event"
    },
    {
      "anonymous": false,
      "inputs": [
        {
          "indexed": false,
          "name": "",
          "type": "uint256"
        }
      ],
      "name": "RootRevoked",
      "type": "event"
    },
    {
      "anonymous": false,
      "inputs": [
        {
          "indexed": false,
          "name": "",
          "type": "uint256"
        }
      ],
      "name": "FundsRemoved",
      "type": "event"
    },
    {
      "anonymous": false,
      "inputs": [
        {
          "indexed": false,
          "name": "",
          "type": "address"
        },
        {
          "indexed": false,
          "name": "",
          "type": "address"
        },
        {
          "indexed": false,
          "name": "",
          "type": "address"
        },
        {
          "indexed": false,
          "name": "",
          "type": "bytes32"
        }
      ],
      "name": "AccessRequested",
      "type": "event"
    },
    {
      "anonymous": false,
      "inputs": [
        {
          "indexed": false,
          "name": "",
          "type": "address"
        },
        {
          "indexed": false,
          "name": "",
          "type": "address"
        },
        {
          "indexed": false,
          "name": "",
          "type": "address"
        },
        {
          "indexed": false,
          "name": "nodeId",
          "type": "bytes32"
        },
        {
          "indexed": false,
          "name": "canOwnerWrite",
          "type": "bool"
        }
      ],
      "name": "AccessRequestFail",
      "type": "event"
    },
    {
      "anonymous": false,
      "inputs": [
        {
          "indexed": false,
          "name": "kvtOwner",
          "type": "address"
        },
        {
          "indexed": false,
          "name": "multiboxOwner",
          "type": "address"
        }
      ],
      "name": "AccessRequestFailNotOwner",
      "type": "event"
    },
    {
      "anonymous": false,
      "inputs": [
        {
          "indexed": false,
          "name": "",
          "type": "address"
        },
        {
          "indexed": false,
          "name": "to",
          "type": "address"
        }
      ],
      "name": "AccessGiven",
      "type": "event"
    },
    {
      "constant": false,
      "inputs": [],
      "name": "init",
      "outputs": [
        {
          "name": "",
          "type": "address"
        }
      ],
      "payable": false,
      "stateMutability": "nonpayable",
      "type": "function"
    },
    {
      "constant": false,
      "inputs": [
        {
          "name": "whoHasReadWriteRights",
          "type": "address"
        }
      ],
      "name": "createRoot",
      "outputs": [
        {
          "name": "",
          "type": "address"
        }
      ],
      "payable": false,
      "stateMutability": "nonpayable",
      "type": "function"
    },
    {
      "constant": true,
      "inputs": [],
      "name": "getRoots",
      "outputs": [
        {
          "name": "",
          "type": "address[]"
        }
      ],
      "payable": false,
      "stateMutability": "view",
      "type": "function"
    },
    {
      "constant": true,
      "inputs": [],
      "name": "getRootsCount",
      "outputs": [
        {
          "name": "",
          "type": "uint256"
        }
      ],
      "payable": false,
      "stateMutability": "view",
      "type": "function"
    },
    {
      "constant": true,
      "inputs": [
        {
          "name": "index",
          "type": "uint256"
        }
      ],
      "name": "getRootAt",
      "outputs": [
        {
          "name": "",
          "type": "address"
        }
      ],
      "payable": false,
      "stateMutability": "view",
      "type": "function"
    },
    {
      "constant": false,
      "inputs": [
        {
          "name": "kvt",
          "type": "address"
        }
      ],
      "name": "addRoot",
      "outputs": [
        {
          "name": "",
          "type": "address"
        }
      ],
      "payable": false,
      "stateMutability": "nonpayable",
      "type": "function"
    },
    {
      "constant": false,
      "inputs": [
        {
          "name": "index",
          "type": "uint256"
        }
      ],
      "name": "removeRoot",
      "outputs": [
        {
          "name": "",
          "type": "uint256"
        }
      ],
      "payable": false,
      "stateMutability": "nonpayable",
      "type": "function"
    },
    {
      "constant": false,
      "inputs": [
        {
          "name": "index",
          "type": "uint256"
        }
      ],
      "name": "revokeRoot",
      "outputs": [
        {
          "name": "",
          "type": "uint256"
        }
      ],
      "payable": false,
      "stateMutability": "nonpayable",
      "type": "function"
    },
    {
      "constant": false,
      "inputs": [],
      "name": "removeFunds",
      "outputs": [],
      "payable": false,
      "stateMutability": "nonpayable",
      "type": "function"
    },
    {
      "constant": false,
      "inputs": [
        {
          "name": "kvt",
          "type": "address"
        },
        {
          "name": "nodeId",
          "type": "bytes32"
        }
      ],
      "name": "requestAccess",
      "outputs": [
        {
          "name": "",
          "type": "address"
        }
      ],
      "payable": false,
      "stateMutability": "nonpayable",
      "type": "function"
    },
    {
      "constant": false,
      "inputs": [
        {
          "name": "dr",
          "type": "address"
        }
      ],
      "name": "allowAccess",
      "outputs": [],
      "payable": false,
      "stateMutability": "nonpayable",
      "type": "function"
    },
    {
      "constant": true,
      "inputs": [
        {
          "name": "dr",
          "type": "address"
        }
      ],
      "name": "amountAvailable",
      "outputs": [
        {
          "name": "balance",
          "type": "uint256"
        }
      ],
      "payable": false,
      "stateMutability": "view",
      "type": "function"
    }
  ],
  "bytecode": "0x60806040526000600260006101000a81548160ff02191690831515021790555034801561002b57600080fd5b50336000806101000a81548173ffffffffffffffffffffffffffffffffffffffff021916908373ffffffffffffffffffffffffffffffffffffffff160217905550600180819055506000600260006101000a81548160ff0219169083151502179055506165098061009d6000396000f3fe608060405260043610620000eb576000357c0100000000000000000000000000000000000000000000000000000000900463ffffffff168063158ef93e14620000ed57806322fb78a9146200011f5780633466fda514620001b457806335a5e06d146200020757806338af30b014620002785780638da5cb5b14620002cb5780639423fc6e14620003255780639c60b07e1462000353578063a57ae0dc14620003bc578063a6f9dae1146200045b578063c4a85bc114620004b0578063c7fb2dc71462000505578063da8bb7c71462000584578063e1c7392a1462000619578063feac51f51462000673575b005b348015620000fa57600080fd5b50620001056200068d565b604051808215151515815260200191505060405180910390f35b3480156200012c57600080fd5b5062000172600480360360208110156200014557600080fd5b81019080803573ffffffffffffffffffffffffffffffffffffffff169060200190929190505050620006a0565b604051808273ffffffffffffffffffffffffffffffffffffffff1673ffffffffffffffffffffffffffffffffffffffff16815260200191505060405180910390f35b348015620001c157600080fd5b50620001f160048036036020811015620001da57600080fd5b810190808035906020019092919050505062000acd565b6040518082815260200191505060405180910390f35b3480156200021457600080fd5b506200021f62000d3f565b6040518080602001828103825283818151815260200191508051906020019060200280838360005b838110156200026457808201518184015260208101905062000247565b505050509050019250505060405180910390f35b3480156200028557600080fd5b50620002b5600480360360208110156200029e57600080fd5b810190808035906020019092919050505062000dcf565b6040518082815260200191505060405180910390f35b348015620002d857600080fd5b50620002e362000f7e565b604051808273ffffffffffffffffffffffffffffffffffffffff1673ffffffffffffffffffffffffffffffffffffffff16815260200191505060405180910390f35b3480156200033257600080fd5b506200033d62000fa3565b6040518082815260200191505060405180910390f35b3480156200036057600080fd5b50620003a6600480360360208110156200037957600080fd5b81019080803573ffffffffffffffffffffffffffffffffffffffff16906020019092919050505062000fb0565b6040518082815260200191505060405180910390f35b348015620003c957600080fd5b506200041960048036036040811015620003e257600080fd5b81019080803573ffffffffffffffffffffffffffffffffffffffff1690602001909291908035906020019092919050505062000fd1565b604051808273ffffffffffffffffffffffffffffffffffffffff1673ffffffffffffffffffffffffffffffffffffffff16815260200191505060405180910390f35b3480156200046857600080fd5b50620004ae600480360360208110156200048157600080fd5b81019080803573ffffffffffffffffffffffffffffffffffffffff16906020019092919050505062001775565b005b348015620004bd57600080fd5b506200050360048036036020811015620004d657600080fd5b81019080803573ffffffffffffffffffffffffffffffffffffffff16906020019092919050505062001814565b005b3480156200051257600080fd5b5062000542600480360360208110156200052b57600080fd5b810190808035906020019092919050505062001cdf565b604051808273ffffffffffffffffffffffffffffffffffffffff1673ffffffffffffffffffffffffffffffffffffffff16815260200191505060405180910390f35b3480156200059157600080fd5b50620005d760048036036020811015620005aa57600080fd5b81019080803573ffffffffffffffffffffffffffffffffffffffff16906020019092919050505062001d23565b604051808273ffffffffffffffffffffffffffffffffffffffff1673ffffffffffffffffffffffffffffffffffffffff16815260200191505060405180910390f35b3480156200062657600080fd5b50620006316200200c565b604051808273ffffffffffffffffffffffffffffffffffffffff1673ffffffffffffffffffffffffffffffffffffffff16815260200191505060405180910390f35b3480156200068057600080fd5b506200068b620020bb565b005b600260009054906101000a900460ff1681565b6000806000809054906101000a900473ffffffffffffffffffffffffffffffffffffffff16620006cf620021e7565b808273ffffffffffffffffffffffffffffffffffffffff1673ffffffffffffffffffffffffffffffffffffffff168152602001915050604051809103906000f08015801562000722573d6000803e3d6000fd5b509050600260009054906101000a900460ff161515620008cc578073ffffffffffffffffffffffffffffffffffffffff166390d1040e8273ffffffffffffffffffffffffffffffffffffffff1663271bf53f6040518163ffffffff167c010000000000000000000000000000000000000000000000000000000002815260040160206040518083038186803b158015620007bb57600080fd5b505afa158015620007d0573d6000803e3d6000fd5b505050506040513d6020811015620007e757600080fd5b81019080805190602001909291905050508560036040518463ffffffff167c0100000000000000000000000000000000000000000000000000000000028152600401808481526020018373ffffffffffffffffffffffffffffffffffffffff1673ffffffffffffffffffffffffffffffffffffffff1681526020018281526020019350505050602060405180830381600087803b1580156200088857600080fd5b505af11580156200089d573d6000803e3d6000fd5b505050506040513d6020811015620008b457600080fd5b81019080805190602001909291905050505062000a57565b8073ffffffffffffffffffffffffffffffffffffffff166390d1040e8273ffffffffffffffffffffffffffffffffffffffff1663271bf53f6040518163ffffffff167c010000000000000000000000000000000000000000000000000000000002815260040160206040518083038186803b1580156200094b57600080fd5b505afa15801562000960573d6000803e3d6000fd5b505050506040513d60208110156200097757600080fd5b81019080805190602001909291905050508560026040518463ffffffff167c0100000000000000000000000000000000000000000000000000000000028152600401808481526020018373ffffffffffffffffffffffffffffffffffffffff1673ffffffffffffffffffffffffffffffffffffffff1681526020018281526020019350505050602060405180830381600087803b15801562000a1857600080fd5b505af115801562000a2d573d6000803e3d6000fd5b505050506040513d602081101562000a4457600080fd5b8101908080519060200190929190505050505b7f41ef3b66cd7b5d0d60ed0b2fdb285f3c12fa1697083ae6f38f94c820cc2e1b5e81604051808273ffffffffffffffffffffffffffffffffffffffff1673ffffffffffffffffffffffffffffffffffffffff16815260200191505060405180910390a162000ac58162001d23565b915050919050565b60008060038381548110151562000ae057fe5b9060005260206000200160009054906101000a900473ffffffffffffffffffffffffffffffffffffffff169050600083141562000b2257600091505062000d3a565b3373ffffffffffffffffffffffffffffffffffffffff168173ffffffffffffffffffffffffffffffffffffffff16638da5cb5b6040518163ffffffff167c010000000000000000000000000000000000000000000000000000000002815260040160206040518083038186803b15801562000b9c57600080fd5b505afa15801562000bb1573d6000803e3d6000fd5b505050506040513d602081101562000bc857600080fd5b810190808051906020019092919050505073ffffffffffffffffffffffffffffffffffffffff16141562000c0157600091505062000d3a565b600360016003805490500381548110151562000c1957fe5b9060005260206000200160009054906101000a900473ffffffffffffffffffffffffffffffffffffffff1660038481548110151562000c5457fe5b9060005260206000200160006101000a81548173ffffffffffffffffffffffffffffffffffffffff021916908373ffffffffffffffffffffffffffffffffffffffff160217905550600360016003805490500381548110151562000cb457fe5b9060005260206000200160006101000a81549073ffffffffffffffffffffffffffffffffffffffff0219169055600380548091906001900362000cf89190620021f8565b507f138a49510cc95ef5339ceaa69d3f8fb1dc9745105fca59b1f11a32f4e77f3fe8836040518082815260200191505060405180910390a16003805490509150505b919050565b6060600380548060200260200160405190810160405280929190818152602001828054801562000dc557602002820191906000526020600020905b8160009054906101000a900473ffffffffffffffffffffffffffffffffffffffff1673ffffffffffffffffffffffffffffffffffffffff168152602001906001019080831162000d7a575b5050505050905090565b60008060009054906101000a900473ffffffffffffffffffffffffffffffffffffffff1673ffffffffffffffffffffffffffffffffffffffff163373ffffffffffffffffffffffffffffffffffffffff1614151562000e2d57600080fd5b600082141562000e41576000905062000f79565b600360016003805490500381548110151562000e5957fe5b9060005260206000200160009054906101000a900473ffffffffffffffffffffffffffffffffffffffff1660038381548110151562000e9457fe5b9060005260206000200160006101000a81548173ffffffffffffffffffffffffffffffffffffffff021916908373ffffffffffffffffffffffffffffffffffffffff160217905550600360016003805490500381548110151562000ef457fe5b9060005260206000200160006101000a81549073ffffffffffffffffffffffffffffffffffffffff0219169055600380548091906001900362000f389190620021f8565b507f405489853c45b03e4598e22168171787ed885bb2adc17e43efa1f5b9b3dae06e826040518082815260200191505060405180910390a160038054905090505b919050565b6000809054906101000a900473ffffffffffffffffffffffffffffffffffffffff1681565b6000600380549050905090565b60008173ffffffffffffffffffffffffffffffffffffffff16319050919050565b60008060008473ffffffffffffffffffffffffffffffffffffffff16638f1ac175856000809054906101000a900473ffffffffffffffffffffffffffffffffffffffff166040518363ffffffff167c0100000000000000000000000000000000000000000000000000000000028152600401808381526020018273ffffffffffffffffffffffffffffffffffffffff1673ffffffffffffffffffffffffffffffffffffffff1681526020019250505060206040518083038186803b1580156200109957600080fd5b505afa158015620010ae573d6000803e3d6000fd5b505050506040513d6020811015620010c557600080fd5b810190808051906020019092919050505090503073ffffffffffffffffffffffffffffffffffffffff16638da5cb5b6040518163ffffffff167c010000000000000000000000000000000000000000000000000000000002815260040160206040518083038186803b1580156200113b57600080fd5b505afa15801562001150573d6000803e3d6000fd5b505050506040513d60208110156200116757600080fd5b810190808051906020019092919050505073ffffffffffffffffffffffffffffffffffffffff168573ffffffffffffffffffffffffffffffffffffffff16638da5cb5b6040518163ffffffff167c010000000000000000000000000000000000000000000000000000000002815260040160206040518083038186803b158015620011f157600080fd5b505afa15801562001206573d6000803e3d6000fd5b505050506040513d60208110156200121d57600080fd5b810190808051906020019092919050505073ffffffffffffffffffffffffffffffffffffffff161415156200142c577fdd4fdf0e81079ead000f8a32e0d13d41477df489c7550775cecd0bcfadf244258573ffffffffffffffffffffffffffffffffffffffff16638da5cb5b6040518163ffffffff167c010000000000000000000000000000000000000000000000000000000002815260040160206040518083038186803b158015620012d057600080fd5b505afa158015620012e5573d6000803e3d6000fd5b505050506040513d6020811015620012fc57600080fd5b81019080805190602001909291905050503073ffffffffffffffffffffffffffffffffffffffff16638da5cb5b6040518163ffffffff167c010000000000000000000000000000000000000000000000000000000002815260040160206040518083038186803b1580156200137057600080fd5b505afa15801562001385573d6000803e3d6000fd5b505050506040513d60208110156200139c57600080fd5b8101908080519060200190929190505050604051808373ffffffffffffffffffffffffffffffffffffffff1673ffffffffffffffffffffffffffffffffffffffff1681526020018273ffffffffffffffffffffffffffffffffffffffff1673ffffffffffffffffffffffffffffffffffffffff1681526020019250505060405180910390a181925050506200176f565b80156200168a57333086866200144162002227565b808573ffffffffffffffffffffffffffffffffffffffff1673ffffffffffffffffffffffffffffffffffffffff1681526020018473ffffffffffffffffffffffffffffffffffffffff1673ffffffffffffffffffffffffffffffffffffffff1681526020018373ffffffffffffffffffffffffffffffffffffffff1673ffffffffffffffffffffffffffffffffffffffff168152602001828152602001945050505050604051809103906000f08015801562001501573d6000803e3d6000fd5b50915060048290806001815401808255809150509060018203906000526020600020016000909192909190916101000a81548173ffffffffffffffffffffffffffffffffffffffff021916908373ffffffffffffffffffffffffffffffffffffffff160217905550600560008473ffffffffffffffffffffffffffffffffffffffff1673ffffffffffffffffffffffffffffffffffffffff168152602001908152602001600020819055507f782da6ffbe0a39b4ae0e4d4ec24d471a6eca2ce0592be049a4b5098868158e1d33308787604051808573ffffffffffffffffffffffffffffffffffffffff1673ffffffffffffffffffffffffffffffffffffffff1681526020018473ffffffffffffffffffffffffffffffffffffffff1673ffffffffffffffffffffffffffffffffffffffff1681526020018373ffffffffffffffffffffffffffffffffffffffff1673ffffffffffffffffffffffffffffffffffffffff16815260200182815260200194505050505060405180910390a181925050506200176f565b7f8e11e205a9d05c81d86c48d86be86f14ea0f859e96fe798daeda3cbd59af8b983330878785604051808673ffffffffffffffffffffffffffffffffffffffff1673ffffffffffffffffffffffffffffffffffffffff1681526020018573ffffffffffffffffffffffffffffffffffffffff1673ffffffffffffffffffffffffffffffffffffffff1681526020018473ffffffffffffffffffffffffffffffffffffffff1673ffffffffffffffffffffffffffffffffffffffff168152602001838152602001821515151581526020019550505050505060405180910390a181925050505b92915050565b6000809054906101000a900473ffffffffffffffffffffffffffffffffffffffff1673ffffffffffffffffffffffffffffffffffffffff163373ffffffffffffffffffffffffffffffffffffffff16141515620017d157600080fd5b806000806101000a81548173ffffffffffffffffffffffffffffffffffffffff021916908373ffffffffffffffffffffffffffffffffffffffff16021790555050565b6000809054906101000a900473ffffffffffffffffffffffffffffffffffffffff1673ffffffffffffffffffffffffffffffffffffffff163373ffffffffffffffffffffffffffffffffffffffff161415156200187057600080fd5b6000600560008373ffffffffffffffffffffffffffffffffffffffff1673ffffffffffffffffffffffffffffffffffffffff16815260200190815260200160002054905060008114151562001c5d578173ffffffffffffffffffffffffffffffffffffffff166312424e3f6040518163ffffffff167c0100000000000000000000000000000000000000000000000000000000028152600401602060405180830381600087803b1580156200192457600080fd5b505af115801562001939573d6000803e3d6000fd5b505050506040513d60208110156200195057600080fd5b81019080805190602001909291905050501562001c5c577f6396b3ec2b028d965aecd7e22db7f6107794e3d5cc8db3194baa799c9266faff828373ffffffffffffffffffffffffffffffffffffffff1663546195c16040518163ffffffff167c010000000000000000000000000000000000000000000000000000000002815260040160206040518083038186803b158015620019ec57600080fd5b505afa15801562001a01573d6000803e3d6000fd5b505050506040513d602081101562001a1857600080fd5b8101908080519060200190929190505050604051808373ffffffffffffffffffffffffffffffffffffffff1673ffffffffffffffffffffffffffffffffffffffff1681526020018273ffffffffffffffffffffffffffffffffffffffff1673ffffffffffffffffffffffffffffffffffffffff1681526020019250505060405180910390a16000600560008473ffffffffffffffffffffffffffffffffffffffff1673ffffffffffffffffffffffffffffffffffffffff16815260200190815260200160002081905550600460016004805490500381548110151562001afa57fe5b9060005260206000200160009054906101000a900473ffffffffffffffffffffffffffffffffffffffff1660046001830381548110151562001b3857fe5b9060005260206000200160006101000a81548173ffffffffffffffffffffffffffffffffffffffff021916908373ffffffffffffffffffffffffffffffffffffffff160217905550600460016004805490500381548110151562001b9857fe5b9060005260206000200160006101000a81549073ffffffffffffffffffffffffffffffffffffffff0219169055600480548091906001900362001bdc919062002238565b508173ffffffffffffffffffffffffffffffffffffffff16634bb278f36040518163ffffffff167c0100000000000000000000000000000000000000000000000000000000028152600401600060405180830381600087803b15801562001c4257600080fd5b505af115801562001c57573d6000803e3d6000fd5b505050505b5b8173ffffffffffffffffffffffffffffffffffffffff1663e60955946040518163ffffffff167c0100000000000000000000000000000000000000000000000000000000028152600401600060405180830381600087803b15801562001cc257600080fd5b505af115801562001cd7573d6000803e3d6000fd5b505050505050565b600060038281548110151562001cf157fe5b9060005260206000200160009054906101000a900473ffffffffffffffffffffffffffffffffffffffff169050919050565b60003373ffffffffffffffffffffffffffffffffffffffff168273ffffffffffffffffffffffffffffffffffffffff16638da5cb5b6040518163ffffffff167c010000000000000000000000000000000000000000000000000000000002815260040160206040518083038186803b15801562001d9f57600080fd5b505afa15801562001db4573d6000803e3d6000fd5b505050506040513d602081101562001dcb57600080fd5b810190808051906020019092919050505073ffffffffffffffffffffffffffffffffffffffff1614151562001f3a577ffb8f7bf4bd761c9f757cb311898a927972d13a51684f7331f427def886f5147c338373ffffffffffffffffffffffffffffffffffffffff16638da5cb5b6040518163ffffffff167c010000000000000000000000000000000000000000000000000000000002815260040160206040518083038186803b15801562001e7f57600080fd5b505afa15801562001e94573d6000803e3d6000fd5b505050506040513d602081101562001eab57600080fd5b8101908080519060200190929190505050604051808373ffffffffffffffffffffffffffffffffffffffff1673ffffffffffffffffffffffffffffffffffffffff1681526020018273ffffffffffffffffffffffffffffffffffffffff1673ffffffffffffffffffffffffffffffffffffffff1681526020019250505060405180910390a16000905062002007565b60038290806001815401808255809150509060018203906000526020600020016000909192909190916101000a81548173ffffffffffffffffffffffffffffffffffffffff021916908373ffffffffffffffffffffffffffffffffffffffff160217905550507f9afbd20e5d8152aaf7b27bcc8128eff231b6392dd6895b4ce1fb6514f7af5c9a82604051808273ffffffffffffffffffffffffffffffffffffffff1673ffffffffffffffffffffffffffffffffffffffff16815260200191505060405180910390a18190505b919050565b600080600260009054906101000a900460ff1615156200205557620020526000809054906101000a900473ffffffffffffffffffffffffffffffffffffffff16620006a0565b90505b600260009054906101000a900460ff16151562002099577f5daa87a0e9463431830481fd4b6e3403442dfb9a12b9c07597e9f61d50b633c860405160405180910390a15b6001600260006101000a81548160ff0219169083151502179055508091505090565b6000809054906101000a900473ffffffffffffffffffffffffffffffffffffffff1673ffffffffffffffffffffffffffffffffffffffff163373ffffffffffffffffffffffffffffffffffffffff161415156200211757600080fd5b7fb118ca2babba7ee83167f658e6d0fdbf20f4e30dbd0119aac17a1ec30ad970003073ffffffffffffffffffffffffffffffffffffffff16316040518082815260200191505060405180910390a16000809054906101000a900473ffffffffffffffffffffffffffffffffffffffff1673ffffffffffffffffffffffffffffffffffffffff166108fc3073ffffffffffffffffffffffffffffffffffffffff16319081150290604051600060405180830381858888f19350505050158015620021e4573d6000803e3d6000fd5b50565b604051613759806200229083390190565b815481835581811115620022225781836000526020600020918201910162002221919062002267565b5b505050565b604051610af580620059e983390190565b815481835581811115620022625781836000526020600020918201910162002261919062002267565b5b505050565b6200228c91905b80821115620022885760008160009055506001016200226e565b5090565b9056fe60806040523480156200001157600080fd5b5060405160208062003759833981018060405260208110156200003357600080fd5b8101908080519060200190929190505050336000806101000a81548173ffffffffffffffffffffffffffffffffffffffff021916908373ffffffffffffffffffffffffffffffffffffffff1602179055506001600781905550806000806101000a81548173ffffffffffffffffffffffffffffffffffffffff021916908373ffffffffffffffffffffffffffffffffffffffff1602179055506200010e60006001027fc7f5bbf5fe95923f0691c94f666ac3dfed12456cd33bd018e7620c3d93edd5a660010262000161640100000000026401000000009004565b600881905550620001546008547f23e642b7242469a5e3184a6566020c815689149967703a98c0affc14b9ca9b2860010262000355640100000000026401000000009004565b6009819055505062000c09565b60006200017d8362000590640100000000026401000000009004565b1580156200018e5750600060010283115b156200019957600080fd5b82334384604051602001808581526020018473ffffffffffffffffffffffffffffffffffffffff1673ffffffffffffffffffffffffffffffffffffffff166c010000000000000000000000000281526014018381526020018281526020019450505050506040516020818303038152906040528051906020012090506200021f62000b53565b83816020018181525050600181600001901515908115158152505060006001028411156200026c57620002628483620005bd640100000000026401000000009004565b8160400181815250505b806005600084815260200190815260200160002060008201518160000160006101000a81548160ff02191690831515021790555060208201518160010155604082015181600201556060820151816005019080519060200190620002d292919062000b8f565b506080820151816006019080519060200190620002f192919062000b8f565b5060a08201518160070190805190602001906200031092919062000b8f565b509050507f9789a7ebab1e3d4a74f1c22b0ae2a212125ac931a6227e44d5a5a7aaf30dda75826040518082815260200191505060405180910390a18191505092915050565b600080839050620003758162000590640100000000026401000000009004565b1515620003825760085490505b6200039d813362000640640100000000026401000000009004565b1515620003aa5760095490505b6000600160008581526020019081526020016000205490506000600102811415156200040c57620003eb813362000640640100000000026401000000009004565b151562000401576000600102925050506200058a565b80925050506200058a565b62000427823362000833640100000000026401000000009004565b15156200043d576000600102925050506200058a565b60006200045a838662000161640100000000026401000000009004565b90508060016000878152602001908152602001600020819055506003859080600181540180825580915050906001820390600052602060002001600090919290919091505560026000878152602001908152602001600020819055508460066000838152602001908152602001600020819055507fdbbed9b5e758d940751f2ff463d1bfe06a690ae85a30fff61e1a32bcbd44cdb88186604051808381526020018281526020019250505060405180910390a16000809054906101000a900473ffffffffffffffffffffffffffffffffffffffff1673ffffffffffffffffffffffffffffffffffffffff163373ffffffffffffffffffffffffffffffffffffffff1614151562000583576200058181336002620009d0640100000000026401000000009004565b505b8093505050505b92915050565b60006005600083815260200190815260200160002060000160009054906101000a900460ff169050919050565b60007ff59df21212dc34a7802fc22a4615c50e1f8c9eaba419ab120489f4b8a21f9c4d826040518082815260200191505060405180910390a1600160056000858152602001908152602001600020600701839080600181540180825580915050906001820390600052602060002001600090919290919091505503905092915050565b60006200065c8362000590640100000000026401000000009004565b15156200066d57600090506200082d565b3373ffffffffffffffffffffffffffffffffffffffff168273ffffffffffffffffffffffffffffffffffffffff161415620006ac57600190506200082d565b60006005600085815260200190815260200160002090507fffffffffffffffffffffffffffffffffffffffffffffffffffffffffffffffff8160030160008573ffffffffffffffffffffffffffffffffffffffff1673ffffffffffffffffffffffffffffffffffffffff168152602001908152602001600020541415620007385760009150506200082d565b60038160030160008073ffffffffffffffffffffffffffffffffffffffff1673ffffffffffffffffffffffffffffffffffffffff1681526020019081526020016000205414156200078e5760009150506200082d565b60008160030160008073ffffffffffffffffffffffffffffffffffffffff1673ffffffffffffffffffffffffffffffffffffffff168152602001908152602001600020541315620007e45760019150506200082d565b60008160030160008573ffffffffffffffffffffffffffffffffffffffff1673ffffffffffffffffffffffffffffffffffffffff16815260200190815260200160002054139150505b92915050565b60006200084f8362000590640100000000026401000000009004565b1515620008605760009050620009ca565b3373ffffffffffffffffffffffffffffffffffffffff168273ffffffffffffffffffffffffffffffffffffffff1614156200089f5760019050620009ca565b60006005600085815260200190815260200160002090507fffffffffffffffffffffffffffffffffffffffffffffffffffffffffffffffff8160030160008573ffffffffffffffffffffffffffffffffffffffff1673ffffffffffffffffffffffffffffffffffffffff1681526020019081526020016000205414156200092b576000915050620009ca565b60018160030160008073ffffffffffffffffffffffffffffffffffffffff1673ffffffffffffffffffffffffffffffffffffffff16815260200190815260200160002054131562000981576001915050620009ca565b60018160030160008573ffffffffffffffffffffffffffffffffffffffff1673ffffffffffffffffffffffffffffffffffffffff16815260200190815260200160002054139150505b92915050565b60008060009054906101000a900473ffffffffffffffffffffffffffffffffffffffff1673ffffffffffffffffffffffffffffffffffffffff168373ffffffffffffffffffffffffffffffffffffffff16141562000a32576002905062000b4c565b62000a4d843362000833640100000000026401000000009004565b151562000a7d577fffffffffffffffffffffffffffffffffffffffffffffffffffffffffffffffff905062000b4c565b7f34317171af640dec2cd888b04cde0f1bc07730c47a4f7a149877f45d13c5137a848484604051808481526020018373ffffffffffffffffffffffffffffffffffffffff1673ffffffffffffffffffffffffffffffffffffffff168152602001828152602001935050505060405180910390a1816005600086815260200190815260200160002060030160008573ffffffffffffffffffffffffffffffffffffffff1673ffffffffffffffffffffffffffffffffffffffff168152602001908152602001600020819055508190505b9392505050565b60c06040519081016040528060001515815260200160008019168152602001600081526020016060815260200160608152602001606081525090565b82805482825590600052602060002090810192821562000bce579160200282015b8281111562000bcd57825182559160200191906001019062000bb0565b5b50905062000bdd919062000be1565b5090565b62000c0691905b8082111562000c0257600081600090555060010162000be8565b5090565b90565b612b408062000c196000396000f3fe6080604052600436106101c2576000357c0100000000000000000000000000000000000000000000000000000000900463ffffffff1680630d8e6e2c146101c4578063271bf53f146101ef5780632a680ddc1461021a578063387b2242146102aa5780635778455f146103035780635ba5342a1461032e5780635ca1e1651461035957806362ecbd351461038457806362fbdb76146103f7578063640a7f881461042257806369732f921461047157806372965b30146104c057806375a2cdde146105195780637a8f102f146105b35780637b01127c1461061f5780638da5cb5b146106785780638f1ac175146106cf57806390993ff51461074257806390d1040e146107a9578063a24fa79114610822578063a60efc6514610875578063a6f9dae1146108c4578063aa1f833614610915578063ae4c616114610964578063b1cfda88146109f4578063b7471dd014610a5b578063c62aa67d14610ab4578063cd98de8514610b03578063cf25611e14610b76578063d4c602f114610bd3578063db885eb814610c30578063de57971b14610c7f578063f12a796b14610cd8578063f3634c6d14610d2b578063fa80164414610d7a578063feac51f514610deb575b005b3480156101d057600080fd5b506101d9610e02565b6040518082815260200191505060405180910390f35b3480156101fb57600080fd5b50610204610e0c565b6040518082815260200191505060405180910390f35b34801561022657600080fd5b506102536004803603602081101561023d57600080fd5b8101908080359060200190929190505050610e16565b6040518080602001828103825283818151815260200191508051906020019060200280838360005b8381101561029657808201518184015260208101905061027b565b505050509050019250505060405180910390f35b3480156102b657600080fd5b506102ed600480360360408110156102cd57600080fd5b810190808035906020019092919080359060200190929190505050610e84565b6040518082815260200191505060405180910390f35b34801561030f57600080fd5b50610318610ebc565b6040518082815260200191505060405180910390f35b34801561033a57600080fd5b50610343610f24565b6040518082815260200191505060405180910390f35b34801561036557600080fd5b5061036e610f2a565b6040518082815260200191505060405180910390f35b34801561039057600080fd5b506103dd600480360360408110156103a757600080fd5b8101908080359060200190929190803573ffffffffffffffffffffffffffffffffffffffff169060200190929190505050610f34565b604051808215151515815260200191505060405180910390f35b34801561040357600080fd5b5061040c6110b8565b6040518082815260200191505060405180910390f35b34801561042e57600080fd5b5061045b6004803603602081101561044557600080fd5b81019080803590602001909291905050506110be565b6040518082815260200191505060405180910390f35b34801561047d57600080fd5b506104aa6004803603602081101561049457600080fd5b81019080803590602001909291905050506110fb565b6040518082815260200191505060405180910390f35b3480156104cc57600080fd5b50610503600480360360408110156104e357600080fd5b810190808035906020019092919080359060200190929190505050611118565b6040518082815260200191505060405180910390f35b34801561052557600080fd5b5061055c6004803603604081101561053c57600080fd5b81019080803590602001909291908035906020019092919050505061116d565b6040518080602001828103825283818151815260200191508051906020019060200280838360005b8381101561059f578082015181840152602081019050610584565b505050509050019250505060405180910390f35b3480156105bf57600080fd5b506105c8611245565b6040518080602001828103825283818151815260200191508051906020019060200280838360005b8381101561060b5780820151818401526020810190506105f0565b505050509050019250505060405180910390f35b34801561062b57600080fd5b506106626004803603604081101561064257600080fd5b8101908080359060200190929190803590602001909291905050506112f8565b6040518082815260200191505060405180910390f35b34801561068457600080fd5b5061068d611347565b604051808273ffffffffffffffffffffffffffffffffffffffff1673ffffffffffffffffffffffffffffffffffffffff16815260200191505060405180910390f35b3480156106db57600080fd5b50610728600480360360408110156106f257600080fd5b8101908080359060200190929190803573ffffffffffffffffffffffffffffffffffffffff16906020019092919050505061136c565b604051808215151515815260200191505060405180910390f35b34801561074e57600080fd5b5061078f6004803603606081101561076557600080fd5b810190808035906020019092919080359060200190929190803590602001909291905050506114f0565b604051808215151515815260200191505060405180910390f35b3480156107b557600080fd5b5061080c600480360360608110156107cc57600080fd5b8101908080359060200190929190803573ffffffffffffffffffffffffffffffffffffffff169060200190929190803590602001909291905050506115d9565b6040518082815260200191505060405180910390f35b34801561082e57600080fd5b5061085b6004803603602081101561084557600080fd5b8101908080359060200190929190505050611747565b604051808215151515815260200191505060405180910390f35b34801561088157600080fd5b506108ae6004803603602081101561089857600080fd5b8101908080359060200190929190505050611774565b6040518082815260200191505060405180910390f35b3480156108d057600080fd5b50610913600480360360208110156108e757600080fd5b81019080803573ffffffffffffffffffffffffffffffffffffffff1690602001909291905050506117b1565b005b34801561092157600080fd5b5061094e6004803603602081101561093857600080fd5b810190808035906020019092919050505061184f565b6040518082815260200191505060405180910390f35b34801561097057600080fd5b5061099d6004803603602081101561098757600080fd5b81019080803590602001909291905050506118cd565b6040518080602001828103825283818151815260200191508051906020019060200280838360005b838110156109e05780820151818401526020810190506109c5565b505050509050019250505060405180910390f35b348015610a0057600080fd5b50610a4160048036036060811015610a1757600080fd5b81019080803590602001909291908035906020019092919080359060200190929190505050611957565b604051808215151515815260200191505060405180910390f35b348015610a6757600080fd5b50610a9e60048036036040811015610a7e57600080fd5b810190808035906020019092919080359060200190929190505050611b29565b6040518082815260200191505060405180910390f35b348015610ac057600080fd5b50610aed60048036036020811015610ad757600080fd5b8101908080359060200190929190505050611b7e565b6040518082815260200191505060405180910390f35b348015610b0f57600080fd5b50610b5c60048036036040811015610b2657600080fd5b8101908080359060200190929190803573ffffffffffffffffffffffffffffffffffffffff169060200190929190505050611bea565b604051808215151515815260200191505060405180910390f35b348015610b8257600080fd5b50610bb960048036036040811015610b9957600080fd5b810190808035906020019092919080359060200190929190505050611dc2565b604051808215151515815260200191505060405180910390f35b348015610bdf57600080fd5b50610c1660048036036040811015610bf657600080fd5b810190808035906020019092919080359060200190929190505050611fce565b604051808215151515815260200191505060405180910390f35b348015610c3c57600080fd5b50610c6960048036036020811015610c5357600080fd5b8101908080359060200190929190505050612167565b6040518082815260200191505060405180910390f35b348015610c8b57600080fd5b50610cc260048036036040811015610ca257600080fd5b81019080803590602001909291908035906020019092919050505061218a565b6040518082815260200191505060405180910390f35b348015610ce457600080fd5b50610d1160048036036020811015610cfb57600080fd5b8101908080359060200190929190505050612356565b604051808215151515815260200191505060405180910390f35b348015610d3757600080fd5b50610d6460048036036020811015610d4e57600080fd5b81019080803590602001909291905050506124f7565b6040518082815260200191505060405180910390f35b348015610d8657600080fd5b50610dd160048036036080811015610d9d57600080fd5b8101908080359060200190929190803590602001909291908035906020019092919080359060200190929190505050612577565b604051808215151515815260200191505060405180910390f35b348015610df757600080fd5b50610e00612714565b005b6000600754905090565b6000600954905090565b606060056000838152602001908152602001600020600701805480602002602001604051908101604052809291908181526020018280548015610e7857602002820191906000526020600020905b815481526020019060010190808311610e64575b50505050509050919050565b60006005600084815260200190815260200160002060070182815481101515610ea957fe5b9060005260206000200154905092915050565b60008060009054906101000a900473ffffffffffffffffffffffffffffffffffffffff1673ffffffffffffffffffffffffffffffffffffffff163373ffffffffffffffffffffffffffffffffffffffff16141515610f1957600080fd5b600380549050905090565b60085481565b6000600854905090565b6000610f3f83611747565b1515610f4e57600090506110b2565b3373ffffffffffffffffffffffffffffffffffffffff168273ffffffffffffffffffffffffffffffffffffffff161415610f8b57600190506110b2565b60006005600085815260200190815260200160002090507fffffffffffffffffffffffffffffffffffffffffffffffffffffffffffffffff8160030160008573ffffffffffffffffffffffffffffffffffffffff1673ffffffffffffffffffffffffffffffffffffffff1681526020019081526020016000205414156110155760009150506110b2565b60038160030160008073ffffffffffffffffffffffffffffffffffffffff1673ffffffffffffffffffffffffffffffffffffffff1681526020019081526020016000205413156110695760019150506110b2565b60038160030160008573ffffffffffffffffffffffffffffffffffffffff1673ffffffffffffffffffffffffffffffffffffffff16815260200190815260200160002054139150505b92915050565b60095481565b60006110ca8233611bea565b15156110d957600090506110f6565b600560008381526020019081526020016000206006018054905090505b919050565b600060026000838152602001908152602001600020549050919050565b60006111248333611bea565b15156111365760006001029050611167565b600560008481526020019081526020016000206006018281548110151561115957fe5b906000526020600020015490505b92915050565b60606000809054906101000a900473ffffffffffffffffffffffffffffffffffffffff1673ffffffffffffffffffffffffffffffffffffffff163373ffffffffffffffffffffffffffffffffffffffff161415156111ca57600080fd5b60046000838152602001908152602001600020600084815260200190815260200160002080548060200260200160405190810160405280929190818152602001828054801561123857602002820191906000526020600020905b815481526020019060010190808311611224575b5050505050905092915050565b60606000809054906101000a900473ffffffffffffffffffffffffffffffffffffffff1673ffffffffffffffffffffffffffffffffffffffff163373ffffffffffffffffffffffffffffffffffffffff161415156112a257600080fd5b60038054806020026020016040519081016040528092919081815260200182805480156112ee57602002820191906000526020600020905b8154815260200190600101908083116112da575b5050505050905090565b60006113048333611bea565b15156113165760006001029050611341565b6005600084815260200190815260200160002060040160008381526020019081526020016000205490505b92915050565b6000809054906101000a900473ffffffffffffffffffffffffffffffffffffffff1681565b600061137783611747565b151561138657600090506114ea565b3373ffffffffffffffffffffffffffffffffffffffff168273ffffffffffffffffffffffffffffffffffffffff1614156113c357600190506114ea565b60006005600085815260200190815260200160002090507fffffffffffffffffffffffffffffffffffffffffffffffffffffffffffffffff8160030160008573ffffffffffffffffffffffffffffffffffffffff1673ffffffffffffffffffffffffffffffffffffffff16815260200190815260200160002054141561144d5760009150506114ea565b60018160030160008073ffffffffffffffffffffffffffffffffffffffff1673ffffffffffffffffffffffffffffffffffffffff1681526020019081526020016000205413156114a15760019150506114ea565b60018160030160008573ffffffffffffffffffffffffffffffffffffffff1673ffffffffffffffffffffffffffffffffffffffff16815260200190815260200160002054139150505b92915050565b60008060016000868152602001908152602001600020549050600060010281141561158557600060095490506000809054906101000a900473ffffffffffffffffffffffffffffffffffffffff1673ffffffffffffffffffffffffffffffffffffffff163373ffffffffffffffffffffffffffffffffffffffff1614156115775760085490505b611581818761218a565b9150505b7ff02073bab041973739f57a1b45d4a1ce6da8c0be7d271a409973dea51e9381f78186604051808381526020018281526020019250505060405180910390a16115cf818585611957565b9150509392505050565b60008060009054906101000a900473ffffffffffffffffffffffffffffffffffffffff1673ffffffffffffffffffffffffffffffffffffffff168373ffffffffffffffffffffffffffffffffffffffff1614156116395760029050611740565b611643843361136c565b1515611671577fffffffffffffffffffffffffffffffffffffffffffffffffffffffffffffffff9050611740565b7f34317171af640dec2cd888b04cde0f1bc07730c47a4f7a149877f45d13c5137a848484604051808481526020018373ffffffffffffffffffffffffffffffffffffffff1673ffffffffffffffffffffffffffffffffffffffff168152602001828152602001935050505060405180910390a1816005600086815260200190815260200160002060030160008573ffffffffffffffffffffffffffffffffffffffff1673ffffffffffffffffffffffffffffffffffffffff168152602001908152602001600020819055508190505b9392505050565b60006005600083815260200190815260200160002060000160009054906101000a900460ff169050919050565b60006117808233611bea565b151561178f57600090506117ac565b600560008381526020019081526020016000206005018054905090505b919050565b6000809054906101000a900473ffffffffffffffffffffffffffffffffffffffff1673ffffffffffffffffffffffffffffffffffffffff163373ffffffffffffffffffffffffffffffffffffffff1614151561180c57600080fd5b806000806101000a81548173ffffffffffffffffffffffffffffffffffffffff021916908373ffffffffffffffffffffffffffffffffffffffff16021790555050565b60008060009054906101000a900473ffffffffffffffffffffffffffffffffffffffff1673ffffffffffffffffffffffffffffffffffffffff163373ffffffffffffffffffffffffffffffffffffffff161415156118ac57600080fd5b6003828154811015156118bb57fe5b90600052602060002001549050919050565b6060806118da8333611bea565b15156118e95780915050611952565b6005600084815260200190815260200160002060050180548060200260200160405190810160405280929190818152602001828054801561194957602002820191906000526020600020905b815481526020019060010190808311611935575b50505050509150505b919050565b6000611963843361136c565b15156119725760009050611b22565b60006005600086815260200190815260200160002090506000611994866124f7565b90506000600102826004016000878152602001908152602001600020541415611acd57816005018590806001815401808255809150509060018203906000526020600020016000909192909190915055508160060184908060018154018082558091505090600182039060005260206000200160009091929091909150555083826004016000878152602001908152602001600020819055506004600086815260200190815260200160002060008281526020019081526020016000208490806001815401808255809150509060018203906000526020600020016000909192909190915055507ff471cdf01f69a9955b3bd3250e22a298088cf8318f075712caae48cd90d0f5a186868660405180848152602001838152602001828152602001935050505060405180910390a1600192505050611b22565b6004600086815260200190815260200160002060008281526020019081526020016000208490806001815401808255809150509060018203906000526020600020016000909192909190915055506000925050505b9392505050565b6000611b358333611bea565b1515611b475760006001029050611b78565b6005600084815260200190815260200160002060050182815481101515611b6a57fe5b906000526020600020015490505b92915050565b600080600160008481526020019081526020016000205490506000600102811415611bcd57611baf60085433611bea565b1515611bc2576000600102915050611be5565b600854915050611be5565b60016000848152602001908152602001600020549150505b919050565b6000611bf583611747565b1515611c045760009050611dbc565b3373ffffffffffffffffffffffffffffffffffffffff168273ffffffffffffffffffffffffffffffffffffffff161415611c415760019050611dbc565b60006005600085815260200190815260200160002090507fffffffffffffffffffffffffffffffffffffffffffffffffffffffffffffffff8160030160008573ffffffffffffffffffffffffffffffffffffffff1673ffffffffffffffffffffffffffffffffffffffff168152602001908152602001600020541415611ccb576000915050611dbc565b60038160030160008073ffffffffffffffffffffffffffffffffffffffff1673ffffffffffffffffffffffffffffffffffffffff168152602001908152602001600020541415611d1f576000915050611dbc565b60008160030160008073ffffffffffffffffffffffffffffffffffffffff1673ffffffffffffffffffffffffffffffffffffffff168152602001908152602001600020541315611d73576001915050611dbc565b60008160030160008573ffffffffffffffffffffffffffffffffffffffff1673ffffffffffffffffffffffffffffffffffffffff16815260200190815260200160002054139150505b92915050565b6000611dce833361136c565b1515611ddd5760009050611fc8565b600060056000858152602001908152602001600020905060008160050184815481101515611e0757fe5b9060005260206000200154905060008260060185815481101515611e2757fe5b9060005260206000200154905060006001028214151515611e4757600080fd5b600060010283600401600084815260200190815260200160002081905550826005016001846005018054905003815481101515611e8057fe5b90600052602060002001548360050186815481101515611e9c57fe5b9060005260206000200181905550826005016001846005018054905003815481101515611ec557fe5b906000526020600020016000905582600501805480919060019003611eea9190612a3a565b50826006016001846006018054905003815481101515611f0657fe5b90600052602060002001548360060186815481101515611f2257fe5b9060005260206000200181905550826006016001846006018054905003815481101515611f4b57fe5b906000526020600020016000905582600601805480919060019003611f709190612a3a565b507f1d38599110480868f2b8ebe5480fbd67d2bd7483a57096ff3dbbb8885bc848ce868684846040518085815260200184815260200183815260200182815260200194505050505060405180910390a1600193505050505b92915050565b6000611fda833361136c565b1515611fe95760009050612161565b6000600560008581526020019081526020016000209050612025816007018481548110151561201457fe5b90600052602060002001543361136c565b1515612035576000915050612161565b600060018260070180549050039050600060056000846007018481548110151561205b57fe5b90600052602060002001548152602001908152602001600020600201549050826007018281548110151561208b57fe5b906000526020600020015483600701868154811015156120a757fe5b906000526020600020018190555082600701828154811015156120c657fe5b9060005260206000200160009055826007018054809190600190036120eb9190612a3a565b508060056000856007018581548110151561210257fe5b90600052602060002001548152602001908152602001600020600201819055507ffd0a88bb12c4f727366c3d6e900ca5d6bb44f23125ab8738b010571959fdd4c3856040518082815260200191505060405180910390a1600193505050505b92915050565b600060056000838152602001908152602001600020600701805490509050919050565b60008083905061219981611747565b15156121a55760085490505b6121af8133611bea565b15156121bb5760095490505b600060016000858152602001908152602001600020549050600060010281141515612208576121ea8133611bea565b15156121fe57600060010292505050612350565b8092505050612350565b612212823361136c565b151561222657600060010292505050612350565b600061223283866127f0565b90508060016000878152602001908152602001600020819055506003859080600181540180825580915050906001820390600052602060002001600090919290919091505560026000878152602001908152602001600020819055508460066000838152602001908152602001600020819055507fdbbed9b5e758d940751f2ff463d1bfe06a690ae85a30fff61e1a32bcbd44cdb88186604051808381526020018281526020019250505060405180910390a16000809054906101000a900473ffffffffffffffffffffffffffffffffffffffff1673ffffffffffffffffffffffffffffffffffffffff163373ffffffffffffffffffffffffffffffffffffffff1614151561234957612347813360026115d9565b505b8093505050505b92915050565b6000612362823361136c565b151561237157600090506124f2565b600060066000848152602001908152602001600020549050600060010281141561239f5760009150506124f2565b60006005600085815260200190815260200160002090506123c881600101548260020154611fce565b156124eb576000600260008481526020019081526020016000205490506000811415156124e9576000600102600160008581526020019081526020016000208190555060006002600085815260200190815260200160002081905550600360016003805490500381548110151561243b57fe5b906000526020600020015460038281548110151561245557fe5b9060005260206000200181905550600360016003805490500381548110151561247a57fe5b9060005260206000200160009055600380548091906001900361249d9190612a3a565b507f22780ec5e10fb383b2f0392a8a1b2e9845ec88ea55df51b342fc81cee06330e68584604051808381526020018281526020019250505060405180910390a1600193505050506124f2565b505b6000925050505b919050565b6000806001026006600084815260200190815260200160002054141561253f5761252360085433611bea565b15156125355760006001029050612572565b6008549050612572565b6125498233611bea565b151561255b5760006001029050612572565b600660008381526020019081526020016000205490505b919050565b60006125838533610f34565b1515612592576000905061270c565b6000600560008781526020019081526020016000209050806006018054905085101561270657600081600501868154811015156125cb57fe5b9060005260206000200154905060006001028260040160008381526020019081526020016000208190555084826005018781548110151561260857fe5b906000526020600020018190555083826006018781548110151561262857fe5b90600052602060002001819055508382600401600087815260200190815260200160002081905550600061265b886124f7565b90506004600087815260200190815260200160002060008281526020019081526020016000208590806001815401808255809150509060018203906000526020600020016000909192909190915055507f1eab6cf57dde16a210aaa523a8cc2c4de4ea4cc03e04bdc59c24c9f006ac1555888888886040518085815260200184815260200183815260200182815260200194505050505060405180910390a16001935050505061270c565b60009150505b949350505050565b6000809054906101000a900473ffffffffffffffffffffffffffffffffffffffff1673ffffffffffffffffffffffffffffffffffffffff163373ffffffffffffffffffffffffffffffffffffffff1614151561276f57600080fd5b6000809054906101000a900473ffffffffffffffffffffffffffffffffffffffff1673ffffffffffffffffffffffffffffffffffffffff166108fc3073ffffffffffffffffffffffffffffffffffffffff16319081150290604051600060405180830381858888f193505050501580156127ed573d6000803e3d6000fd5b50565b60006127fb83611747565b15801561280b5750600060010283115b1561281557600080fd5b82334384604051602001808581526020018473ffffffffffffffffffffffffffffffffffffffff1673ffffffffffffffffffffffffffffffffffffffff166c01000000000000000000000000028152601401838152602001828152602001945050505050604051602081830303815290604052805190602001209050612899612a66565b83816020018181525050600181600001901515908115158152505060006001028411156128d4576128ca84836129b7565b8160400181815250505b806005600084815260200190815260200160002060008201518160000160006101000a81548160ff02191690831515021790555060208201518160010155604082015181600201556060820151816005019080519060200190612938929190612aa2565b506080820151816006019080519060200190612955929190612aa2565b5060a0820151816007019080519060200190612972929190612aa2565b509050507f9789a7ebab1e3d4a74f1c22b0ae2a212125ac931a6227e44d5a5a7aaf30dda75826040518082815260200191505060405180910390a18191505092915050565b60007ff59df21212dc34a7802fc22a4615c50e1f8c9eaba419ab120489f4b8a21f9c4d826040518082815260200191505060405180910390a1600160056000858152602001908152602001600020600701839080600181540180825580915050906001820390600052602060002001600090919290919091505503905092915050565b815481835581811115612a6157818360005260206000209182019101612a609190612aef565b5b505050565b60c06040519081016040528060001515815260200160008019168152602001600081526020016060815260200160608152602001606081525090565b828054828255906000526020600020908101928215612ade579160200282015b82811115612add578251825591602001919060010190612ac2565b5b509050612aeb9190612aef565b5090565b612b1191905b80821115612b0d576000816000905550600101612af5565b5090565b9056fea165627a7a72305820b238e86530a23ecdbc11b3975aa0e5a4a94945cfe7bad426c9f947220c58e9bb0029608060405234801561001057600080fd5b50604051608080610af58339810180604052608081101561003057600080fd5b810190808051906020019092919080519060200190929190805190602001909291908051906020019092919050505083600360006101000a81548173ffffffffffffffffffffffffffffffffffffffff021916908373ffffffffffffffffffffffffffffffffffffffff160217905550826000806101000a81548173ffffffffffffffffffffffffffffffffffffffff021916908373ffffffffffffffffffffffffffffffffffffffff16021790555081600160006101000a81548173ffffffffffffffffffffffffffffffffffffffff021916908373ffffffffffffffffffffffffffffffffffffffff16021790555080600281905550505050506109ba8061013b6000396000f3fe608060405260043610610078576000357c0100000000000000000000000000000000000000000000000000000000900463ffffffff16806312424e3f1461007d5780634bb278f3146100ac578063546195c1146100c35780639552f58c1461011a578063d0e30db014610131578063e60955941461013b575b600080fd5b34801561008957600080fd5b50610092610152565b604051808215151515815260200191505060405180910390f35b3480156100b857600080fd5b506100c161046a565b005b3480156100cf57600080fd5b506100d8610637565b604051808273ffffffffffffffffffffffffffffffffffffffff1673ffffffffffffffffffffffffffffffffffffffff16815260200191505060405180910390f35b34801561012657600080fd5b5061012f610758565b005b6101396107ef565b005b34801561014757600080fd5b5061015061085c565b005b60008060009054906101000a900473ffffffffffffffffffffffffffffffffffffffff1673ffffffffffffffffffffffffffffffffffffffff16638da5cb5b6040518163ffffffff167c010000000000000000000000000000000000000000000000000000000002815260040160206040518083038186803b1580156101d757600080fd5b505afa1580156101eb573d6000803e3d6000fd5b505050506040513d602081101561020157600080fd5b810190808051906020019092919050505073ffffffffffffffffffffffffffffffffffffffff163373ffffffffffffffffffffffffffffffffffffffff1614151561024b57600080fd5b600160009054906101000a900473ffffffffffffffffffffffffffffffffffffffff1673ffffffffffffffffffffffffffffffffffffffff1663a24fa7916002546040518263ffffffff167c01000000000000000000000000000000000000000000000000000000000281526004018082815260200191505060206040518083038186803b1580156102dc57600080fd5b505afa1580156102f0573d6000803e3d6000fd5b505050506040513d602081101561030657600080fd5b810190808051906020019092919050505015610462576000600160009054906101000a900473ffffffffffffffffffffffffffffffffffffffff1673ffffffffffffffffffffffffffffffffffffffff166390d1040e600254600360009054906101000a900473ffffffffffffffffffffffffffffffffffffffff1660016040518463ffffffff167c0100000000000000000000000000000000000000000000000000000000028152600401808481526020018373ffffffffffffffffffffffffffffffffffffffff1673ffffffffffffffffffffffffffffffffffffffff1681526020018281526020019350505050602060405180830381600087803b15801561041057600080fd5b505af1158015610424573d6000803e3d6000fd5b505050506040513d602081101561043a57600080fd5b810190808051906020019092919050505090506001811415610460576001915050610467565b505b600090505b90565b6000809054906101000a900473ffffffffffffffffffffffffffffffffffffffff1673ffffffffffffffffffffffffffffffffffffffff16638da5cb5b6040518163ffffffff167c010000000000000000000000000000000000000000000000000000000002815260040160206040518083038186803b1580156104ed57600080fd5b505afa158015610501573d6000803e3d6000fd5b505050506040513d602081101561051757600080fd5b810190808051906020019092919050505073ffffffffffffffffffffffffffffffffffffffff163373ffffffffffffffffffffffffffffffffffffffff1614151561056157600080fd5b6000809054906101000a900473ffffffffffffffffffffffffffffffffffffffff1673ffffffffffffffffffffffffffffffffffffffff16638da5cb5b6040518163ffffffff167c010000000000000000000000000000000000000000000000000000000002815260040160206040518083038186803b1580156105e457600080fd5b505afa1580156105f8573d6000803e3d6000fd5b505050506040513d602081101561060e57600080fd5b810190808051906020019092919050505073ffffffffffffffffffffffffffffffffffffffff16ff5b60008060009054906101000a900473ffffffffffffffffffffffffffffffffffffffff1673ffffffffffffffffffffffffffffffffffffffff16638da5cb5b6040518163ffffffff167c010000000000000000000000000000000000000000000000000000000002815260040160206040518083038186803b1580156106bc57600080fd5b505afa1580156106d0573d6000803e3d6000fd5b505050506040513d60208110156106e657600080fd5b810190808051906020019092919050505073ffffffffffffffffffffffffffffffffffffffff163373ffffffffffffffffffffffffffffffffffffffff1614151561073057600080fd5b600360009054906101000a900473ffffffffffffffffffffffffffffffffffffffff16905090565b600360009054906101000a900473ffffffffffffffffffffffffffffffffffffffff1673ffffffffffffffffffffffffffffffffffffffff163373ffffffffffffffffffffffffffffffffffffffff161415156107b457600080fd5b600360009054906101000a900473ffffffffffffffffffffffffffffffffffffffff1673ffffffffffffffffffffffffffffffffffffffff16ff5b600360009054906101000a900473ffffffffffffffffffffffffffffffffffffffff1673ffffffffffffffffffffffffffffffffffffffff163373ffffffffffffffffffffffffffffffffffffffff1614151561084b57600080fd5b60003411151561085a57600080fd5b565b6000809054906101000a900473ffffffffffffffffffffffffffffffffffffffff1673ffffffffffffffffffffffffffffffffffffffff16638da5cb5b6040518163ffffffff167c010000000000000000000000000000000000000000000000000000000002815260040160206040518083038186803b1580156108df57600080fd5b505afa1580156108f3573d6000803e3d6000fd5b505050506040513d602081101561090957600080fd5b810190808051906020019092919050505073ffffffffffffffffffffffffffffffffffffffff163373ffffffffffffffffffffffffffffffffffffffff1614151561095357600080fd5b600360009054906101000a900473ffffffffffffffffffffffffffffffffffffffff1673ffffffffffffffffffffffffffffffffffffffff16fffea165627a7a723058201d040f110bb7708c28b37db238e37c82281a845f34932c5e2941facfb34cb39e0029a165627a7a72305820cb55c8556f50c612ae6c4c923a1ba2dd25ce71a8eed86f464bc20f0960d16a8d0029",
  "source": "/* This Source Code Form is subject to the terms of the Mozilla Public\n * License, v. 2.0. If a copy of the MPL was not distributed with this\n * file, You can obtain one at http://mozilla.org/MPL/2.0/.\n *\n * This code has not been reviewed.\n * Do not use or deploy this code before reviewing it personally first.\n */\n\n/*\n  so how we tackle access rights? \n  upon creation root is pupulated with common folders, \n  Initial folder structure is mapped \n     root      = newFolder(0); // the root of all, onlyOwner c7f5bbf5fe95923f0691c94f666ac3dfed12456cd33bd018e7620c3d93edd5a6\n     shared    = addFolder(root, 0x23e642b7242469a5e3184a6566020c815689149967703a98c0affc14b9ca9b28); // only those that was shared with\n     dataReceipt  = addFolder(root, 0x1d261cf1849d7042d71f91ae5de9f8e1102f872f83bef6add64509a927939609); // only owner r/w or those shared with\n     incoming  = addFolder(root, 0xe723d028f3a255c87f4d0ff2d83c484a5a279f9791d3fbd87348df86ad478196); // unknown can add, but not read\n     common    = addFolder(root, 0xf7c93b517d753615c49ea5b8b1ea3d75e9d75be99691bcf066226dc260a704be); // everyone r, owner w             \n     temporary = addFolder(root, 0xc96eea3628fe2bbedfaf37cbf7a7c196aa346555e7b0dd60cea44a5319b17945); // everyone r/w   \n*/\n/*\n      privateNodeId      = addFolder(rootNodeId, 0x69ebce02fbffacce50622356b97cc93a78f17feb5bf8e8ccacbdb7032e3162dc); // none can r/w\n      publicNodeId       = addFolder(rootNodeId, 0x7e00625d1d39ffe13a119d9085848880ad5ccd078e38677f3a705653326d44ed); \n      unrestrainedNodeId = addFolder(rootNodeId, 0xd0e98c61c165756dc6a3294835afbb596b332b2a27061c997163e623939c6cc0); \n      \n      setNodeAccess(publicNodeId, address(0x0), 1); // everyone can read, but not write\n      setNodeAccess(sharedNodeId, address(0x0), 3); // unknown can add, but not read \n      setNodeAccess(unrestrainedNodeId, address(0x0), 2); // all can read all can write\n*/\n\n// DONE: prepare events, \n// TODO: method to move key/value from nodeId to new nodeId \n// TODO: add nodeId from other kvt, if its possible to do cross-contract node sharing ...  else write additional contract to hold shared data \n//\n\n pragma solidity ^0.5.0;\n contract Owned {\n    address payable public owner;\n    modifier onlyOwner() {\n        require(msg.sender == owner);\n        _;\n    }\n    /// @notice The Constructor assigns the message sender to be `owner`\n    constructor () public { owner = msg.sender; }\n    function changeOwner(address payable _newOwner) public onlyOwner { owner = _newOwner; }\n}\n\ncontract KeyValueTree is Owned {\n    mapping(bytes32 => bytes32) internal folderNodes; // map of folder to NodeId\n\n    mapping(bytes32 => uint256) folderIndex; // map of folder to index (starts with 1, not 0!!)\n    bytes32[] folders; // all folder roots\n\n    mapping(bytes32 => mapping(bytes32 => bytes32[])) internal keyFolderValues; // feeds by sender by folder\n    \n    // folder time to live (disapearing feeds / messages)\n    mapping(bytes32 => Node) internal Nodes; // NodeId to node\n    mapping(bytes32 => bytes32) internal nodeIdToFolder; // nodeIds to protocol \n\n    // AccessRights\n    // contains 0x0 = 1, everyone can read/write\n    // contains 0x0 = 1, everyone can read/write\n    // contains 0x0 = 0, none onlyOwner\n    // contains address = -1, address is forbiden to \n    // contains address =  0, address is forbiden to \n    // contains address =  1, address can read\n    // contains address =  2, address can read/write\n    // contains address =  3, address can write but can not read\n    // contains address =  4, address can overwrite existing address feed \n    struct Node {\n        bool      isNode;\n        bytes32   parent;\n        uint      index;\n        // consider putting protocol info in a node \n        mapping(address => int) canAccess;\n        \n        mapping(bytes32 => bytes32) valuesMap;\n        bytes32[] keys;\n        bytes32[] values;\n\n        // child nodes\n        bytes32[] children;  \n    }\n    \n    event NodeAdded(bytes32);\n    event NodeRemovedChild(uint256);\n    event NodeAddChild(bytes32);\n    event NodeAccessChange(bytes32,address,int);\n    event NodeDelete(bytes32 nodeId, bytes32 folder);\n    event AddFolder(bytes32 nodeId, bytes32 folder);\n    event KeyValueSet(bytes32 nodeId, bytes32 key, bytes32 value);\n    event KeyValueSetFolder(bytes32 nodeId, bytes32 folder);\n    event OverwriteKeyValue(bytes32 nodeId, uint256 index, bytes32 key, bytes32 value);\n    event RemoveKeyValue(bytes32 nodeId, uint256 index, bytes32 key, bytes32 value);\n    \n    function isNode(bytes32 nodeId) public view returns(bool)  {\n        return Nodes[nodeId].isNode;\n    }\n    function getNodeChildrenCount(bytes32 nodeId) public view returns(uint childCount) {\n        return Nodes[nodeId].children.length;\n    }\n    function getNodeChildAt(bytes32 nodeId, uint index) public view returns(bytes32 childId) {\n        return Nodes[nodeId].children[index];\n    }\n    function getNodeChildren(bytes32 nodeId) public view returns(bytes32[] memory childrenId) {\n        return Nodes[nodeId].children;\n    }\n    function removeChildAt(bytes32 nodeId, uint256 index) public returns (bool) {\n         // removes children node from nodeId, not best way as it does reordering \n         if(!canWrite(nodeId, msg.sender)) return false;  // can write to node that is supposed to be deleted?\n\n         Node storage node = Nodes[nodeId];\n         \n         if(!canWrite(node.children[index], msg.sender)) return false; // can write to node that is supposed to be deleted?\n         \n         uint last = node.children.length-1; // last child in the list\n         uint idx = Nodes[node.children[last]].index;\n         \n         node.children[index] = node.children[last];\n         delete node.children[last];\n         node.children.length--;\n         \n         Nodes[node.children[last]].index = idx; // swap index\n         \n         emit NodeRemovedChild(index);\n         return true;\n    }    \n    function addNode(bytes32 nodeId, bytes32 folder) internal returns(bytes32 newId) {\n        if(!isNode(nodeId) && nodeId > 0) revert(); // zero is a new root node\n        newId = keccak256(abi.encodePacked(nodeId, msg.sender, block.number, folder));\n\n        Node memory node;\n        node.parent = nodeId;\n        node.isNode = true;\n        \n        if(nodeId>0) {\n            node.index = addChildNode(nodeId,newId);\n        }\n        \n        Nodes[newId] = node;\n        emit NodeAdded(newId);\n        return newId;\n    }\n    function addChildNode(bytes32 nodeId, bytes32 childId) private returns(uint index) {\n        emit NodeAddChild(childId);\n        return Nodes[nodeId].children.push(childId) - 1;\n    }\n    \n    uint version;\n    // should these be public, or private? and accessed through methods that also check accessRights ? \n    bytes32 public rootNodeId; // root of tree\n    bytes32 public sharedNodeId; // incoming node id\n    \n    function getRoot() public view returns (bytes32) { return rootNodeId; }\n    function getShared() public view returns (bytes32) { return sharedNodeId; }\n    \n    // constructor\n    constructor(address payable _owner) public {\n      version = 1;\n      owner = _owner;         \n      rootNodeId         = addNode(0, 0xc7f5bbf5fe95923f0691c94f666ac3dfed12456cd33bd018e7620c3d93edd5a6); // the root of all, onlyOwner r/w  c7f5bbf5fe95923f0691c94f666ac3dfed12456cd33bd018e7620c3d93edd5a6\n      sharedNodeId       = addFolder(rootNodeId, 0x23e642b7242469a5e3184a6566020c815689149967703a98c0affc14b9ca9b28);\n      // setNodeAccess(sharedNodeId, address(0x0), 3); // unknown can add, but not read \n    }\n    \n    function getVersion() public view returns (uint) {\n         return version;\n     }\n    \n    function setNodeAccess(bytes32 nodeId, address addr, int rights) /*onlyOwner*/ public returns (int) {\n       //if(msg.sender!=owner) return -1;\n       if(addr==owner) return 2; // owner always has r/w access, this is needed so one can not bloat mapping with owner address\n       if(!canWrite( nodeId, msg.sender)) return -1;\n\n       emit NodeAccessChange(nodeId,addr,rights);\n       Nodes[nodeId].canAccess[addr] = rights;\n       return rights;\n    }\n    function canRead(bytes32 nodeId, address addr) public view returns (bool) {\n         if(!isNode(nodeId)) return false;\n         if(addr==msg.sender) return true;\n         \n         Node storage n = Nodes[nodeId];\n         if(n.canAccess[addr] == -1)  return false;  //address is blacklisted \n         if(n.canAccess[address(0x0)] == 3) return false; //none can read\n         if(n.canAccess[address(0x0)] > 0)  return true;  //everyone can access\n         return n.canAccess[addr]>0;\n     }\n    function canWrite(bytes32 nodeId, address addr) public view returns (bool) {\n         if(!isNode(nodeId)) return false;\n         if(addr==msg.sender) return true;\n         \n         Node storage n = Nodes[nodeId];\n         if(n.canAccess[addr] == -1)  return false;  //address is blacklisted \n         if(n.canAccess[address(0x0)] > 1) return true; //everyone can write\n         return n.canAccess[addr]>1;\n     }\n    function canOverwrite(bytes32 nodeId, address addr) public view returns (bool) {\n         if(!isNode(nodeId)) return false;\n         if(addr==msg.sender) return true;\n         Node storage n = Nodes[nodeId];\n         \n         if(n.canAccess[addr] == -1)  return false;  //address is blacklisted \n         if(n.canAccess[address(0x0)] > 3) return true; //everyone can overwrite\n         return n.canAccess[addr] > 3; // yes you can overwrite\n     }\n    ///////////////////////////////////////////////////////////////////////////////////////////       \n    function deleteNode(bytes32 nodeId) public returns (bool) {\n        if(!canWrite(nodeId, msg.sender)) return false;\n        \n        bytes32 folder = nodeIdToFolder[nodeId];\n        if(folder==0x0) return false; // no mapping to folder\n\n        Node storage node = Nodes[nodeId];\n        if(removeChildAt(node.parent, node.index)) \n        {\n            uint256 index = folderIndex[folder]; \n            if(index!=0)\n            {\n                folderNodes[folder] = 0x0;\n                folderIndex[folder] = 0;\n        \n                folders[index] = folders[folders.length-1];\n                delete folders[folders.length-1];\n                folders.length--;\n                \n                emit NodeDelete(nodeId, folder);\n                return true;\n            }\n        }\n        return false;\n    }     \n     \n    // problem is that subFolder is added to folderNodes mapping\n    // this means subFolder can be only one and must be unique \n    // which in turn means that we can't have same subFolder in different parent protocols\n    // add subProtocol to parentProtocol (protocolNodeId)\n    // so if if parent is bin, then add subFolder as \"/bin/subFolderName\" \n    // returns nodeId of new subFolder or 0x0 if error \n    function addFolder(bytes32 parentNodeId, bytes32 subFolder) public returns (bytes32) {\n        bytes32 parentId = parentNodeId;\n        if(!isNode(parentId)) // parentNode is not a node, then write to root\n           parentId = rootNodeId;\n        \n        if(!canRead(parentId, msg.sender)) // no read permission for parent\n           parentId = sharedNodeId;\n\n        bytes32 subNode = folderNodes[subFolder]; // \"/bin\" -> hash\n        if(subNode != 0) // if subProtocol exists as protocol, then fail\n        {\n            if(!canRead(subNode, msg.sender)) // no read permission \n               return 0x0;\n               \n            return subNode;\n        }\n        \n        if(!canWrite(parentId, msg.sender)) // no write permission\n           return 0x0;\n        \n        bytes32 newNodeId = addNode(parentId, subFolder); // add child to parent\n\n        folderNodes[subFolder] = newNodeId; \n        folderIndex[subFolder] = folders.push(subFolder);\n        \n        nodeIdToFolder[newNodeId] = subFolder; // we need mapping to folder from nodeId\n        \n        emit AddFolder(newNodeId, subFolder);\n        \n        if(msg.sender!=owner)\n          setNodeAccess(newNodeId, msg.sender, 2); // give r/w access to creator of node\n           \n        return newNodeId; \n    }\n    ///////////////////////////////////////////////////////////////////////////////////////////      \n    // setKeyValue, will suceed only when no such key with value exist\n    function setKeyValueFolder(bytes32 folder, bytes32 key, bytes32 value) public returns (bool) {\n         bytes32 targetNode = folderNodes[folder];\n         \n         if(targetNode==0) {// folder does not exist in mapping to all folder\n            bytes32 makeSubFolderIn = sharedNodeId; // everything goes to incoming\n            if(msg.sender == owner) // owner can create in root \n               makeSubFolderIn = rootNodeId;\n              \n            targetNode = addFolder(makeSubFolderIn, folder);\n         }\n         emit KeyValueSetFolder(targetNode, folder);\n         \n         return setKeyValue(targetNode, key, value);\n    }\n    function setKeyValue(bytes32 nodeId, bytes32 key, bytes32 value) public returns (bool) {\n         if(!canWrite(nodeId, msg.sender)) // no read permission for parent\n           return false;\n         \n         Node storage node = Nodes[nodeId];\n         bytes32 folder = getFolder(nodeId);\n         if(node.valuesMap[key] == 0x0) // no such value yet\n         {\n            node.keys.push(key);\n            node.values.push(value); \n            node.valuesMap[key] = value;\n            keyFolderValues[key][folder].push(value);\n            emit KeyValueSet(nodeId, key, value);\n            return true; \n         } \n         \n         keyFolderValues[key][folder].push(value);\n         return false;\n     }\n    ///////////////////////////////////////////////////////////////////////////////////////////       \n    \n    ///////////////////////////////////////////////////////////////////////////////////////////\n    // getKeys \n    function getKeys(bytes32 nodeId) view public returns (bytes32[] memory) {\n         bytes32[] memory ret;\n         if(!canRead(nodeId, msg.sender)) return ret;\n\n         return Nodes[nodeId].keys;\n     }\n    // get num keys\n    function getKeysCount(bytes32 nodeId) view public returns (uint) {\n         if(!canRead(nodeId, msg.sender)) return 0;\n             \n         return Nodes[nodeId].keys.length;\n     }\n    // get key at\n    function getKeyAt(bytes32 nodeId, uint index) view public returns (bytes32) {\n         if(!canRead(nodeId, msg.sender)) return 0x0;\n             \n         return Nodes[nodeId].keys[index];\n     }\n     \n    /////////////////////////////////////////////////////////////////////////////////////////// \n    // getValues \n    function getValue(bytes32 nodeId, bytes32 key) public view returns (bytes32) {\n         if(!canRead(nodeId, msg.sender)) return 0x0;\n             \n         return Nodes[nodeId].valuesMap[key];\n    }\n    // get num values\n    function getValuesCount(bytes32 nodeId) view public returns (uint) {\n         if(!canRead(nodeId, msg.sender)) return 0;\n             \n         return Nodes[nodeId].values.length;\n     }\n    // get value at  \n    function getValueAt(bytes32 nodeId, uint index) view public returns (bytes32) {\n         if(!canRead(nodeId, msg.sender)) return 0x0;\n             \n         return Nodes[nodeId].values[index];\n     }\n    \n    ///////////////////////////////////////////////////////////////////////////////////////////\n    // overwrite in folder with new sender and new feed\n    function overwriteKey(bytes32 nodeId, uint index, bytes32 key, bytes32 newValue) public returns (bool) {\n        if(!canOverwrite(nodeId, msg.sender)) return false;\n        \n        Node storage node = Nodes[nodeId];\n        if(index<node.values.length) // no such feed yet\n        {\n            bytes32 prevKey = node.keys[index]; // where is previous\n            node.valuesMap[prevKey] = 0x0; // set it to null \n            \n            node.keys[index] = key;\n            node.values[index] = newValue; \n            node.valuesMap[key] = newValue; //\n            bytes32 folder = getFolder(nodeId);\n            keyFolderValues[key][folder].push(newValue);\n            \n            emit OverwriteKeyValue(nodeId,index,key,newValue);\n            return true;\n        }        \n        return false;\n     }\n    // remove key\n    function removeKeyAt(bytes32 nodeId, uint256 index) public returns (bool) {\n         if(!canWrite(nodeId, msg.sender)) return false; \n         \n         Node storage node = Nodes[nodeId];\n         \n         bytes32 atKey = node.keys[index];\n         bytes32 preValue = node.values[index];\n         require(atKey!=0x0); // node has no sender at index \n         \n         node.valuesMap[atKey] = 0x0; // clear sender         \n         \n         node.keys[index] = node.keys[node.keys.length-1];\n         delete node.keys[node.keys.length-1];\n         node.keys.length--;\n         \n         node.values[index] = node.values[node.values.length-1];\n         delete node.values[node.values.length-1];\n         node.values.length--;\n         \n         emit RemoveKeyValue(nodeId, index, atKey, preValue);\n         return true;\n    }\n    \n    ///////////////////////////////////////////////////////////////////////////////////////////      \n    function getNodeId(bytes32 folder) view public returns (bytes32) { // will get protocol node address\n         bytes32 nodeId = folderNodes[folder];\n         if(nodeId==0) // does not exist\n         {\n            if(!canRead(rootNodeId, msg.sender)) \n               return 0x0;        \n            else     \n               return rootNodeId;\n         }        \n\n         return folderNodes[folder];\n    }\n    ///////////////////////////////////////////////////////////////////////////////////////////      \n    function getFolderIndex(bytes32 folder) view public returns (uint256) { // will get protocol node address\n         return folderIndex[folder];\n     }\n    // get folder by nodeId\n    function getFolder(bytes32 nodeId) view public returns (bytes32) {\n         \n         if(nodeIdToFolder[nodeId]==0) // does not exist\n         {\n            if(!canRead(rootNodeId, msg.sender)) \n                return 0x0;        \n            else     \n                return rootNodeId;\n         }        \n         \n         if(!canRead(nodeId, msg.sender)) return 0x0;           \n         return nodeIdToFolder[nodeId];\n     }\n\n    // ONLY OWNERS CAN ACCESS COMPLETE INFORMATION\n    ///////////////////////////////////////////////////////////////////////////////////////////      \n    // get all values ever, chronologically, never gets deleted, only added\n    function getFolderValuesForAKey(bytes32 folder, bytes32 key) onlyOwner view public returns (bytes32[] memory) {\n       return keyFolderValues[key][folder];\n    }\n     \n    ///////////////////////////////////////////////////////////////////////////////////////////      \n    function getAllFolders() onlyOwner view public returns (bytes32[] memory) { // get all folder\n     return folders;\n    }     \n    function getAllFoldersCount() onlyOwner view public returns (uint256) { // get num of folder\n     return folders.length;\n    }\n    function getFolderAt(uint256 idx) onlyOwner view public returns (bytes32) { // get folder by idx\n     return folders[idx];\n    }\n    ///////////////////////////////////////////////////////////////////////////////////////////\n    \n    // fallback function to accept ETH into contract.\n    function () external payable { }\n    // allow owner to remove funds  \n    function removeFunds() onlyOwner public {\n        owner.transfer(address(this).balance);\n    }    \n}\n\ncontract Multibox is Owned\n{\n    uint version;\n    bool public initialized=false; \n    // addresses of roots     \n    KeyValueTree[] roots; \n    \n    event Initialized();\n    event RootCreated(KeyValueTree);\n    event RootAdded(KeyValueTree);\n    event RootFailedNoOwner(address sender, address  owner);\n    event RootRemoved(uint256);\n    event RootRevoked(uint256);\n    event FundsRemoved(uint256);\n    \n    event AccessRequested(address, Multibox, KeyValueTree, bytes32);\n    event AccessRequestFail(address, Multibox, KeyValueTree, bytes32 nodeId, bool canOwnerWrite);\n    event AccessRequestFailNotOwner(address kvtOwner, address multiboxOwner); \n    event AccessGiven(address, address to);\n    \n    constructor() public {\n        version = 1;\n        initialized=false;\n    }\n    \n    function init() public returns (KeyValueTree) {\n        KeyValueTree a; \n        if(!initialized)\n            a = createRoot(owner);\n        \n        if(!initialized) \n           emit Initialized(); \n           \n        initialized=true;\n        return a;\n    }\n    \n    // any one can create new root, but ownership will belong to owner of multibox, \n    // while r/w of shared node can be set to whoHasReadWriteRights\n    function createRoot(address whoHasReadWriteRights) public returns (KeyValueTree) {\n        KeyValueTree kvt = new KeyValueTree(owner);\n        if(!initialized)\n          kvt.setNodeAccess(kvt.getShared(), whoHasReadWriteRights, 3); // first root shared node can anyone write to, but can't read from\n        else \n          kvt.setNodeAccess(kvt.getShared(), whoHasReadWriteRights, 2); // whoHasReadWriteRights r/w \n          \n        emit RootCreated(kvt);  \n        return addRoot(kvt);\n    }\n    function getRoots() public view returns (KeyValueTree[] memory) {\n        return roots;\n    }\n    function getRootsCount() public view returns (uint256) {\n        return roots.length;\n    }\n    function getRootAt(uint256 index) public view returns (KeyValueTree) {\n        return roots[index];\n    }\n    // others can add KeyValueTrees (but need to set access rights by themselfs)\n    function addRoot(KeyValueTree kvt) public returns (KeyValueTree) {\n        \n        if(kvt.owner() != msg.sender) // not owner of tree? can't move then \n        {\n            emit RootFailedNoOwner(msg.sender, kvt.owner());\n            return KeyValueTree(0x0);\n        }\n\n        roots.push(kvt);\n        emit RootAdded(kvt);  \n        return kvt;\n    }\n    // owner can remove any root except 0 \n    function removeRoot(uint256 index) onlyOwner public returns (uint256) {\n        if(index==0) return 0; // fail cant NEVER remove root\n        \n        roots[index] = roots[roots.length-1];\n        delete roots[roots.length-1];\n        roots.length--;\n        emit RootRemoved(index);\n        return roots.length;\n    }\n    // others can remove their trees \n    function revokeRoot(uint256 index) public returns (uint256) {\n        KeyValueTree kvt = roots[index];\n         \n        if(index==0) return 0; // fail cant NEVER remove root\n        if(kvt.owner() == msg.sender) // not owner of tree? can't move then \n           return 0;\n        \n        roots[index] = roots[roots.length-1];\n        delete roots[roots.length-1];\n        roots.length--;\n        emit RootRevoked(index);\n        return roots.length;\n    }\n    \n    // fallback function to accept ETH into contract.\n    function () external payable {\n    }\n    // allow owner to remove funds  \n    function removeFunds() onlyOwner public {\n        emit FundsRemoved(address(this).balance);\n        owner.transfer(address(this).balance);\n    }\n    \n    // ok so maybe this should be on Multibox level, multibox,kvt, nodeId\n    DataRequestEscrow[] accessRequests;\n    mapping(address => uint256) accessRequestsIndex; // map of folder to index (+1)\n    \n    function requestAccess(KeyValueTree kvt, bytes32 nodeId) public returns(DataRequestEscrow)\n    {\n        DataRequestEscrow dr;\n        bool canWrite = kvt.canWrite(nodeId, owner);\n        if(kvt.owner()!=this.owner())\n        {\n            emit AccessRequestFailNotOwner(kvt.owner(), this.owner());\n            return dr;\n        }\n        if(canWrite)\n        {\n            dr = new DataRequestEscrow(msg.sender, this, kvt, nodeId); \n            accessRequestsIndex[address(dr)] = accessRequests.push(dr);\n            emit AccessRequested(msg.sender, this, kvt, nodeId);\n            return dr;\n        }\n        \n        emit AccessRequestFail(msg.sender, this, kvt, nodeId, canWrite);\n        return dr;\n    }\n    function allowAccess(DataRequestEscrow dr) public onlyOwner \n    {\n        uint256 index = accessRequestsIndex[address(dr)];\n        if(index!=0) \n        {\n            if(dr.approve())\n            {\n                emit AccessGiven(address(dr), dr.whoRequester());\n                \n                accessRequestsIndex[address(dr)] = 0;\n                \n                accessRequests[index-1] = accessRequests[accessRequests.length-1];\n                delete accessRequests[accessRequests.length-1];\n                accessRequests.length--;\n                \n                dr.finalize(); // destroy contract, funds are moved to multibox.owner\n            }\n        }\n        dr.denyApproval();\n    }\n    function amountAvailable(DataRequestEscrow dr) public view returns(uint balance)\n    {\n        return address(dr).balance;\n    }\n}\n\n// kvt, nodeid\n// what we want: we want to assure that if addr1 gives data to addr2, addr2 will really pay \n// like escrow:\n// 1. alice request data kvt,nodeid(,key,value) from bob\n// 2. bob sets price\n// 3. alice pays price to escrow\n// 4. bob transfers knt,nodeid,key,value to alice\n// 5. bob takes the money\n\ncontract DataRequestEscrow {\n    Multibox multibox;\n    KeyValueTree kvt; \n    bytes32 nodeId; \n\n    address payable requester;\n\n    modifier onlyOwnerMultibox() {\n        require(msg.sender == multibox.owner());\n        _;\n    }\n    \n    constructor(address payable whoIsRequesting, Multibox mb, KeyValueTree keyValueTree, bytes32 targetNodeId) public\n    {\n        requester = whoIsRequesting;\n        multibox = mb;\n        kvt = keyValueTree;\n        nodeId = targetNodeId;\n    }\n\n    function deposit() external payable {\n        require(msg.sender==requester);\n        require(msg.value > 0);\n    }\n    \n    function whoRequester() onlyOwnerMultibox public view returns(address payable)\n    {\n        return requester;\n    }\n\n    function approve() onlyOwnerMultibox external returns (bool) {\n        if(kvt.isNode(nodeId))\n        {\n            int readRights = kvt.setNodeAccess(nodeId, requester, 1); // give read permission \n            if(readRights==1) {\n               return true;\n            }\n        }\n        return false;\n    }\n    function finalize() onlyOwnerMultibox external \n    {\n        selfdestruct(multibox.owner()); // this failed, give funds back\n    }\n    function denyApproval() onlyOwnerMultibox external \n    {\n        selfdestruct(requester); // this failed, give funds back\n    }\n    function abortApproval() external \n    {\n        require(msg.sender==requester);\n        selfdestruct(requester); // this failed, give funds back\n    }\n}",
  "sourcePath": "C:/Users/tex/source/repos/FairDataSociety/multibox/contracts/Multibox.sol",
  "compiler": {
    "name": "solc",
    "version": "0.5.0+commit.1d4f565a.Emscripten.clang"
  },
  "schemaVersion": "3.0.6",
  "updatedAt": "2019-05-10T15:57:10.434Z",
  "devdoc": {
    "methods": {}
  },
  "userdoc": {
    "methods": {}
  }
}