{
  "contractName": "Multibox",
  "abi": [
    {
      "constant": true,
      "inputs": [],
      "name": "owner",
      "outputs": [
        {
          "name": "",
          "type": "address"
        }
      ],
      "payable": false,
      "stateMutability": "view",
      "type": "function"
    },
    {
      "inputs": [],
      "payable": false,
      "stateMutability": "nonpayable",
      "type": "constructor"
    },
    {
      "payable": true,
      "stateMutability": "payable",
      "type": "fallback"
    },
    {
      "constant": false,
      "inputs": [
        {
          "name": "_newOwner",
          "type": "address"
        }
      ],
      "name": "changeOwner",
      "outputs": [],
      "payable": false,
      "stateMutability": "nonpayable",
      "type": "function"
    },
    {
      "constant": false,
      "inputs": [],
      "name": "init",
      "outputs": [
        {
          "name": "",
          "type": "address"
        }
      ],
      "payable": false,
      "stateMutability": "nonpayable",
      "type": "function"
    },
    {
      "constant": false,
      "inputs": [
        {
          "name": "whoHasReadWriteRights",
          "type": "address"
        }
      ],
      "name": "createRoot",
      "outputs": [
        {
          "name": "",
          "type": "address"
        }
      ],
      "payable": false,
      "stateMutability": "nonpayable",
      "type": "function"
    },
    {
      "constant": true,
      "inputs": [],
      "name": "getRoots",
      "outputs": [
        {
          "name": "",
          "type": "address[]"
        }
      ],
      "payable": false,
      "stateMutability": "view",
      "type": "function"
    },
    {
      "constant": true,
      "inputs": [],
      "name": "getRootsCount",
      "outputs": [
        {
          "name": "",
          "type": "uint256"
        }
      ],
      "payable": false,
      "stateMutability": "view",
      "type": "function"
    },
    {
      "constant": true,
      "inputs": [
        {
          "name": "index",
          "type": "uint256"
        }
      ],
      "name": "getRootAt",
      "outputs": [
        {
          "name": "",
          "type": "address"
        }
      ],
      "payable": false,
      "stateMutability": "view",
      "type": "function"
    },
    {
      "constant": false,
      "inputs": [
        {
          "name": "kvt",
          "type": "address"
        }
      ],
      "name": "addRoot",
      "outputs": [
        {
          "name": "",
          "type": "address"
        }
      ],
      "payable": false,
      "stateMutability": "nonpayable",
      "type": "function"
    },
    {
      "constant": false,
      "inputs": [
        {
          "name": "index",
          "type": "uint256"
        }
      ],
      "name": "removeRoot",
      "outputs": [
        {
          "name": "",
          "type": "uint256"
        }
      ],
      "payable": false,
      "stateMutability": "nonpayable",
      "type": "function"
    },
    {
      "constant": false,
      "inputs": [
        {
          "name": "index",
          "type": "uint256"
        }
      ],
      "name": "revokeRoot",
      "outputs": [
        {
          "name": "",
          "type": "uint256"
        }
      ],
      "payable": false,
      "stateMutability": "nonpayable",
      "type": "function"
    },
    {
      "constant": false,
      "inputs": [],
      "name": "removeFunds",
      "outputs": [],
      "payable": false,
      "stateMutability": "nonpayable",
      "type": "function"
    },
    {
      "constant": false,
      "inputs": [
        {
          "name": "kvt",
          "type": "address"
        },
        {
          "name": "nodeId",
          "type": "bytes32"
        }
      ],
      "name": "requestAccess",
      "outputs": [
        {
          "name": "",
          "type": "address"
        }
      ],
      "payable": false,
      "stateMutability": "nonpayable",
      "type": "function"
    },
    {
      "constant": false,
      "inputs": [
        {
          "name": "dr",
          "type": "address"
        }
      ],
      "name": "allowAccess",
      "outputs": [],
      "payable": false,
      "stateMutability": "nonpayable",
      "type": "function"
    },
    {
      "constant": true,
      "inputs": [
        {
          "name": "dr",
          "type": "address"
        }
      ],
      "name": "amountAvailable",
      "outputs": [
        {
          "name": "balance",
          "type": "uint256"
        }
      ],
      "payable": false,
      "stateMutability": "view",
      "type": "function"
    }
  ],
  "bytecode": "0x608060405234801561001057600080fd5b5060008054600160a060020a03191633179055613872806100326000396000f3fe608060405260043610620000c55763ffffffff60e060020a60003504166322fb78a98114620000c75780633466fda5146200011a57806335a5e06d146200015a57806338af30b014620001c45780638da5cb5b14620001f25780639423fc6e146200020a5780639c60b07e1462000222578063a57ae0dc1462000259578063a6f9dae11462000296578063c4a85bc114620002cd578063c7fb2dc71462000304578063da8bb7c71462000332578063e1c7392a1462000369578063feac51f51462000381575b005b348015620000d457600080fd5b50620000fe60048036036020811015620000ed57600080fd5b5035600160a060020a031662000399565b60408051600160a060020a039092168252519081900360200190f35b3480156200012757600080fd5b5062000148600480360360208110156200014057600080fd5b503562000602565b60408051918252519081900360200190f35b3480156200016757600080fd5b50620001726200077e565b60408051602080825283518183015283519192839290830191858101910280838360005b83811015620001b057818101518382015260200162000196565b505050509050019250505060405180910390f35b348015620001d157600080fd5b506200014860048036036020811015620001ea57600080fd5b5035620007e3565b348015620001ff57600080fd5b50620000fe620008bb565b3480156200021757600080fd5b5062000148620008ca565b3480156200022f57600080fd5b5062000148600480360360208110156200024857600080fd5b5035600160a060020a0316620008d0565b3480156200026657600080fd5b50620000fe600480360360408110156200027f57600080fd5b50600160a060020a038135169060200135620008dd565b348015620002a357600080fd5b50620000c560048036036020811015620002bc57600080fd5b5035600160a060020a031662000b71565b348015620002da57600080fd5b50620000c560048036036020811015620002f357600080fd5b5035600160a060020a031662000bab565b3480156200031157600080fd5b50620000fe600480360360208110156200032a57600080fd5b503562000dcd565b3480156200033f57600080fd5b50620000fe600480360360208110156200035857600080fd5b5035600160a060020a031662000dfa565b3480156200037657600080fd5b50620000fe62000ed7565b3480156200038e57600080fd5b50620000c562000f05565b600080548190600160a060020a0316620003b262000f5c565b600160a060020a03909116815260405190819003602001906000f080158015620003e0573d6000803e3d6000fd5b506001549091501515620004f15780600160a060020a03166390d1040e82600160a060020a031663bfbd3c1f6040518163ffffffff1660e060020a02815260040160206040518083038186803b1580156200043a57600080fd5b505afa1580156200044f573d6000803e3d6000fd5b505050506040513d60208110156200046657600080fd5b50516040805160e060020a63ffffffff85160281526004810192909252600160a060020a0387166024830152600360448301525160648083019260209291908290030181600087803b158015620004bc57600080fd5b505af1158015620004d1573d6000803e3d6000fd5b505050506040513d6020811015620004e857600080fd5b50620005ee9050565b80600160a060020a03166390d1040e82600160a060020a031663bfbd3c1f6040518163ffffffff1660e060020a02815260040160206040518083038186803b1580156200053d57600080fd5b505afa15801562000552573d6000803e3d6000fd5b505050506040513d60208110156200056957600080fd5b50516040805160e060020a63ffffffff85160281526004810192909252600160a060020a0387166024830152600260448301525160648083019260209291908290030181600087803b158015620005bf57600080fd5b505af1158015620005d4573d6000803e3d6000fd5b505050506040513d6020811015620005eb57600080fd5b50505b620005f98162000dfa565b9150505b919050565b6000806001838154811015156200061557fe5b600091825260209091200154600160a060020a031690508215156200063f576000915050620005fd565b33600160a060020a031681600160a060020a0316638da5cb5b6040518163ffffffff1660e060020a02815260040160206040518083038186803b1580156200068657600080fd5b505afa1580156200069b573d6000803e3d6000fd5b505050506040513d6020811015620006b257600080fd5b5051600160a060020a03161415620006cf576000915050620005fd565b600180546000198101908110620006e257fe5b60009182526020909120015460018054600160a060020a0390921691859081106200070957fe5b60009182526020909120018054600160a060020a031916600160a060020a03929092169190911790556001805460001981019081106200074557fe5b60009182526020909120018054600160a060020a031916905560018054906200077390600019830162000f6d565b505060015492915050565b60606001805480602002602001604051908101604052809291908181526020018280548015620007d857602002820191906000526020600020905b8154600160a060020a03168152600190910190602001808311620007b9575b505050505090505b90565b60008054600160a060020a03163314620007fc57600080fd5b8115156200080d57506000620005fd565b6001805460001981019081106200082057fe5b60009182526020909120015460018054600160a060020a0390921691849081106200084757fe5b60009182526020909120018054600160a060020a031916600160a060020a03929092169190911790556001805460001981019081106200088357fe5b60009182526020909120018054600160a060020a03191690556001805490620008b190600019830162000f6d565b5050600154919050565b600054600160a060020a031681565b60015490565b600160a060020a03163190565b60008054604080517f8f1ac17500000000000000000000000000000000000000000000000000000000815260048101859052600160a060020a03928316602482015290518392839290871691638f1ac17591604480820192602092909190829003018186803b1580156200095057600080fd5b505afa15801562000965573d6000803e3d6000fd5b505050506040513d60208110156200097c57600080fd5b5051604080517f8da5cb5b00000000000000000000000000000000000000000000000000000000815290519192503091638da5cb5b91600480820192602092909190829003018186803b158015620009d357600080fd5b505afa158015620009e8573d6000803e3d6000fd5b505050506040513d6020811015620009ff57600080fd5b5051604080517f8da5cb5b0000000000000000000000000000000000000000000000000000000081529051600160a060020a0392831692881691638da5cb5b916004808301926020929190829003018186803b15801562000a5f57600080fd5b505afa15801562000a74573d6000803e3d6000fd5b505050506040513d602081101562000a8b57600080fd5b5051600160a060020a03161462000aa55750905062000b6b565b801562000b67573330868662000aba62000f99565b600160a060020a039485168152928416602084015292166040808301919091526060820192909252905190819003608001906000f08015801562000b02573d6000803e3d6000fd5b506002805460018101918290557f405787fa12a823e0f2b7631cc41b3ba8828b3321ca811111fa75cd3aa3bb5ace018054600160a060020a031916600160a060020a038416908117909155600090815260036020526040902055925062000b6b915050565b5090505b92915050565b600054600160a060020a0316331462000b8957600080fd5b60008054600160a060020a031916600160a060020a0392909216919091179055565b600054600160a060020a0316331462000bc357600080fd5b600160a060020a038116600090815260036020526040902054801562000d715781600160a060020a03166312424e3f6040518163ffffffff1660e060020a028152600401602060405180830381600087803b15801562000c2257600080fd5b505af115801562000c37573d6000803e3d6000fd5b505050506040513d602081101562000c4e57600080fd5b50511562000d7157600160a060020a03821660009081526003602052604081205560028054600019810190811062000c8257fe5b60009182526020909120015460028054600160a060020a0390921691600019840190811062000cad57fe5b60009182526020909120018054600160a060020a031916600160a060020a039290921691909117905560028054600019810190811062000ce957fe5b60009182526020909120018054600160a060020a0319169055600280549062000d1790600019830162000f6d565b5081600160a060020a0316634bb278f36040518163ffffffff1660e060020a028152600401600060405180830381600087803b15801562000d5757600080fd5b505af115801562000d6c573d6000803e3d6000fd5b505050505b81600160a060020a031663e60955946040518163ffffffff1660e060020a028152600401600060405180830381600087803b15801562000db057600080fd5b505af115801562000dc5573d6000803e3d6000fd5b505050505050565b600060018281548110151562000ddf57fe5b600091825260209091200154600160a060020a031692915050565b600033600160a060020a031682600160a060020a0316638da5cb5b6040518163ffffffff1660e060020a02815260040160206040518083038186803b15801562000e4357600080fd5b505afa15801562000e58573d6000803e3d6000fd5b505050506040513d602081101562000e6f57600080fd5b5051600160a060020a03161462000e8957506000620005fd565b506001805480820182556000919091527fb10e2d527612073b26eecdfd717e6a320cf44b4afac2b0732d9fcbe2b7fa0cf6018054600160a060020a031916600160a060020a03831617905590565b6001546000908190151562000f005760005462000efd90600160a060020a031662000399565b90505b905090565b600054600160a060020a0316331462000f1d57600080fd5b60008054604051600160a060020a0390911691303180156108fc02929091818181858888f1935050505015801562000f59573d6000803e3d6000fd5b50565b6040516122298062000fcc83390190565b81548183558181111562000f945760008381526020902062000f9491810190830162000faa565b505050565b60405161065280620031f583390190565b620007e091905b8082111562000fc7576000815560010162000fb1565b509056fe60806040523480156200001157600080fd5b5060405160208062002229833981018060405260208110156200003357600080fd5b505160008054600160a060020a031916600160a060020a03831617815562000085907fc7f5bbf5fe95923f0691c94f666ac3dfed12456cd33bd018e7620c3d93edd5a6640100000000620000c9810204565b6007819055620000bf907f23e642b7242469a5e3184a6566020c815689149967703a98c0affc14b9ca9b286401000000006200020c810204565b6008555062000675565b6000620000df8364010000000062000368810204565b158015620000ed5750600083115b15620000f857600080fd5b506040805160208082018590526c010000000000000000000000003302828401524360548301526074808301859052835180840390910181526094909201909252805191012062000148620005d1565b6040810184905260018152600084111562000178576200017284836401000000006200037d810204565b60208201525b6000828152600560208181526040928390208451815460ff191690151517815584820151600182015592840151600284015560608401518051859493620001c59390850192019062000605565b5060808201518051620001e391600684019160209091019062000605565b5060a082015180516200020191600784019160209091019062000605565b505050505b92915050565b600082620002238164010000000062000368810204565b15156200022f57506007545b620002448133640100000000620003a3810204565b15156200025057506008545b600083815260036020526040902054801562000299576200027b8133640100000000620003a3810204565b15156200028f575060009150620002069050565b9150620002069050565b620002ae82336401000000006200048e810204565b1515620002c2575060009150620002069050565b6000620002d98386640100000000620000c9810204565b600086815260036020908152604080832084905560018054808201918290557fb10e2d527612073b26eecdfd717e6a320cf44b4afac2b0732d9fcbe2b7fa0cf6018a905560028352818420558383526004909152812087905554909150600160a060020a031633146200035f576200035d8133600264010000000062000558810204565b505b95945050505050565b60009081526005602052604090205460ff1690565b600091825260056020908152604083206007018054600181018255908452922082015590565b6000620003b98364010000000062000368810204565b1515620003c95750600062000206565b600160a060020a038216331415620003e45750600162000206565b6000838152600560209081526040808320600160a060020a0386168452600381019092529091205460001914156200042157600091505062000206565b6000808052600380830160205260409091205414156200044657600091505062000206565b600080805260038201602052604081205413156200046957600191505062000206565b600160a060020a03831660009081526003909101602052604081205413905092915050565b6000620004a48364010000000062000368810204565b1515620004b45750600062000206565b600160a060020a038216331415620004cf5750600162000206565b6000838152600560209081526040808320600160a060020a0386168452600381019092529091205460001914156200050c57600091505062000206565b6000808052600382016020526040902054600112156200053157600191505062000206565b600160a060020a038316600090815260039091016020526040902054600112905092915050565b60008054600160a060020a03848116911614156200057957506002620005ca565b6200058e84336401000000006200048e810204565b15156200059f5750600019620005ca565b506000838152600560209081526040808320600160a060020a03861684526003019091529020819055805b9392505050565b6040805160c0810182526000808252602082018190529181019190915260608082018190526080820181905260a082015290565b82805482825590600052602060002090810192821562000643579160200282015b828111156200064357825182559160200191906001019062000626565b506200065192915062000655565b5090565b6200067291905b808211156200065157600081556001016200065c565b90565b611ba480620006856000396000f3fe6080604052600436106101cb5763ffffffff7c01000000000000000000000000000000000000000000000000000000006000350416628614ff81146101cd5780632947ef381461020f5780634d9b3735146102245780635ba5342a1461023957806362ecbd351461024e57806362fbdb761461029b578063640a7f88146102b057806369732f92146102da57806372965b301461030457806375a2cdde146103345780637b01127c146103b45780638da5cb5b146103e45780638f1ac1751461041557806390993ff51461044e57806390d1040e14610484578063a09e3d0a146104c3578063a24fa791146104ed578063a60efc6514610517578063a6c6429a14610541578063a6f9dae114610556578063aa1f833614610589578063ae4c6161146105b3578063b1cfda88146105dd578063b7471dd014610613578063bfbd3c1f14610643578063c62aa67d14610658578063cd98de8514610682578063ceef5f02146106bb578063cf25611e14610704578063d37684ff14610734578063d4c602f11461075e578063d98111ae1461078e578063de57971b146107a3578063f12a796b146107d3578063f3634c6d146107fd578063f7fed31314610827578063fa801644146108ea575b005b3480156101d957600080fd5b506101fd600480360360408110156101f057600080fd5b5080359060200135610926565b60408051918252519081900360200190f35b34801561021b57600080fd5b506101fd610957565b34801561023057600080fd5b506101cb61095e565b34801561024557600080fd5b506101fd6109b3565b34801561025a57600080fd5b506102876004803603604081101561027157600080fd5b5080359060200135600160a060020a03166109b9565b604080519115158252519081900360200190f35b3480156102a757600080fd5b506101fd610a6e565b3480156102bc57600080fd5b506101fd600480360360208110156102d357600080fd5b5035610a74565b3480156102e657600080fd5b506101fd600480360360208110156102fd57600080fd5b5035610aa7565b34801561031057600080fd5b506101fd6004803603604081101561032757600080fd5b5080359060200135610ab9565b34801561034057600080fd5b506103646004803603604081101561035757600080fd5b5080359060200135610af0565b60408051602080825283518183015283519192839290830191858101910280838360005b838110156103a0578181015183820152602001610388565b505050509050019250505060405180910390f35b3480156103c057600080fd5b506101fd600480360360408110156103d757600080fd5b5080359060200135610b73565b3480156103f057600080fd5b506103f9610baf565b60408051600160a060020a039092168252519081900360200190f35b34801561042157600080fd5b506102876004803603604081101561043857600080fd5b5080359060200135600160a060020a0316610bbe565b34801561045a57600080fd5b506102876004803603606081101561047157600080fd5b5080359060208101359060400135610c75565b34801561049057600080fd5b506101fd600480360360608110156104a757600080fd5b50803590600160a060020a036020820135169060400135610cca565b3480156104cf57600080fd5b506101fd600480360360208110156104e657600080fd5b5035610d31565b3480156104f957600080fd5b506102876004803603602081101561051057600080fd5b5035610d46565b34801561052357600080fd5b506101fd6004803603602081101561053a57600080fd5b5035610d5b565b34801561054d57600080fd5b50610364610d8c565b34801561056257600080fd5b506101cb6004803603602081101561057957600080fd5b5035600160a060020a0316610dfc565b34801561059557600080fd5b506101fd600480360360208110156105ac57600080fd5b5035610e42565b3480156105bf57600080fd5b50610364600480360360208110156105d657600080fd5b5035610e7a565b3480156105e957600080fd5b506102876004803603606081101561060057600080fd5b5080359060208101359060400135610ef8565b34801561061f57600080fd5b506101fd6004803603604081101561063657600080fd5b5080359060200135610fe7565b34801561064f57600080fd5b506101fd61101f565b34801561066457600080fd5b506101fd6004803603602081101561067b57600080fd5b5035611025565b34801561068e57600080fd5b50610287600480360360408110156106a557600080fd5b5080359060200135600160a060020a0316611075565b3480156106c757600080fd5b506106eb600480360360408110156106de57600080fd5b508035906020013561114b565b6040805192835260208301919091528051918290030190f35b34801561071057600080fd5b506102876004803603604081101561072757600080fd5b50803590602001356111cc565b34801561074057600080fd5b506103646004803603602081101561075757600080fd5b5035611320565b34801561076a57600080fd5b506102876004803603604081101561078157600080fd5b5080359060200135611385565b34801561079a57600080fd5b506101fd6114cd565b3480156107af57600080fd5b506101fd600480360360408110156107c657600080fd5b50803590602001356114ec565b3480156107df57600080fd5b50610287600480360360208110156107f657600080fd5b50356115fd565b34801561080957600080fd5b506101fd6004803603602081101561082057600080fd5b5035611710565b34801561083357600080fd5b506108516004803603602081101561084a57600080fd5b5035611773565b604051808060200180602001838103835285818151815260200191508051906020019060200280838360005b8381101561089557818101518382015260200161087d565b50505050905001838103825284818151815260200191508051906020019060200280838360005b838110156108d45781810151838201526020016108bc565b5050505090500194505050505060405180910390f35b3480156108f657600080fd5b506102876004803603608081101561090d57600080fd5b508035906020810135906040810135906060013561185f565b600082815260056020526040812060070180548390811061094357fe5b906000526020600020015490505b92915050565b6007545b90565b600054600160a060020a0316331461097557600080fd5b60008054604051600160a060020a0390911691303180156108fc02929091818181858888f193505050501580156109b0573d6000803e3d6000fd5b50565b60075481565b60006109c483610d46565b15156109d257506000610951565b600160a060020a0382163314156109eb57506001610951565b6000838152600560209081526040808320600160a060020a038616845260038101909252909120546000191415610a26576000915050610951565b600080805260038281016020526040909120541315610a49576001915050610951565b600160a060020a03831660009081526003918201602052604090205413905092915050565b60085481565b6000610a808233611075565b1515610a8e57506000610aa2565b506000818152600560205260409020600601545b919050565b60009081526002602052604090205490565b6000610ac58333611075565b1515610ad357506000610951565b600083815260056020526040902060060180548390811061094357fe5b600054606090600160a060020a03163314610b0a57600080fd5b600082815260066020908152604080832086845282529182902080548351818402810184019094528084529091830182828015610b6657602002820191906000526020600020905b815481526020019060010190808311610b52575b5050505050905092915050565b6000610b7f8333611075565b1515610b8d57506000610951565b5060009182526005602090815260408084209284526004909201905290205490565b600054600160a060020a031681565b6000610bc983610d46565b1515610bd757506000610951565b600160a060020a038216331415610bf057506001610951565b6000838152600560209081526040808320600160a060020a038616845260038101909252909120546000191415610c2b576000915050610951565b600080805260038201602052604090205460011215610c4e576001915050610951565b600160a060020a038316600090815260039091016020526040902054600112905092915050565b600083815260036020526040812054801515610cb457600854600054600160a060020a0316331415610ca657506007545b610cb081876114ec565b9150505b610cbf818585610ef8565b9150505b9392505050565b60008054600160a060020a0384811691161415610ce957506002610cc3565b610cf38433610bbe565b1515610d025750600019610cc3565b506000928352600560209081526040808520600160a060020a0394909416855260039093019052912081905590565b60009081526005602052604090206007015490565b60009081526005602052604090205460ff1690565b6000610d678233611075565b1515610d7557506000610aa2565b506000908152600560208190526040909120015490565b600054606090600160a060020a03163314610da657600080fd5b6001805480602002602001604051908101604052809291908181526020018280548015610df257602002820191906000526020600020905b815481526020019060010190808311610dde575b5050505050905090565b600054600160a060020a03163314610e1357600080fd5b6000805473ffffffffffffffffffffffffffffffffffffffff1916600160a060020a0392909216919091179055565b60008054600160a060020a03163314610e5a57600080fd5b6001805483908110610e6857fe5b90600052602060002001549050919050565b606080610e878333611075565b1515610e94579050610aa2565b60008381526005602081815260409283902090910180548351818402810184019094528084529091830182828015610eeb57602002820191906000526020600020905b815481526020019060010190808311610ed7575b5050505050915050919050565b6000610f048433610bbe565b1515610f1257506000610cc3565b600084815260056020526040812090610f2a86611710565b60008681526004840160205260409020549091501515610fb257600582018054600181810183556000928352602080842090920188905560068086018054808401825590855283852001889055888452600490950182526040808420889055948252848320938352928152928120805480840182559082529290209091018390559050610cc3565b600094855260066020908152604080872092875291815290852080546001810182559086529085200192909255509092915050565b6000610ff38333611075565b151561100157506000610951565b60008381526005602081905260409091200180548390811061094357fe5b60085490565b6000818152600360205260408120548015156110615761104760075433611075565b1515611057575060009050610aa2565b5050600754610aa2565b505060009081526003602052604090205490565b600061108083610d46565b151561108e57506000610951565b600160a060020a0382163314156110a757506001610951565b6000838152600560209081526040808320600160a060020a0386168452600381019092529091205460001914156110e2576000915050610951565b600080805260038083016020526040909120541415611105576000915050610951565b60008080526003820160205260408120541315611126576001915050610951565b600160a060020a03831660009081526003909101602052604081205413905092915050565b6000806111588433611075565b1515611169575060009050806111c5565b60008481526005602081905260409091200180548490811061118757fe5b906000526020600020015460056000868152602001908152602001600020600601848154811015156111b557fe5b9060005260206000200154915091505b9250929050565b60006111d88333610bbe565b15156111e657506000610951565b6000838152600560208190526040822090810180549192918590811061120857fe5b600091825260209091200154905080151561122257600080fd5b6000818152600483016020526040812055600582018054600019810190811061124757fe5b9060005260206000200154826005018581548110151561126357fe5b600091825260209091200155600582018054600019810190811061128357fe5b6000918252602082200155600582018054906112a3906000198301611ab6565b5060068201805460001981019081106112b857fe5b906000526020600020015482600601858154811015156112d457fe5b60009182526020909120015560068201805460001981019081106112f457fe5b600091825260208220015560068201805490611314906000198301611ab6565b50600195945050505050565b60008181526005602090815260409182902060070180548351818402810184019094528084526060939283018282801561137957602002820191906000526020600020905b815481526020019060010190808311611365575b50505050509050919050565b60006113918333610bbe565b151561139f57506000610951565b60008381526005602052604090206007810180546113d39190859081106113c257fe5b906000526020600020015433610bbe565b15156113e3576000915050610951565b60078101805460001981019160009160059183918590811061140157fe5b90600052602060002001548152602001908152602001600020600101549050826007018281548110151561143157fe5b9060005260206000200154836007018681548110151561144d57fe5b6000918252602090912001556007830180548390811061146957fe5b600091825260208220015560078301805490611489906000198301611ab6565b50806005600085600701858154811015156114a057fe5b90600052602060002001548152602001908152602001600020600101819055506001935050505092915050565b60008054600160a060020a031633146114e557600080fd5b5060015490565b6000826114f881610d46565b151561150357506007545b61150d8133611075565b151561151857506008545b6000838152600360205260409020548015611552576115378133611075565b15156115495750600091506109519050565b91506109519050565b61155c8233610bbe565b151561156e5750600091506109519050565b600061157a838661196f565b600086815260036020908152604080832084905560018054808201918290557fb10e2d527612073b26eecdfd717e6a320cf44b4afac2b0732d9fcbe2b7fa0cf6018a905560028352818420558383526004909152812087905554909150600160a060020a031633146115f4576115f281336002610cca565b505b95945050505050565b60006116098233610bbe565b151561161757506000610aa2565b600082815260046020526040902054801515611637576000915050610aa2565b6000838152600560205260409020600281015460018201546116599190611385565b1561170657600082815260026020526040902054801561170457600083815260036020908152604080832083905560029091528120556001805460001981019081106116a157fe5b90600052602060002001546001828154811015156116bb57fe5b6000918252602090912001556001805460001981019081106116d957fe5b600091825260208220015560018054906116f7906000198301611ab6565b5060019350505050610aa2565b505b5060009392505050565b60008181526004602052604081205415156117485761173160075433611075565b151561173f57506000610aa2565b50600754610aa2565b6117528233611075565b151561176057506000610aa2565b5060009081526004602052604090205490565b60608060606117828433611075565b151561179257915081905061185a565b600084815260056020818152604092839020909101805483518184028101840190945280845290918301828280156117e957602002820191906000526020600020905b8154815260200190600101908083116117d5575b505050505092506005600085815260200190815260200160002060060180548060200260200160405190810160405280929190818152602001828054801561185057602002820191906000526020600020905b81548152602001906001019080831161183c575b5093955050505050505b915091565b600061186b85336109b9565b151561187957506000611967565b6000858152600560205260409020600681015485101561196157600081600501868154811015156118a657fe5b60009182526020808320909101548083526004850190915260408220919091556005830180549192508691889081106118db57fe5b90600052602060002001819055508382600601878154811015156118fb57fe5b6000918252602080832090910192909255868152600484019091526040812085905561192688611710565b600087815260066020908152604080832093835292815291812080546001818101835591835292909120909101869055935061196792505050565b60009150505b949350505050565b600061197a83610d46565b1580156119875750600083115b1561199157600080fd5b506040805160208082018590526c01000000000000000000000000330282840152436054830152607480830185905283518084039091018152609490920190925280519101206119df611adf565b60408101849052600181526000841115611a03576119fd8483611a90565b60208201525b6000828152600560208181526040928390208451815460ff191690151517815584820151600182015592840151600284015560608401518051859493611a4e93908501920190611b13565b5060808201518051611a6a916006840191602090910190611b13565b5060a08201518051611a86916007840191602090910190611b13565b5050505092915050565b600091825260056020908152604083206007018054600181018255908452922082015590565b815481835581811115611ada57600083815260209020611ada918101908301611b5e565b505050565b6040805160c0810182526000808252602082018190529181019190915260608082018190526080820181905260a082015290565b828054828255906000526020600020908101928215611b4e579160200282015b82811115611b4e578251825591602001919060010190611b33565b50611b5a929150611b5e565b5090565b61095b91905b80821115611b5a5760008155600101611b6456fea165627a7a723058208a468e26626b4ae28cd9c9b9bdc7a4e514c4c2a3b99a0a85e706ca9138e6a2910029608060405234801561001057600080fd5b506040516080806106528339810180604052608081101561003057600080fd5b5080516020820151604083015160609093015160038054600160a060020a0319908116600160a060020a03958616179091556000805482169385169390931783556001805490911693909416929092179092556002556105bc90819061009690396000f3fe60806040526004361061005e5763ffffffff60e060020a6000350416630205217e8114610063578063043b04961461009457806312424e3f146100ab5780634bb278f3146100d4578063d0e30db0146100e9578063e6095594146100f1575b600080fd5b34801561006f57600080fd5b50610078610106565b60408051600160a060020a039092168252519081900360200190f35b3480156100a057600080fd5b506100a96101a9565b005b3480156100b757600080fd5b506100c06101ce565b604080519115158252519081900360200190f35b3480156100e057600080fd5b506100a96103c3565b6100a96104da565b3480156100fd57600080fd5b506100a9610500565b60008060009054906101000a9004600160a060020a0316600160a060020a0316638da5cb5b6040518163ffffffff1660e060020a02815260040160206040518083038186803b15801561015857600080fd5b505afa15801561016c573d6000803e3d6000fd5b505050506040513d602081101561018257600080fd5b5051600160a060020a0316331461019857600080fd5b50600354600160a060020a03165b90565b600354600160a060020a031633146101c057600080fd5b600354600160a060020a0316ff5b60008060009054906101000a9004600160a060020a0316600160a060020a0316638da5cb5b6040518163ffffffff1660e060020a02815260040160206040518083038186803b15801561022057600080fd5b505afa158015610234573d6000803e3d6000fd5b505050506040513d602081101561024a57600080fd5b5051600160a060020a0316331461026057600080fd5b600154600254604080517fa24fa791000000000000000000000000000000000000000000000000000000008152600481019290925251600160a060020a039092169163a24fa79191602480820192602092909190829003018186803b1580156102c857600080fd5b505afa1580156102dc573d6000803e3d6000fd5b505050506040513d60208110156102f257600080fd5b5051156103bd5760018054600254600354604080517f90d1040e0000000000000000000000000000000000000000000000000000000081526004810193909352600160a060020a03918216602484015260448301949094529251600093909216916390d1040e9160648082019260209290919082900301818787803b15801561037a57600080fd5b505af115801561038e573d6000803e3d6000fd5b505050506040513d60208110156103a457600080fd5b5051905060018114156103bb5760019150506101a6565b505b50600090565b6000809054906101000a9004600160a060020a0316600160a060020a0316638da5cb5b6040518163ffffffff1660e060020a02815260040160206040518083038186803b15801561041357600080fd5b505afa158015610427573d6000803e3d6000fd5b505050506040513d602081101561043d57600080fd5b5051600160a060020a0316331461045357600080fd5b6000809054906101000a9004600160a060020a0316600160a060020a0316638da5cb5b6040518163ffffffff1660e060020a02815260040160206040518083038186803b1580156104a357600080fd5b505afa1580156104b7573d6000803e3d6000fd5b505050506040513d60208110156104cd57600080fd5b5051600160a060020a0316ff5b600354600160a060020a031633146104f157600080fd5b600034116104fe57600080fd5b565b6000809054906101000a9004600160a060020a0316600160a060020a0316638da5cb5b6040518163ffffffff1660e060020a02815260040160206040518083038186803b15801561055057600080fd5b505afa158015610564573d6000803e3d6000fd5b505050506040513d602081101561057a57600080fd5b5051600160a060020a031633146101c057600080fdfea165627a7a72305820bad46670dd36ab4801b84185cae7c1bb6ae80fd728b67a98e703b3f211fd2cf50029a165627a7a723058201490960d678901280d42d039764d2555289f8f0914c8242ed9bcbecbac064bc50029",
  "source": "/* This Source Code Form is subject to the terms of the Mozilla Public\n * License, v. 2.0. If a copy of the MPL was not distributed with this\n * file, You can obtain one at http://mozilla.org/MPL/2.0/.\n *\n * This code has not been reviewed.\n * Do not use or deploy this code before reviewing it personally first.\n */\n\n/*\n  so how we tackle access rights? \n  upon creation root is pupulated with common folders, \n  Initial folder structure is mapped \n     root      = newFolder(0); // the root of all, onlyOwner c7f5bbf5fe95923f0691c94f666ac3dfed12456cd33bd018e7620c3d93edd5a6\n     shared    = addFolder(root, 0x23e642b7242469a5e3184a6566020c815689149967703a98c0affc14b9ca9b28); // only those that was shared with\n     dataReceipt  = addFolder(root, 0x1d261cf1849d7042d71f91ae5de9f8e1102f872f83bef6add64509a927939609); // only owner r/w or those shared with\n     incoming  = addFolder(root, 0xe723d028f3a255c87f4d0ff2d83c484a5a279f9791d3fbd87348df86ad478196); // unknown can add, but not read\n     common    = addFolder(root, 0xf7c93b517d753615c49ea5b8b1ea3d75e9d75be99691bcf066226dc260a704be); // everyone r, owner w             \n     temporary = addFolder(root, 0xc96eea3628fe2bbedfaf37cbf7a7c196aa346555e7b0dd60cea44a5319b17945); // everyone r/w   \n*/\n/*\n      privatenodeId      = addFolder(rootNodeId, 0x69ebce02fbffacce50622356b97cc93a78f17feb5bf8e8ccacbdb7032e3162dc); // none can r/w\n      publicnodeId       = addFolder(rootNodeId, 0x7e00625d1d39ffe13a119d9085848880ad5ccd078e38677f3a705653326d44ed); \n      unrestrainednodeId = addFolder(rootNodeId, 0xd0e98c61c165756dc6a3294835afbb596b332b2a27061c997163e623939c6cc0); \n      \n      setNodeAccess(publicnodeId, address(0x0), 1); // everyone can read, but not write\n      setNodeAccess(sharedNodeId, address(0x0), 3); // unknown can add, but not read \n      setNodeAccess(unrestrainednodeId, address(0x0), 2); // all can read all can write\n*/\n\n// DONE: prepare events, to enable them replace all //! with \"\" \n// TODO: method to move key/value from nodeId to new nodeId \n// TODO: add nodeId from other kvt, if its possible to do cross-contract node sharing ...  else write additional contract to hold shared data \n//\n\n pragma solidity ^0.5.0;\n /*\n removed and integrated to reduce gas cost\n contract Owned {\n    address payable public owner;\n    modifier onlyOwner() {\n        require(msg.sender == owner);\n        _;\n    }\n    /// @notice The Constructor assigns the message sender to be `owner`\n    constructor () public { owner = msg.sender; }\n    function changeOwner(address payable _newOwner) public onlyOwner { owner = _newOwner; }\n}*/\n\ncontract KeyValueTree {\n    address payable public owner;\n    modifier onlyOwner() {\n        require(msg.sender == owner);\n        _;\n    }\n    function changeOwner(address payable _newOwner) public onlyOwner { owner = _newOwner; }\n\n    bytes32[] folders; // all folder roots\n    mapping(bytes32 => uint256) folderIndex; // map of folder to index (starts with 1, not 0!!)\n    mapping(bytes32 => bytes32) internal folderNodes; // map of folder to nodeId\n    mapping(bytes32 => bytes32) internal nodeIdToFolder; // nodeIds to protocol \n    mapping(bytes32 => Node) internal Nodes; // nodeId to node\n    \n    mapping(bytes32 => mapping(bytes32 => bytes32[])) internal keyFolderValues; // feeds by sender by folder\n    \n    // AccessRights\n    // contains 0x0 = 1, everyone can read/write\n    // contains 0x0 = 1, everyone can read/write\n    // contains 0x0 = 0, none onlyOwner\n    // contains address = -1, address is forbiden to \n    // contains address =  0, address is forbiden to \n    // contains address =  1, address can read\n    // contains address =  2, address can read/write\n    // contains address =  3, address can write but can not read\n    // contains address =  4, address can overwrite existing address feed \n    struct Node {\n        bool      isNode;\n        uint      index;\n        bytes32   parent;\n        // consider putting protocol info in a node \n        mapping(address => int) canAccess;\n        mapping(bytes32 => bytes32) valuesMap;\n        bytes32[] keys;\n        bytes32[] values;\n        bytes32[] children;  // child nodes\n    }\n    \n   //!event NodeAdded(bytes32);\n   //!event NodeRemovedChild(uint256);\n   //!event NodeAddChild(bytes32);\n   //!event NodeAccessChange(bytes32,address,int);\n   //!event NodeDelete(bytes32 nodeId, bytes32 folder);\n   //!event AddFolder(bytes32 nodeId, bytes32 folder);\n   //!event KeyValueSet(bytes32 nodeId, bytes32 key, bytes32 value);\n   //!event KeyValueSetFolder(bytes32 nodeId, bytes32 folder);\n   //!event OverwriteKeyValue(bytes32 nodeId, uint256 index, bytes32 key, bytes32 value);\n   //!event RemoveKeyValue(bytes32 nodeId, uint256 index, bytes32 key, bytes32 value);\n    \n    function isNode(bytes32 nodeId) public view returns(bool)  {\n        return Nodes[nodeId].isNode;\n    }\n    function getChildCount(bytes32 nodeId) public view returns(uint childCount) {\n        return Nodes[nodeId].children.length;\n    }\n    function getChildAt(bytes32 nodeId, uint index) public view returns(bytes32 childId) {\n        return Nodes[nodeId].children[index];\n    }\n    function getChildren(bytes32 nodeId) public view returns(bytes32[] memory childrenodeId) {\n        return Nodes[nodeId].children;\n    }\n    function removeChildAt(bytes32 nodeId, uint256 index) public returns (bool) {\n         // removes children node from nodeId, not best way as it does reordering \n         if(!canWrite(nodeId, msg.sender)) return false;  // can write to node that is supposed to be deleted?\n\n         Node storage node = Nodes[nodeId];\n         \n         if(!canWrite(node.children[index], msg.sender)) return false; // can write to node that is supposed to be deleted?\n         \n         uint last = node.children.length-1; // last child in the list\n         uint idx = Nodes[node.children[last]].index;\n         \n         node.children[index] = node.children[last];\n         delete node.children[last];\n         node.children.length--;\n         \n         Nodes[node.children[last]].index = idx; // swap index\n         \n         //!emit NodeRemovedChild(index);\n         return true;\n    }    \n    function addNode(bytes32 nodeId, bytes32 folder) internal returns(bytes32 newId) {\n        if(!isNode(nodeId) && nodeId > 0) revert(); // zero is a new root node\n        newId = keccak256(abi.encodePacked(nodeId, msg.sender, block.number, folder));\n\n        Node memory node;\n        node.parent = nodeId;\n        node.isNode = true;\n        \n        if(nodeId>0) {\n            node.index = addChild(nodeId,newId);\n        }\n        \n        Nodes[newId] = node;\n        //!emit NodeAdded(newId);\n        return newId;\n    }\n    function addChild(bytes32 nodeId, bytes32 childId) private returns(uint index) {\n        //!emit NodeAddChild(childId);\n        return Nodes[nodeId].children.push(childId) - 1;\n    }\n    \n    // should these be public, or private? and accessed through methods that also check accessRights ? \n    bytes32 public rootNodeId; // root of tree\n    bytes32 public sharedNodeId; // incoming node id\n    \n    function getRootId() public view returns (bytes32) { return rootNodeId; }\n    function getSharedId() public view returns (bytes32) { return sharedNodeId; }\n    \n    // constructor\n    constructor(address payable _owner) public {\n      owner = _owner;         \n      rootNodeId         = addNode(0, 0xc7f5bbf5fe95923f0691c94f666ac3dfed12456cd33bd018e7620c3d93edd5a6); // the root of all, onlyOwner r/w  c7f5bbf5fe95923f0691c94f666ac3dfed12456cd33bd018e7620c3d93edd5a6\n      sharedNodeId       = addFolder(rootNodeId, 0x23e642b7242469a5e3184a6566020c815689149967703a98c0affc14b9ca9b28);\n      // setNodeAccess(sharedNodeId, address(0x0), 3); // unknown can add, but not read \n    }\n    \n    function setNodeAccess(bytes32 nodeId, address addr, int rights) /*onlyOwner*/ public returns (int) {\n       //if(msg.sender!=owner) return -1;\n       if(addr==owner) return 2; // owner always has r/w access, this is needed so one can not bloat mapping with owner address\n       if(!canWrite( nodeId, msg.sender)) return -1;\n\n       //!emit NodeAccessChange(nodeId,addr,rights);\n       Nodes[nodeId].canAccess[addr] = rights;\n       return rights;\n    }\n    function canRead(bytes32 nodeId, address addr) public view returns (bool) {\n         if(!isNode(nodeId)) return false;\n         if(addr==msg.sender) return true;\n         \n         Node storage n = Nodes[nodeId];\n         if(n.canAccess[addr] == -1)  return false;  //address is blacklisted \n         if(n.canAccess[address(0x0)] == 3) return false; //none can read\n         if(n.canAccess[address(0x0)] > 0)  return true;  //everyone can access\n         return n.canAccess[addr]>0;\n     }\n    function canWrite(bytes32 nodeId, address addr) public view returns (bool) {\n         if(!isNode(nodeId)) return false;\n         if(addr==msg.sender) return true;\n         \n         Node storage n = Nodes[nodeId];\n         if(n.canAccess[addr] == -1)  return false;  //address is blacklisted \n         if(n.canAccess[address(0x0)] > 1) return true; //everyone can write\n         return n.canAccess[addr]>1;\n     }\n    function canOverwrite(bytes32 nodeId, address addr) public view returns (bool) {\n         if(!isNode(nodeId)) return false;\n         if(addr==msg.sender) return true;\n         Node storage n = Nodes[nodeId];\n         \n         if(n.canAccess[addr] == -1)  return false;  //address is blacklisted \n         if(n.canAccess[address(0x0)] > 3) return true; //everyone can overwrite\n         return n.canAccess[addr] > 3; // yes you can overwrite\n     }\n    ///////////////////////////////////////////////////////////////////////////////////////////       \n    function deleteNode(bytes32 nodeId) public returns (bool) {\n        if(!canWrite(nodeId, msg.sender)) return false;\n        \n        bytes32 folder = nodeIdToFolder[nodeId];\n        if(folder==0x0) return false; // no mapping to folder\n\n        Node storage node = Nodes[nodeId];\n        if(removeChildAt(node.parent, node.index)) \n        {\n            uint256 index = folderIndex[folder]; \n            if(index!=0)\n            {\n                folderNodes[folder] = 0x0;\n                folderIndex[folder] = 0;\n        \n                folders[index] = folders[folders.length-1];\n                delete folders[folders.length-1];\n                folders.length--;\n                \n                //!emit NodeDelete(nodeId, folder);\n                return true;\n            }\n        }\n        return false;\n    }     \n     \n    // problem is that subFolder is added to folderNodes mapping\n    // this means subFolder can be only one and must be unique \n    // which in turn means that we can't have same subFolder in different parent protocols\n    // add subProtocol to parentProtocol (protocolnodeId)\n    // so if if parent is bin, then add subFolder as \"/bin/subFolderName\" \n    // returns nodeId of new subFolder or 0x0 if error \n    function addFolder(bytes32 parentnodeId, bytes32 subFolder) public returns (bytes32) {\n        bytes32 parentId = parentnodeId;\n        if(!isNode(parentId)) // parentNode is not a node, then write to root\n           parentId = rootNodeId;\n        \n        if(!canRead(parentId, msg.sender)) // no read permission for parent\n           parentId = sharedNodeId;\n\n        bytes32 subNode = folderNodes[subFolder]; // \"/bin\" -> hash\n        if(subNode != 0) // if subProtocol exists as protocol, then fail\n        {\n            if(!canRead(subNode, msg.sender)) // no read permission \n               return 0x0;\n               \n            return subNode;\n        }\n        \n        if(!canWrite(parentId, msg.sender)) // no write permission\n           return 0x0;\n        \n        bytes32 newnodeId = addNode(parentId, subFolder); // add child to parent\n\n        folderNodes[subFolder] = newnodeId; \n        folderIndex[subFolder] = folders.push(subFolder);\n        \n        nodeIdToFolder[newnodeId] = subFolder; // we need mapping to folder from nodeId\n        \n        //!emit AddFolder(newnodeId, subFolder);\n        \n        if(msg.sender!=owner)\n          setNodeAccess(newnodeId, msg.sender, 2); // give r/w access to creator of node\n           \n        return newnodeId; \n    }\n    ///////////////////////////////////////////////////////////////////////////////////////////      \n    // setKeyValue, will suceed only when no such key with value exist\n    function setKeyValueFolder(bytes32 folder, bytes32 key, bytes32 value) public returns (bool) {\n         bytes32 targetNode = folderNodes[folder];\n         \n         if(targetNode==0) {// folder does not exist in mapping to all folder\n            bytes32 makeSubFolderIn = sharedNodeId; // everything goes to incoming\n            if(msg.sender == owner) // owner can create in root \n               makeSubFolderIn = rootNodeId;\n              \n            targetNode = addFolder(makeSubFolderIn, folder);\n         }\n         //!emit KeyValueSetFolder(targetNode, folder);\n         \n         return setKeyValue(targetNode, key, value);\n    }\n    function setKeyValue(bytes32 nodeId, bytes32 key, bytes32 value) public returns (bool) {\n         if(!canWrite(nodeId, msg.sender)) // no read permission for parent\n           return false;\n         \n         Node storage node = Nodes[nodeId];\n         bytes32 folder = getFolder(nodeId);\n         if(node.valuesMap[key] == 0x0) // no such value yet\n         {\n            node.keys.push(key);\n            node.values.push(value); \n            node.valuesMap[key] = value;\n            keyFolderValues[key][folder].push(value);\n            //!emit KeyValueSet(nodeId, key, value);\n            return true; \n         } \n         \n         keyFolderValues[key][folder].push(value);\n         return false;\n     }\n    ///////////////////////////////////////////////////////////////////////////////////////////       \n\n    // getKeyValues \n    function getKeysValues(bytes32 nodeId) public view returns (bytes32[] memory keys,bytes32[] memory values) {\n         bytes32[] memory ret;\n         if(!canRead(nodeId, msg.sender)) return (ret,ret);\n             \n         keys =  Nodes[nodeId].keys;  \n         values = Nodes[nodeId].values;\n         return (keys, values);\n    }\n    // getKeyValueAt\n    function getKeyValueAt(bytes32 nodeId, uint index) public view returns (bytes32 key, bytes32 value) {\n         if(!canRead(nodeId, msg.sender)) return (0x0,0x0);\n             \n         return (Nodes[nodeId].keys[index],Nodes[nodeId].values[index]);\n    }\n    \n    ///////////////////////////////////////////////////////////////////////////////////////////\n    // getKeys \n    function getKeys(bytes32 nodeId) view public returns (bytes32[] memory) {\n         bytes32[] memory ret;\n         if(!canRead(nodeId, msg.sender)) return ret;\n\n         return Nodes[nodeId].keys;\n     }\n    // get num keys\n    function getKeysCount(bytes32 nodeId) view public returns (uint) {\n         if(!canRead(nodeId, msg.sender)) return 0;\n             \n         return Nodes[nodeId].keys.length;\n     }\n    // get key at\n    function getKeyAt(bytes32 nodeId, uint index) view public returns (bytes32) {\n         if(!canRead(nodeId, msg.sender)) return 0x0;\n             \n         return Nodes[nodeId].keys[index];\n     }\n     \n    /////////////////////////////////////////////////////////////////////////////////////////// \n    // getValues \n    function getValue(bytes32 nodeId, bytes32 key) public view returns (bytes32) {\n         if(!canRead(nodeId, msg.sender)) return 0x0;\n             \n         return Nodes[nodeId].valuesMap[key];\n    }\n    // get num values\n    function getValuesCount(bytes32 nodeId) view public returns (uint) {\n         if(!canRead(nodeId, msg.sender)) return 0;\n             \n         return Nodes[nodeId].values.length;\n     }\n    // get value at  \n    function getValueAt(bytes32 nodeId, uint index) view public returns (bytes32) {\n         if(!canRead(nodeId, msg.sender)) return 0x0;\n             \n         return Nodes[nodeId].values[index];\n     }\n    \n    ///////////////////////////////////////////////////////////////////////////////////////////\n    // overwrite in folder with new sender and new feed\n    function overwriteKey(bytes32 nodeId, uint index, bytes32 key, bytes32 newValue) public returns (bool) {\n        if(!canOverwrite(nodeId, msg.sender)) return false;\n        \n        Node storage node = Nodes[nodeId];\n        if(index<node.values.length) // no such feed yet\n        {\n            bytes32 prevKey = node.keys[index]; // where is previous\n            node.valuesMap[prevKey] = 0x0; // set it to null \n            \n            node.keys[index] = key;\n            node.values[index] = newValue; \n            node.valuesMap[key] = newValue; //\n            bytes32 folder = getFolder(nodeId);\n            keyFolderValues[key][folder].push(newValue);\n            \n            //!emit OverwriteKeyValue(nodeId,index,key,newValue);\n            return true;\n        }        \n        return false;\n     }\n    // remove key\n    function removeKeyAt(bytes32 nodeId, uint256 index) public returns (bool) {\n         if(!canWrite(nodeId, msg.sender)) return false; \n         \n         Node storage node = Nodes[nodeId];\n         \n         bytes32 atKey = node.keys[index];\n         //bytes32 preValue = node.values[index];\n         require(atKey!=0x0); // node has no sender at index \n         \n         node.valuesMap[atKey] = 0x0; // clear sender         \n         \n         node.keys[index] = node.keys[node.keys.length-1];\n         delete node.keys[node.keys.length-1];\n         node.keys.length--;\n         \n         node.values[index] = node.values[node.values.length-1];\n         delete node.values[node.values.length-1];\n         node.values.length--;\n         \n         //!emit RemoveKeyValue(nodeId, index, atKey, preValue);\n         return true;\n    }\n    \n    ///////////////////////////////////////////////////////////////////////////////////////////      \n    function getNodeId(bytes32 folder) view public returns (bytes32) { // will get protocol node address\n         bytes32 nodeId = folderNodes[folder];\n         if(nodeId==0) // does not exist\n         {\n            if(!canRead(rootNodeId, msg.sender)) \n               return 0x0;        \n            else     \n               return rootNodeId;\n         }        \n\n         return folderNodes[folder];\n    }\n    ///////////////////////////////////////////////////////////////////////////////////////////      \n    function getFolderIndex(bytes32 folder) view public returns (uint256) { // will get protocol node address\n         return folderIndex[folder];\n     }\n    // get folder by nodeId\n    function getFolder(bytes32 nodeId) view public returns (bytes32) {\n         \n         if(nodeIdToFolder[nodeId]==0) // does not exist\n         {\n            if(!canRead(rootNodeId, msg.sender)) \n                return 0x0;        \n            else     \n                return rootNodeId;\n         }        \n         \n         if(!canRead(nodeId, msg.sender)) return 0x0;           \n         return nodeIdToFolder[nodeId];\n     }\n\n    // ONLY OWNERS CAN ACCESS COMPLETE INFORMATION\n    ///////////////////////////////////////////////////////////////////////////////////////////      \n    // get all values ever, chronologically, never gets deleted, only added\n    function getFolderValuesForAKey(bytes32 folder, bytes32 key) onlyOwner view public returns (bytes32[] memory) {\n       return keyFolderValues[key][folder];\n    }\n     \n    ///////////////////////////////////////////////////////////////////////////////////////////      \n    function getFolders() onlyOwner view public returns (bytes32[] memory) { // get all folder\n     return folders;\n    }     \n    function getFoldersCount() onlyOwner view public returns (uint256) { // get num of folder\n     return folders.length;\n    }\n    function getFolderAt(uint256 idx) onlyOwner view public returns (bytes32) { // get folder by idx\n     return folders[idx];\n    }\n    ///////////////////////////////////////////////////////////////////////////////////////////\n    \n    // fallback function to accept ETH into contract.\n    function () external payable { }\n    // allow owner to remove funds  \n    function getFunds() onlyOwner public {\n        owner.transfer(address(this).balance);\n    }    \n}\n\ncontract Multibox\n{\n    address payable public owner;\n    modifier onlyOwner() {\n        require(msg.sender == owner);\n        _;\n    }\n    function changeOwner(address payable _newOwner) public onlyOwner { owner = _newOwner; }\n    // addresses of roots     \n    KeyValueTree[] roots; \n    \n    //!event Initialized();\n    //!event RootCreated(KeyValueTree);\n    //!event RootAdded(KeyValueTree);\n    //!event RootFailedNoOwner(address sender, address  owner);\n    //!event RootRemoved(uint256);\n    //!event RootRevoked(uint256);\n    //!event FundsRemoved(uint256);\n    \n    //!event AccessRequested(address, Multibox, KeyValueTree, bytes32);\n    //!event AccessRequestFail(address, Multibox, KeyValueTree, bytes32 nodeId, bool canOwnerWrite);\n    //!event AccessRequestFailNotOwner(address kvtOwner, address multiboxOwner); \n    //!event AccessGiven(address, address to);\n    //!event AccessTerminated(address, address to);\n    \n    constructor() public {\n        //version = 1;\n        owner = msg.sender;\n    }\n    \n    function init() public returns (KeyValueTree) {\n        KeyValueTree a; \n        if(roots.length==0)//Initialized\n        {\n           a = createRoot(owner);\n           //!emit Initialized(); \n        }\n        return a;\n    }\n    \n    // any one can create new root, but ownership will belong to owner of multibox, \n    // while r/w of shared node can be set to whoHasReadWriteRights\n    function createRoot(address whoHasReadWriteRights) public returns (KeyValueTree) {\n        KeyValueTree kvt = new KeyValueTree(owner);\n        if(roots.length==0)\n          kvt.setNodeAccess(kvt.getSharedId(), whoHasReadWriteRights, 3); // first root shared node can anyone write to, but can't read from\n        else \n          kvt.setNodeAccess(kvt.getSharedId(), whoHasReadWriteRights, 2); // whoHasReadWriteRights r/w \n          \n        //!emit RootCreated(kvt);  \n        return addRoot(kvt);\n    }\n    function getRoots() public view returns (KeyValueTree[] memory) {\n        return roots;\n    }\n    function getRootsCount() public view returns (uint256) {\n        return roots.length;\n    }\n    function getRootAt(uint256 index) public view returns (KeyValueTree) {\n        return roots[index];\n    }\n    // others can add KeyValueTrees (but need to set access rights by themselfs)\n    function addRoot(KeyValueTree kvt) public returns (KeyValueTree) {\n        \n        if(kvt.owner() != msg.sender) // not owner of tree? can't move then \n        {\n            //!emit RootFailedNoOwner(msg.sender, kvt.owner());\n            return KeyValueTree(0x0);\n        }\n\n        roots.push(kvt);\n        //!emit RootAdded(kvt);  \n        return kvt;\n    }\n    // owner can remove any root except 0 \n    function removeRoot(uint256 index) onlyOwner public returns (uint256) {\n        if(index==0) return 0; // fail cant NEVER remove root\n        \n        roots[index] = roots[roots.length-1];\n        delete roots[roots.length-1];\n        roots.length--;\n        //!emit RootRemoved(index);\n        return roots.length;\n    }\n    // others can remove their trees \n    function revokeRoot(uint256 index) public returns (uint256) {\n        KeyValueTree kvt = roots[index];\n         \n        if(index==0) return 0; // fail cant NEVER remove root\n        if(kvt.owner() == msg.sender) // not owner of tree? can't move then \n           return 0;\n        \n        roots[index] = roots[roots.length-1];\n        delete roots[roots.length-1];\n        roots.length--;\n        //!emit RootRevoked(index);\n        return roots.length;\n    }\n    \n    // fallback function to accept ETH into contract.\n    function () external payable {\n    }\n    // allow owner to remove funds  \n    function removeFunds() onlyOwner public {\n        //!emit FundsRemoved(address(this).balance);\n        owner.transfer(address(this).balance);\n    }\n    \n    /*\n    struct DataRequest {\n        KeyValueTree kvt; \n        bytes32 nodeId; \n\n        address payable requester;\n        uint256 availableBalance;\n    }\n    DataRequest[] accessRequests;\n    mapping(bytes32 => uint256) accessRequestsIndex; // map of folder to index (+1)\n    uint256 reservedFunds;\n    \n    function requestAccess(KeyValueTree kvt, bytes32 nodeId) public returns(bytes32 newId)\n    {\n        bool canWrite = kvt.canWrite(nodeId, owner);\n        if(kvt.owner()!=this.owner())\n        {\n            //!emit AccessRequestFailNotOwner(kvt.owner(), this.owner());\n            return 0x0;\n        }\n        if(canWrite)\n        {\n            newId = keccak256(abi.encodePacked(nodeId, msg.sender, block.number, kvt));\n\n            DataRequest memory dr;\n            dr.kvt = kvt;\n            dr.nodeId = nodeId;\n            dr.requester = msg.sender;\n            accessRequestsIndex[newId] = accessRequests.push(dr);\n            //!emit AccessRequested(msg.sender, this, kvt, nodeId);\n            return newId;\n        }\n        \n        //!emit AccessRequestFail(msg.sender, this, kvt, nodeId, canWrite);\n        return 0x0;\n    }\n    \n    function depositFor(bytes32 requestId) external payable {\n        uint256 index = accessRequestsIndex[requestId];\n        require(index!=0);\n        require(msg.value > 0);\n        \n        DataRequest memory dr = accessRequests[index-1]; \n        require(msg.sender == dr.requester);\n        \n        dr.availableBalance += msg.value;\n    }\n    function terminateRequest(bytes32 requestId) external  // terminate request\n    {\n        uint256 index = accessRequestsIndex[requestId];\n        require(index!=0);\n        \n        DataRequest memory dr = accessRequests[index-1]; \n        require(msg.sender == dr.requester);\n        \n        if(dr.availableBalance>0)\n           dr.requester.transfer(dr.availableBalance);\n           \n        removeRequest(requestId); \n    }\n    function removeRequest(bytes32 requestId) public returns (bool)\n    {\n        uint256 index = accessRequestsIndex[requestId];\n        require(index!=0);\n        \n        DataRequest memory dr = accessRequests[index]; \n        if(msg.sender != dr.requester || msg.sender!=owner) return false;\n        //!emit AccessTerminated(address(dr), dr.whoRequester());\n                \n        accessRequestsIndex[requestId] = 0;\n        accessRequests[index-1] = accessRequests[accessRequests.length-1];\n        delete accessRequests[accessRequests.length-1];\n        accessRequests.length--;\n    }\n    function allowAccess(bytes32 dataRequestId) public onlyOwner returns (bool)\n    {\n        uint256 index = accessRequestsIndex[dataRequestId];\n        if(index!=0) \n        {\n            DataRequest memory dr = accessRequests[index]; \n            \n            if(dr.approve())\n            {\n                emit AccessGiven(address(dr), dr.whoRequester());\n                \n                accessRequestsIndex[address(dr)] = 0;\n                \n                accessRequests[index-1] = accessRequests[accessRequests.length-1];\n                delete accessRequests[accessRequests.length-1];\n                accessRequests.length--;\n                \n                dr.finalize(); // destroy contract, funds are moved to multibox.owner\n            }\n        }\n        //dr.denyApproval();\n        return false;\n    }\n    function amountAvailable(bytes32 dataRequestId) public view returns(uint256 balance)\n    {\n        uint256 index = accessRequestsIndex[dataRequestId];\n        if(index!=0)\n        {\n            DataRequest memory dr = accessRequests[index];\n            return dr.availableBalance;\n        }\n        return 0;\n    }\n    \n    */\n    \n    // ok so maybe this should be on Multibox level, multibox,kvt, nodeId\n    DataRequestEscrow[] accessRequests;\n    mapping(address => uint256) accessRequestsIndex; // map of folder to index (+1)\n    \n    function requestAccess(KeyValueTree kvt, bytes32 nodeId) public returns(DataRequestEscrow)\n    {\n        DataRequestEscrow dr;\n        bool canWrite = kvt.canWrite(nodeId, owner);\n        if(kvt.owner()!=this.owner())\n        {\n            //!emit AccessRequestFailNotOwner(kvt.owner(), this.owner());\n            return dr;\n        }\n        if(canWrite)\n        {\n            dr = new DataRequestEscrow(msg.sender, this, kvt, nodeId); \n            accessRequestsIndex[address(dr)] = accessRequests.push(dr);\n            //!emit AccessRequested(msg.sender, this, kvt, nodeId);\n            return dr;\n        }\n        \n        //!emit AccessRequestFail(msg.sender, this, kvt, nodeId, canWrite);\n        return dr;\n    }\n    function allowAccess(DataRequestEscrow dr) public onlyOwner \n    {\n        uint256 index = accessRequestsIndex[address(dr)];\n        if(index!=0) \n        {\n            if(dr.approve())\n            {\n                //emit AccessGiven(address(dr), dr.whoRequester());\n                accessRequestsIndex[address(dr)] = 0;\n                \n                accessRequests[index-1] = accessRequests[accessRequests.length-1];\n                delete accessRequests[accessRequests.length-1];\n                accessRequests.length--;\n                \n                dr.finalize(); // destroy contract, funds are moved to multibox.owner\n            }\n        }\n        dr.denyApproval();\n    }\n    function amountAvailable(DataRequestEscrow dr) public view returns(uint balance)\n    {\n        return address(dr).balance;\n    }\n    \n}\n\n// kvt, nodeId\n// what we want: we want to assure that if addr1 gives data to addr2, addr2 will really pay \n// like escrow:\n// 1. alice request data kvt,nodeId(,key,value) from bob\n// 2. bob sets price\n// 3. alice pays price to escrow\n// 4. bob transfers knt,nodeId,key,value to alice\n// 5. bob takes the money\n\n// this could be extended to buy/sell \ncontract DataRequestEscrow {\n    Multibox multibox;\n    KeyValueTree kvt; \n    bytes32 nodeId; \n\n    address payable requester;\n    modifier onlyOwnerMultibox() {\n        require(msg.sender == multibox.owner());\n        _;\n    }\n\n    constructor(address payable whoIsRequesting, Multibox mb, KeyValueTree keyValueTree, bytes32 targetnodeId) public\n    {\n        requester = whoIsRequesting;\n        multibox = mb;\n        kvt = keyValueTree;\n        nodeId = targetnodeId;\n    }\n\n    function deposit() external payable {\n        require(msg.sender==requester);\n        require(msg.value > 0);\n    }\n    \n    function whoIsRequester() onlyOwnerMultibox public view returns(address payable)\n    {\n        return requester;\n    }\n\n    function approve() onlyOwnerMultibox external returns (bool) {\n        if(kvt.isNode(nodeId))\n        {\n            int readRights = kvt.setNodeAccess(nodeId, requester, 1); // give read permission \n            if(readRights==1) {\n               return true;\n            }\n        }\n        return false;\n    }\n    function finalize() onlyOwnerMultibox external \n    {\n        selfdestruct(multibox.owner()); // this failed, give funds back\n    }\n    function denyApproval() onlyOwnerMultibox external \n    {\n        selfdestruct(requester); // this failed, give funds back\n    }\n    function abortRequest() external \n    {\n        require(msg.sender==requester);\n        selfdestruct(requester); // this failed, give funds back\n    }\n}\n",
  "sourcePath": "C:/Users/tex/source/repos/FairDataSociety/multibox/contracts/Multibox.sol",
  "compiler": {
    "name": "solc",
    "version": "0.5.0+commit.1d4f565a.Emscripten.clang"
  },
  "schemaVersion": "3.0.6",
  "updatedAt": "2019-05-12T22:00:21.258Z",
  "devdoc": {
    "methods": {}
  },
  "userdoc": {
    "methods": {}
  }
}