{
  "contractName": "Owned",
  "abi": [
    {
      "constant": true,
      "inputs": [],
      "name": "owner",
      "outputs": [
        {
          "name": "",
          "type": "address"
        }
      ],
      "payable": false,
      "stateMutability": "view",
      "type": "function"
    },
    {
      "inputs": [],
      "payable": false,
      "stateMutability": "nonpayable",
      "type": "constructor"
    },
    {
      "constant": false,
      "inputs": [
        {
          "name": "_newOwner",
          "type": "address"
        }
      ],
      "name": "changeOwner",
      "outputs": [],
      "payable": false,
      "stateMutability": "nonpayable",
      "type": "function"
    }
  ],
  "bytecode": "0x608060405234801561001057600080fd5b50336000806101000a81548173ffffffffffffffffffffffffffffffffffffffff021916908373ffffffffffffffffffffffffffffffffffffffff1602179055506101e8806100606000396000f3fe60806040526004361061004c576000357c0100000000000000000000000000000000000000000000000000000000900463ffffffff1680638da5cb5b14610051578063a6f9dae1146100a8575b600080fd5b34801561005d57600080fd5b506100666100f9565b604051808273ffffffffffffffffffffffffffffffffffffffff1673ffffffffffffffffffffffffffffffffffffffff16815260200191505060405180910390f35b3480156100b457600080fd5b506100f7600480360360208110156100cb57600080fd5b81019080803573ffffffffffffffffffffffffffffffffffffffff16906020019092919050505061011e565b005b6000809054906101000a900473ffffffffffffffffffffffffffffffffffffffff1681565b6000809054906101000a900473ffffffffffffffffffffffffffffffffffffffff1673ffffffffffffffffffffffffffffffffffffffff163373ffffffffffffffffffffffffffffffffffffffff1614151561017957600080fd5b806000806101000a81548173ffffffffffffffffffffffffffffffffffffffff021916908373ffffffffffffffffffffffffffffffffffffffff1602179055505056fea165627a7a72305820604e02a5148189c26baaf29008b5737c9690e25225b4d9717042180aaea348d50029",
  "source": "/* This Source Code Form is subject to the terms of the Mozilla Public\n * License, v. 2.0. If a copy of the MPL was not distributed with this\n * file, You can obtain one at http://mozilla.org/MPL/2.0/.\n *\n * This code has not been reviewed.\n * Do not use or deploy this code before reviewing it personally first.\n */\n\n/*\n  so how we tackle access rights? \n  upon creation root is pupulated with common folders, \n  Initial folder structure is mapped \n     root      = newFolder(0); // the root of all, onlyOwner c7f5bbf5fe95923f0691c94f666ac3dfed12456cd33bd018e7620c3d93edd5a6\n     shared    = addFolder(root, 0x23e642b7242469a5e3184a6566020c815689149967703a98c0affc14b9ca9b28); // only those that was shared with\n     dataReceipt  = addFolder(root, 0x1d261cf1849d7042d71f91ae5de9f8e1102f872f83bef6add64509a927939609); // only owner r/w or those shared with\n     incoming  = addFolder(root, 0xe723d028f3a255c87f4d0ff2d83c484a5a279f9791d3fbd87348df86ad478196); // unknown can add, but not read\n     common    = addFolder(root, 0xf7c93b517d753615c49ea5b8b1ea3d75e9d75be99691bcf066226dc260a704be); // everyone r, owner w             \n     temporary = addFolder(root, 0xc96eea3628fe2bbedfaf37cbf7a7c196aa346555e7b0dd60cea44a5319b17945); // everyone r/w   \n*/\n/*\n      privateNodeId      = addFolder(rootNodeId, 0x69ebce02fbffacce50622356b97cc93a78f17feb5bf8e8ccacbdb7032e3162dc); // none can r/w\n      publicNodeId       = addFolder(rootNodeId, 0x7e00625d1d39ffe13a119d9085848880ad5ccd078e38677f3a705653326d44ed); \n      unrestrainedNodeId = addFolder(rootNodeId, 0xd0e98c61c165756dc6a3294835afbb596b332b2a27061c997163e623939c6cc0); \n      \n      setNodeAccess(publicNodeId, address(0x0), 1); // everyone can read, but not write\n      setNodeAccess(sharedNodeId, address(0x0), 3); // unknown can add, but not read \n      setNodeAccess(unrestrainedNodeId, address(0x0), 2); // all can read all can write\n*/\n\n// DONE: prepare events, \n// TODO: method to move key/value from nodeId to new nodeId \n// TODO: add nodeId from other kvt, if its possible to do cross-contract node sharing ...  else write additional contract to hold shared data \n//\n\n pragma solidity ^0.5.0;\n contract Owned {\n    address payable public owner;\n    modifier onlyOwner() {\n        require(msg.sender == owner);\n        _;\n    }\n    /// @notice The Constructor assigns the message sender to be `owner`\n    constructor () public { owner = msg.sender; }\n    function changeOwner(address payable _newOwner) public onlyOwner { owner = _newOwner; }\n}\n\ncontract KeyValueTree is Owned {\n    mapping(bytes32 => bytes32) internal folderNodes; // map of folder to NodeId\n\n    mapping(bytes32 => uint256) folderIndex; // map of folder to index (starts with 1, not 0!!)\n    bytes32[] folders; // all folder roots\n\n    mapping(bytes32 => mapping(bytes32 => bytes32[])) internal keyFolderValues; // feeds by sender by folder\n    \n    // folder time to live (disapearing feeds / messages)\n    mapping(bytes32 => Node) internal Nodes; // NodeId to node\n    mapping(bytes32 => bytes32) internal nodeIdToFolder; // nodeIds to protocol \n\n    // AccessRights\n    // contains 0x0 = 1, everyone can read/write\n    // contains 0x0 = 1, everyone can read/write\n    // contains 0x0 = 0, none onlyOwner\n    // contains address = -1, address is forbiden to \n    // contains address =  0, address is forbiden to \n    // contains address =  1, address can read\n    // contains address =  2, address can read/write\n    // contains address =  3, address can write but can not read\n    // contains address =  4, address can overwrite existing address feed \n    struct Node {\n        bool      isNode;\n        bytes32   parent;\n        uint      index;\n        // consider putting protocol info in a node \n        mapping(address => int) canAccess;\n        \n        mapping(bytes32 => bytes32) valuesMap;\n        bytes32[] keys;\n        bytes32[] values;\n\n        // child nodes\n        bytes32[] children;  \n    }\n    \n    event NodeAdded(bytes32);\n    event NodeRemovedChild(uint256);\n    event NodeAddChild(bytes32);\n    event NodeAccessChange(bytes32,address,int);\n    event NodeDelete(bytes32 nodeId, bytes32 folder);\n    event AddFolder(bytes32 nodeId, bytes32 folder);\n    event KeyValueSet(bytes32 nodeId, bytes32 key, bytes32 value);\n    event KeyValueSetFolder(bytes32 nodeId, bytes32 folder);\n    event OverwriteKeyValue(bytes32 nodeId, uint256 index, bytes32 key, bytes32 value);\n    event RemoveKeyValue(bytes32 nodeId, uint256 index, bytes32 key, bytes32 value);\n    \n    function isNode(bytes32 nodeId) public view returns(bool)  {\n        return Nodes[nodeId].isNode;\n    }\n    function getNodeChildrenCount(bytes32 nodeId) public view returns(uint childCount) {\n        return Nodes[nodeId].children.length;\n    }\n    function getNodeChildAt(bytes32 nodeId, uint index) public view returns(bytes32 childId) {\n        return Nodes[nodeId].children[index];\n    }\n    function getNodeChildren(bytes32 nodeId) public view returns(bytes32[] memory childrenId) {\n        return Nodes[nodeId].children;\n    }\n    function removeChildAt(bytes32 nodeId, uint256 index) public returns (bool) {\n         // removes children node from nodeId, not best way as it does reordering \n         if(!canWrite(nodeId, msg.sender)) return false;  // can write to node that is supposed to be deleted?\n\n         Node storage node = Nodes[nodeId];\n         \n         if(!canWrite(node.children[index], msg.sender)) return false; // can write to node that is supposed to be deleted?\n         \n         uint last = node.children.length-1; // last child in the list\n         uint idx = Nodes[node.children[last]].index;\n         \n         node.children[index] = node.children[last];\n         delete node.children[last];\n         node.children.length--;\n         \n         Nodes[node.children[last]].index = idx; // swap index\n         \n         emit NodeRemovedChild(index);\n         return true;\n    }    \n    function addNode(bytes32 nodeId, bytes32 folder) internal returns(bytes32 newId) {\n        if(!isNode(nodeId) && nodeId > 0) revert(); // zero is a new root node\n        newId = keccak256(abi.encodePacked(nodeId, msg.sender, block.number, folder));\n\n        Node memory node;\n        node.parent = nodeId;\n        node.isNode = true;\n        \n        if(nodeId>0) {\n            node.index = addChildNode(nodeId,newId);\n        }\n        \n        Nodes[newId] = node;\n        emit NodeAdded(newId);\n        return newId;\n    }\n    function addChildNode(bytes32 nodeId, bytes32 childId) private returns(uint index) {\n        emit NodeAddChild(childId);\n        return Nodes[nodeId].children.push(childId) - 1;\n    }\n    \n    uint version;\n    // should these be public, or private? and accessed through methods that also check accessRights ? \n    bytes32 public rootNodeId; // root of tree\n    bytes32 public sharedNodeId; // incoming node id\n    \n    function getRoot() public view returns (bytes32) { return rootNodeId; }\n    function getShared() public view returns (bytes32) { return sharedNodeId; }\n    \n    // constructor\n    constructor(address payable _owner) public {\n      version = 1;\n      owner = _owner;         \n      rootNodeId         = addNode(0, 0xc7f5bbf5fe95923f0691c94f666ac3dfed12456cd33bd018e7620c3d93edd5a6); // the root of all, onlyOwner r/w  c7f5bbf5fe95923f0691c94f666ac3dfed12456cd33bd018e7620c3d93edd5a6\n      sharedNodeId       = addFolder(rootNodeId, 0x23e642b7242469a5e3184a6566020c815689149967703a98c0affc14b9ca9b28);\n      // setNodeAccess(sharedNodeId, address(0x0), 3); // unknown can add, but not read \n    }\n    \n    function getVersion() public view returns (uint) {\n         return version;\n     }\n    \n    function setNodeAccess(bytes32 nodeId, address addr, int rights) /*onlyOwner*/ public returns (int) {\n       //if(msg.sender!=owner) return -1;\n       if(addr==owner) return 2; // owner always has r/w access, this is needed so one can not bloat mapping with owner address\n       if(!canWrite( nodeId, msg.sender)) return -1;\n\n       emit NodeAccessChange(nodeId,addr,rights);\n       Nodes[nodeId].canAccess[addr] = rights;\n       return rights;\n    }\n    function canRead(bytes32 nodeId, address addr) public view returns (bool) {\n         if(!isNode(nodeId)) return false;\n         if(addr==msg.sender) return true;\n         \n         Node storage n = Nodes[nodeId];\n         if(n.canAccess[addr] == -1)  return false;  //address is blacklisted \n         if(n.canAccess[address(0x0)] == 3) return false; //none can read\n         if(n.canAccess[address(0x0)] > 0)  return true;  //everyone can access\n         return n.canAccess[addr]>0;\n     }\n    function canWrite(bytes32 nodeId, address addr) public view returns (bool) {\n         if(!isNode(nodeId)) return false;\n         if(addr==msg.sender) return true;\n         \n         Node storage n = Nodes[nodeId];\n         if(n.canAccess[addr] == -1)  return false;  //address is blacklisted \n         if(n.canAccess[address(0x0)] > 1) return true; //everyone can write\n         return n.canAccess[addr]>1;\n     }\n    function canOverwrite(bytes32 nodeId, address addr) public view returns (bool) {\n         if(!isNode(nodeId)) return false;\n         if(addr==msg.sender) return true;\n         Node storage n = Nodes[nodeId];\n         \n         if(n.canAccess[addr] == -1)  return false;  //address is blacklisted \n         if(n.canAccess[address(0x0)] > 3) return true; //everyone can overwrite\n         return n.canAccess[addr] > 3; // yes you can overwrite\n     }\n    ///////////////////////////////////////////////////////////////////////////////////////////       \n    function deleteNode(bytes32 nodeId) public returns (bool) {\n        if(!canWrite(nodeId, msg.sender)) return false;\n        \n        bytes32 folder = nodeIdToFolder[nodeId];\n        if(folder==0x0) return false; // no mapping to folder\n\n        Node storage node = Nodes[nodeId];\n        if(removeChildAt(node.parent, node.index)) \n        {\n            uint256 index = folderIndex[folder]; \n            if(index!=0)\n            {\n                folderNodes[folder] = 0x0;\n                folderIndex[folder] = 0;\n        \n                folders[index] = folders[folders.length-1];\n                delete folders[folders.length-1];\n                folders.length--;\n                \n                emit NodeDelete(nodeId, folder);\n                return true;\n            }\n        }\n        return false;\n    }     \n     \n    // problem is that subFolder is added to folderNodes mapping\n    // this means subFolder can be only one and must be unique \n    // which in turn means that we can't have same subFolder in different parent protocols\n    // add subProtocol to parentProtocol (protocolNodeId)\n    // so if if parent is bin, then add subFolder as \"/bin/subFolderName\" \n    // returns nodeId of new subFolder or 0x0 if error \n    function addFolder(bytes32 parentNodeId, bytes32 subFolder) public returns (bytes32) {\n        bytes32 parentId = parentNodeId;\n        if(!isNode(parentId)) // parentNode is not a node, then write to root\n           parentId = rootNodeId;\n        \n        if(!canRead(parentId, msg.sender)) // no read permission for parent\n           parentId = sharedNodeId;\n\n        bytes32 subNode = folderNodes[subFolder]; // \"/bin\" -> hash\n        if(subNode != 0) // if subProtocol exists as protocol, then fail\n        {\n            if(!canRead(subNode, msg.sender)) // no read permission \n               return 0x0;\n               \n            return subNode;\n        }\n        \n        if(!canWrite(parentId, msg.sender)) // no write permission\n           return 0x0;\n        \n        bytes32 newNodeId = addNode(parentId, subFolder); // add child to parent\n\n        folderNodes[subFolder] = newNodeId; \n        folderIndex[subFolder] = folders.push(subFolder);\n        \n        nodeIdToFolder[newNodeId] = subFolder; // we need mapping to folder from nodeId\n        \n        emit AddFolder(newNodeId, subFolder);\n        \n        if(msg.sender!=owner)\n          setNodeAccess(newNodeId, msg.sender, 2); // give r/w access to creator of node\n           \n        return newNodeId; \n    }\n    ///////////////////////////////////////////////////////////////////////////////////////////      \n    // setKeyValue, will suceed only when no such key with value exist\n    function setKeyValueFolder(bytes32 folder, bytes32 key, bytes32 value) public returns (bool) {\n         bytes32 targetNode = folderNodes[folder];\n         \n         if(targetNode==0) {// folder does not exist in mapping to all folder\n            bytes32 makeSubFolderIn = sharedNodeId; // everything goes to incoming\n            if(msg.sender == owner) // owner can create in root \n               makeSubFolderIn = rootNodeId;\n              \n            targetNode = addFolder(makeSubFolderIn, folder);\n         }\n         emit KeyValueSetFolder(targetNode, folder);\n         \n         return setKeyValue(targetNode, key, value);\n    }\n    function setKeyValue(bytes32 nodeId, bytes32 key, bytes32 value) public returns (bool) {\n         if(!canWrite(nodeId, msg.sender)) // no read permission for parent\n           return false;\n         \n         Node storage node = Nodes[nodeId];\n         bytes32 folder = getFolder(nodeId);\n         if(node.valuesMap[key] == 0x0) // no such value yet\n         {\n            node.keys.push(key);\n            node.values.push(value); \n            node.valuesMap[key] = value;\n            keyFolderValues[key][folder].push(value);\n            emit KeyValueSet(nodeId, key, value);\n            return true; \n         } \n         \n         keyFolderValues[key][folder].push(value);\n         return false;\n     }\n    ///////////////////////////////////////////////////////////////////////////////////////////       \n    \n    ///////////////////////////////////////////////////////////////////////////////////////////\n    // getKeys \n    function getKeys(bytes32 nodeId) view public returns (bytes32[] memory) {\n         bytes32[] memory ret;\n         if(!canRead(nodeId, msg.sender)) return ret;\n\n         return Nodes[nodeId].keys;\n     }\n    // get num keys\n    function getKeysCount(bytes32 nodeId) view public returns (uint) {\n         if(!canRead(nodeId, msg.sender)) return 0;\n             \n         return Nodes[nodeId].keys.length;\n     }\n    // get key at\n    function getKeyAt(bytes32 nodeId, uint index) view public returns (bytes32) {\n         if(!canRead(nodeId, msg.sender)) return 0x0;\n             \n         return Nodes[nodeId].keys[index];\n     }\n     \n    /////////////////////////////////////////////////////////////////////////////////////////// \n    // getValues \n    function getValue(bytes32 nodeId, bytes32 key) public view returns (bytes32) {\n         if(!canRead(nodeId, msg.sender)) return 0x0;\n             \n         return Nodes[nodeId].valuesMap[key];\n    }\n    // get num values\n    function getValuesCount(bytes32 nodeId) view public returns (uint) {\n         if(!canRead(nodeId, msg.sender)) return 0;\n             \n         return Nodes[nodeId].values.length;\n     }\n    // get value at  \n    function getValueAt(bytes32 nodeId, uint index) view public returns (bytes32) {\n         if(!canRead(nodeId, msg.sender)) return 0x0;\n             \n         return Nodes[nodeId].values[index];\n     }\n    \n    ///////////////////////////////////////////////////////////////////////////////////////////\n    // overwrite in folder with new sender and new feed\n    function overwriteKey(bytes32 nodeId, uint index, bytes32 key, bytes32 newValue) public returns (bool) {\n        if(!canOverwrite(nodeId, msg.sender)) return false;\n        \n        Node storage node = Nodes[nodeId];\n        if(index<node.values.length) // no such feed yet\n        {\n            bytes32 prevKey = node.keys[index]; // where is previous\n            node.valuesMap[prevKey] = 0x0; // set it to null \n            \n            node.keys[index] = key;\n            node.values[index] = newValue; \n            node.valuesMap[key] = newValue; //\n            bytes32 folder = getFolder(nodeId);\n            keyFolderValues[key][folder].push(newValue);\n            \n            emit OverwriteKeyValue(nodeId,index,key,newValue);\n            return true;\n        }        \n        return false;\n     }\n    // remove key\n    function removeKeyAt(bytes32 nodeId, uint256 index) public returns (bool) {\n         if(!canWrite(nodeId, msg.sender)) return false; \n         \n         Node storage node = Nodes[nodeId];\n         \n         bytes32 atKey = node.keys[index];\n         bytes32 preValue = node.values[index];\n         require(atKey!=0x0); // node has no sender at index \n         \n         node.valuesMap[atKey] = 0x0; // clear sender         \n         \n         node.keys[index] = node.keys[node.keys.length-1];\n         delete node.keys[node.keys.length-1];\n         node.keys.length--;\n         \n         node.values[index] = node.values[node.values.length-1];\n         delete node.values[node.values.length-1];\n         node.values.length--;\n         \n         emit RemoveKeyValue(nodeId, index, atKey, preValue);\n         return true;\n    }\n    \n    ///////////////////////////////////////////////////////////////////////////////////////////      \n    function getNodeId(bytes32 folder) view public returns (bytes32) { // will get protocol node address\n         bytes32 nodeId = folderNodes[folder];\n         if(nodeId==0) // does not exist\n         {\n            if(!canRead(rootNodeId, msg.sender)) \n               return 0x0;        \n            else     \n               return rootNodeId;\n         }        \n\n         return folderNodes[folder];\n    }\n    ///////////////////////////////////////////////////////////////////////////////////////////      \n    function getFolderIndex(bytes32 folder) view public returns (uint256) { // will get protocol node address\n         return folderIndex[folder];\n     }\n    // get folder by nodeId\n    function getFolder(bytes32 nodeId) view public returns (bytes32) {\n         \n         if(nodeIdToFolder[nodeId]==0) // does not exist\n         {\n            if(!canRead(rootNodeId, msg.sender)) \n                return 0x0;        \n            else     \n                return rootNodeId;\n         }        \n         \n         if(!canRead(nodeId, msg.sender)) return 0x0;           \n         return nodeIdToFolder[nodeId];\n     }\n\n    // ONLY OWNERS CAN ACCESS COMPLETE INFORMATION\n    ///////////////////////////////////////////////////////////////////////////////////////////      \n    // get all values ever, chronologically, never gets deleted, only added\n    function getFolderValuesForAKey(bytes32 folder, bytes32 key) onlyOwner view public returns (bytes32[] memory) {\n       return keyFolderValues[key][folder];\n    }\n     \n    ///////////////////////////////////////////////////////////////////////////////////////////      \n    function getAllFolders() onlyOwner view public returns (bytes32[] memory) { // get all folder\n     return folders;\n    }     \n    function getAllFoldersCount() onlyOwner view public returns (uint256) { // get num of folder\n     return folders.length;\n    }\n    function getFolderAt(uint256 idx) onlyOwner view public returns (bytes32) { // get folder by idx\n     return folders[idx];\n    }\n    ///////////////////////////////////////////////////////////////////////////////////////////\n    \n    // fallback function to accept ETH into contract.\n    function () external payable { }\n    // allow owner to remove funds  \n    function removeFunds() onlyOwner public {\n        owner.transfer(address(this).balance);\n    }    \n}\n\ncontract Multibox is Owned\n{\n    uint version;\n    bool public initialized=false; \n    // addresses of roots     \n    KeyValueTree[] roots; \n    \n    event Initialized();\n    event RootCreated(KeyValueTree);\n    event RootAdded(KeyValueTree);\n    event RootFailedNoOwner(address sender, address  owner);\n    event RootRemoved(uint256);\n    event RootRevoked(uint256);\n    event FundsRemoved(uint256);\n    \n    event AccessRequested(address, Multibox, KeyValueTree, bytes32);\n    event AccessRequestFail(address, Multibox, KeyValueTree, bytes32 nodeId, bool canOwnerWrite);\n    event AccessRequestFailNotOwner(address kvtOwner, address multiboxOwner); \n    event AccessGiven(address, address to);\n    \n    constructor() public {\n        version = 1;\n        initialized=false;\n    }\n    \n    function init() public returns (KeyValueTree) {\n        KeyValueTree a; \n        if(!initialized)\n            a = createRoot(owner);\n        \n        if(!initialized) \n           emit Initialized(); \n           \n        initialized=true;\n        return a;\n    }\n    \n    // any one can create new root, but ownership will belong to owner of multibox, \n    // while r/w of shared node can be set to whoHasReadWriteRights\n    function createRoot(address whoHasReadWriteRights) public returns (KeyValueTree) {\n        KeyValueTree kvt = new KeyValueTree(owner);\n        if(!initialized)\n          kvt.setNodeAccess(kvt.getShared(), whoHasReadWriteRights, 3); // first root shared node can anyone write to, but can't read from\n        else \n          kvt.setNodeAccess(kvt.getShared(), whoHasReadWriteRights, 2); // whoHasReadWriteRights r/w \n          \n        emit RootCreated(kvt);  \n        return addRoot(kvt);\n    }\n    function getRoots() public view returns (KeyValueTree[] memory) {\n        return roots;\n    }\n    function getRootsCount() public view returns (uint256) {\n        return roots.length;\n    }\n    function getRootAt(uint256 index) public view returns (KeyValueTree) {\n        return roots[index];\n    }\n    // others can add KeyValueTrees (but need to set access rights by themselfs)\n    function addRoot(KeyValueTree kvt) public returns (KeyValueTree) {\n        \n        if(kvt.owner() != msg.sender) // not owner of tree? can't move then \n        {\n            emit RootFailedNoOwner(msg.sender, kvt.owner());\n            return KeyValueTree(0x0);\n        }\n\n        roots.push(kvt);\n        emit RootAdded(kvt);  \n        return kvt;\n    }\n    // owner can remove any root except 0 \n    function removeRoot(uint256 index) onlyOwner public returns (uint256) {\n        if(index==0) return 0; // fail cant NEVER remove root\n        \n        roots[index] = roots[roots.length-1];\n        delete roots[roots.length-1];\n        roots.length--;\n        emit RootRemoved(index);\n        return roots.length;\n    }\n    // others can remove their trees \n    function revokeRoot(uint256 index) public returns (uint256) {\n        KeyValueTree kvt = roots[index];\n         \n        if(index==0) return 0; // fail cant NEVER remove root\n        if(kvt.owner() == msg.sender) // not owner of tree? can't move then \n           return 0;\n        \n        roots[index] = roots[roots.length-1];\n        delete roots[roots.length-1];\n        roots.length--;\n        emit RootRevoked(index);\n        return roots.length;\n    }\n    \n    // fallback function to accept ETH into contract.\n    function () external payable {\n    }\n    // allow owner to remove funds  \n    function removeFunds() onlyOwner public {\n        emit FundsRemoved(address(this).balance);\n        owner.transfer(address(this).balance);\n    }\n    \n    // ok so maybe this should be on Multibox level, multibox,kvt, nodeId\n    DataRequestEscrow[] accessRequests;\n    mapping(address => uint256) accessRequestsIndex; // map of folder to index (+1)\n    \n    function requestAccess(KeyValueTree kvt, bytes32 nodeId) public returns(DataRequestEscrow)\n    {\n        DataRequestEscrow dr;\n        bool canWrite = kvt.canWrite(nodeId, owner);\n        if(kvt.owner()!=this.owner())\n        {\n            emit AccessRequestFailNotOwner(kvt.owner(), this.owner());\n            return dr;\n        }\n        if(canWrite)\n        {\n            dr = new DataRequestEscrow(msg.sender, this, kvt, nodeId); \n            accessRequestsIndex[address(dr)] = accessRequests.push(dr);\n            emit AccessRequested(msg.sender, this, kvt, nodeId);\n            return dr;\n        }\n        \n        emit AccessRequestFail(msg.sender, this, kvt, nodeId, canWrite);\n        return dr;\n    }\n    function allowAccess(DataRequestEscrow dr) public onlyOwner \n    {\n        uint256 index = accessRequestsIndex[address(dr)];\n        if(index!=0) \n        {\n            if(dr.approve())\n            {\n                emit AccessGiven(address(dr), dr.whoRequester());\n                \n                accessRequestsIndex[address(dr)] = 0;\n                \n                accessRequests[index-1] = accessRequests[accessRequests.length-1];\n                delete accessRequests[accessRequests.length-1];\n                accessRequests.length--;\n                \n                dr.finalize(); // destroy contract, funds are moved to multibox.owner\n            }\n        }\n        dr.denyApproval();\n    }\n    function amountAvailable(DataRequestEscrow dr) public view returns(uint balance)\n    {\n        return address(dr).balance;\n    }\n}\n\n// kvt, nodeid\n// what we want: we want to assure that if addr1 gives data to addr2, addr2 will really pay \n// like escrow:\n// 1. alice request data kvt,nodeid(,key,value) from bob\n// 2. bob sets price\n// 3. alice pays price to escrow\n// 4. bob transfers knt,nodeid,key,value to alice\n// 5. bob takes the money\n\ncontract DataRequestEscrow {\n    Multibox multibox;\n    KeyValueTree kvt; \n    bytes32 nodeId; \n\n    address payable requester;\n\n    modifier onlyOwnerMultibox() {\n        require(msg.sender == multibox.owner());\n        _;\n    }\n    \n    constructor(address payable whoIsRequesting, Multibox mb, KeyValueTree keyValueTree, bytes32 targetNodeId) public\n    {\n        requester = whoIsRequesting;\n        multibox = mb;\n        kvt = keyValueTree;\n        nodeId = targetNodeId;\n    }\n\n    function deposit() external payable {\n        require(msg.sender==requester);\n        require(msg.value > 0);\n    }\n    \n    function whoRequester() onlyOwnerMultibox public view returns(address payable)\n    {\n        return requester;\n    }\n\n    function approve() onlyOwnerMultibox external returns (bool) {\n        if(kvt.isNode(nodeId))\n        {\n            int readRights = kvt.setNodeAccess(nodeId, requester, 1); // give read permission \n            if(readRights==1) {\n               return true;\n            }\n        }\n        return false;\n    }\n    function finalize() onlyOwnerMultibox external \n    {\n        selfdestruct(multibox.owner()); // this failed, give funds back\n    }\n    function denyApproval() onlyOwnerMultibox external \n    {\n        selfdestruct(requester); // this failed, give funds back\n    }\n    function abortApproval() external \n    {\n        require(msg.sender==requester);\n        selfdestruct(requester); // this failed, give funds back\n    }\n}",
  "sourcePath": "C:/Users/tex/source/repos/FairDataSociety/multibox/contracts/Multibox.sol",
  "compiler": {
    "name": "solc",
    "version": "0.5.0+commit.1d4f565a.Emscripten.clang"
  },
  "schemaVersion": "3.0.6",
  "updatedAt": "2019-05-10T15:57:10.407Z",
  "devdoc": {
    "methods": {}
  },
  "userdoc": {
    "methods": {
      "constructor": "The Constructor assigns the message sender to be `owner`"
    }
  }
}